{
  "contractName": "Lottery",
  "abi": [
    {
      "inputs": [],
      "stateMutability": "nonpayable",
      "type": "constructor"
    },
    {
      "anonymous": false,
      "inputs": [
        {
          "indexed": false,
          "internalType": "uint256",
          "name": "index",
          "type": "uint256"
        },
        {
          "indexed": false,
          "internalType": "address",
          "name": "bettor",
          "type": "address"
        },
        {
          "indexed": false,
          "internalType": "uint256",
          "name": "amount",
          "type": "uint256"
        },
        {
          "indexed": false,
          "internalType": "uint256",
          "name": "number",
          "type": "uint256"
        },
        {
          "indexed": false,
          "internalType": "bool",
          "name": "guess",
          "type": "bool"
        }
      ],
      "name": "BET",
      "type": "event"
    },
    {
      "anonymous": false,
      "inputs": [
        {
          "indexed": false,
          "internalType": "uint256[6]",
          "name": "finalNumbers",
          "type": "uint256[6]"
        }
      ],
      "name": "GAME_ENDED",
      "type": "event"
    },
    {
      "anonymous": false,
      "inputs": [
        {
          "indexed": false,
          "internalType": "uint256[3]",
          "name": "luckyNumbers",
          "type": "uint256[3]"
        }
      ],
      "name": "GAME_STARTED",
      "type": "event"
    },
    {
      "inputs": [],
      "name": "gameStarted",
      "outputs": [
        {
          "internalType": "bool",
          "name": "",
          "type": "bool"
        }
      ],
      "stateMutability": "view",
      "type": "function",
      "constant": true
    },
    {
      "inputs": [],
      "name": "owner",
      "outputs": [
        {
          "internalType": "address",
          "name": "",
          "type": "address"
        }
      ],
      "stateMutability": "view",
      "type": "function",
      "constant": true
    },
    {
      "inputs": [],
      "name": "tmp_randomNumber",
      "outputs": [
        {
          "internalType": "uint256",
          "name": "",
          "type": "uint256"
        }
      ],
      "stateMutability": "view",
      "type": "function",
      "constant": true
    },
    {
      "inputs": [],
      "name": "startGame",
      "outputs": [],
      "stateMutability": "nonpayable",
      "type": "function"
    },
    {
      "inputs": [],
      "name": "endGame",
      "outputs": [],
      "stateMutability": "nonpayable",
      "type": "function"
    },
    {
      "inputs": [
        {
          "internalType": "uint256",
          "name": "number",
          "type": "uint256"
        },
        {
          "internalType": "bool",
          "name": "guess",
          "type": "bool"
        }
      ],
      "name": "bet",
      "outputs": [
        {
          "internalType": "bool",
          "name": "result",
          "type": "bool"
        }
      ],
      "stateMutability": "payable",
      "type": "function",
      "payable": true
    },
    {
      "inputs": [
        {
          "internalType": "uint256",
          "name": "number",
          "type": "uint256"
        },
        {
          "internalType": "bool",
          "name": "status",
          "type": "bool"
        }
      ],
      "name": "getBettingAmount",
      "outputs": [
        {
          "internalType": "uint256",
          "name": "",
          "type": "uint256"
        }
      ],
      "stateMutability": "view",
      "type": "function",
      "constant": true
    }
  ],
  "bytecode": "0x60806040525f8060146101000a81548160ff0219169083151502179055505f60035534801561002c575f80fd5b50335f806101000a81548173ffffffffffffffffffffffffffffffffffffffff021916908373ffffffffffffffffffffffffffffffffffffffff16021790555061138b806100795f395ff3fe60806040526004361061006f575f3560e01c80638da5cb5b1161004d5780638da5cb5b146100ef5780639a6d3aaa14610119578063d65ab5f214610149578063fa4dec671461015f5761006f565b8063146ed8d9146100735780635e123ce4146100af5780636cbc2ded146100d9575b5f80fd5b34801561007e575f80fd5b5061009960048036038101906100949190610b68565b610189565b6040516100a69190610bb5565b60405180910390f35b3480156100ba575f80fd5b506100c36101cb565b6040516100d09190610bdd565b60405180910390f35b3480156100e4575f80fd5b506100ed6101dd565b005b3480156100fa575f80fd5b50610103610435565b6040516101109190610c35565b60405180910390f35b610133600480360381019061012e9190610b68565b610458565b6040516101409190610bdd565b60405180910390f35b348015610154575f80fd5b5061015d6105e2565b005b34801561016a575f80fd5b5061017361081a565b6040516101809190610bb5565b60405180910390f35b5f60025f60035481526020019081526020015f20600b015f8481526020019081526020015f205f831515151581526020019081526020015f2054905092915050565b5f60149054906101000a900460ff1681565b5f8054906101000a900473ffffffffffffffffffffffffffffffffffffffff1673ffffffffffffffffffffffffffffffffffffffff163373ffffffffffffffffffffffffffffffffffffffff161461026a576040517f08c379a000000000000000000000000000000000000000000000000000000000815260040161026190610cce565b60405180910390fd5b5f60149054906101000a900460ff166102b8576040517f08c379a00000000000000000000000000000000000000000000000000000000081526004016102af90610d36565b60405180910390fd5b5f60025f60035481526020019081526020015f2090505f5b60068110156103be576001602d6102e683610820565b6102f09190610d81565b6102fa9190610dde565b6001819055505b81600a015f60015481526020019081526020015f205f9054906101000a900460ff1615610360576001602d610341600c8461033c9190610dde565b610820565b61034b9190610d81565b6103559190610dde565b600181905550610301565b60015482600401826006811061037957610378610e11565b5b0181905550600182600a015f60015481526020019081526020015f205f6101000a81548160ff02191690831515021790555080806103b690610e3e565b9150506102d0565b507fee7f0ec43aef1c20507102234eb8ea250816ef07f53e7a5f215d1abd9f8ce739816004016040516103f19190610f70565b60405180910390a1610401610855565b5060035f81548092919061041490610e3e565b91905055505f8060146101000a81548160ff02191690831515021790555050565b5f8054906101000a900473ffffffffffffffffffffffffffffffffffffffff1681565b5f8060149054906101000a900460ff166104a7576040517f08c379a000000000000000000000000000000000000000000000000000000000815260040161049e90610fd3565b60405180910390fd5b5f83101580156104b8575060028311155b6104f7576040517f08c379a00000000000000000000000000000000000000000000000000000000081526004016104ee9061103b565b60405180910390fd5b670de0b6b3a7640000341015610542576040517f08c379a0000000000000000000000000000000000000000000000000000000008152600401610539906110a3565b60405180910390fd5b61054c838361091e565b61058b576040517f08c379a00000000000000000000000000000000000000000000000000000000081526004016105829061110b565b60405180910390fd5b7fae93299193b838cfb19af386fccb2bffbaa59ee7a6ff9e9fe729155ee2074a2460016005546105bb9190611129565b333486866040516105d095949392919061115c565b60405180910390a16001905092915050565b5f8054906101000a900473ffffffffffffffffffffffffffffffffffffffff1673ffffffffffffffffffffffffffffffffffffffff163373ffffffffffffffffffffffffffffffffffffffff161461066f576040517f08c379a000000000000000000000000000000000000000000000000000000000815260040161066690610cce565b60405180910390fd5b5f60149054906101000a900460ff16156106be576040517f08c379a00000000000000000000000000000000000000000000000000000000081526004016106b5906111f7565b60405180910390fd5b5f60025f60035481526020019081526020015f2090505f5b60038110156107c3576001602d6106ec83610820565b6106f69190610d81565b6107009190610dde565b6001819055505b816003015f60015481526020019081526020015f205f9054906101000a900460ff1615610766576001602d610747600c846107429190610dde565b610820565b6107519190610d81565b61075b9190610dde565b600181905550610707565b600154825f01826003811061077e5761077d610e11565b5b01819055506001826003015f60015481526020019081526020015f205f6101000a81548160ff02191690831515021790555080806107bb90610e3e565b9150506106d6565b5060015f60146101000a81548160ff0219169083151502179055507fbc0bf610e314089159fe3abf46413dbf7db2aa7b81d6d8e99cb8208cdaba29ac815f0160405161080f919061129b565b60405180910390a150565b60015481565b5f42338360405160200161083693929190611319565b604051602081830303815290604052805190602001205f1c9050919050565b5f805f9054906101000a900473ffffffffffffffffffffffffffffffffffffffff1673ffffffffffffffffffffffffffffffffffffffff163373ffffffffffffffffffffffffffffffffffffffff16146108e4576040517f08c379a00000000000000000000000000000000000000000000000000000000081526004016108db90610cce565b60405180910390fd5b60025f60035481526020019081526020015f205f8082015f6109069190610a80565b600482015f6109159190610a92565b50506001905090565b5f3460025f60035481526020019081526020015f20600b015f8581526020019081526020015f205f841515151581526020019081526020015f205f8282546109669190610dde565b92505081905550610975610aa5565b33815f019073ffffffffffffffffffffffffffffffffffffffff16908173ffffffffffffffffffffffffffffffffffffffff16815250503481602001818152505083816040018181525050828160600190151590811515815250508060045f60055481526020019081526020015f205f820151815f015f6101000a81548173ffffffffffffffffffffffffffffffffffffffff021916908373ffffffffffffffffffffffffffffffffffffffff16021790555060208201518160010155604082015181600201556060820151816003015f6101000a81548160ff02191690831515021790555090505060055f815480929190610a7090610e3e565b9190505550600191505092915050565b505f81556001015f81556001015f9055565b508060060190610aa29190610ae1565b50565b60405180608001604052805f73ffffffffffffffffffffffffffffffffffffffff1681526020015f81526020015f81526020015f151581525090565b5b80821115610af8575f815f905550600101610ae2565b5090565b5f80fd5b5f819050919050565b610b1281610b00565b8114610b1c575f80fd5b50565b5f81359050610b2d81610b09565b92915050565b5f8115159050919050565b610b4781610b33565b8114610b51575f80fd5b50565b5f81359050610b6281610b3e565b92915050565b5f8060408385031215610b7e57610b7d610afc565b5b5f610b8b85828601610b1f565b9250506020610b9c85828601610b54565b9150509250929050565b610baf81610b00565b82525050565b5f602082019050610bc85f830184610ba6565b92915050565b610bd781610b33565b82525050565b5f602082019050610bf05f830184610bce565b92915050565b5f73ffffffffffffffffffffffffffffffffffffffff82169050919050565b5f610c1f82610bf6565b9050919050565b610c2f81610c15565b82525050565b5f602082019050610c485f830184610c26565b92915050565b5f82825260208201905092915050565b7f4f6e6c7920746865206f776e65722063616e2063616c6c20746869732066756e5f8201527f6374696f6e2e0000000000000000000000000000000000000000000000000000602082015250565b5f610cb8602683610c4e565b9150610cc382610c5e565b604082019050919050565b5f6020820190508181035f830152610ce581610cac565b9050919050565b7f47616d6520686173206e6f7420737461727465642079657400000000000000005f82015250565b5f610d20601883610c4e565b9150610d2b82610cec565b602082019050919050565b5f6020820190508181035f830152610d4d81610d14565b9050919050565b7f4e487b71000000000000000000000000000000000000000000000000000000005f52601260045260245ffd5b5f610d8b82610b00565b9150610d9683610b00565b925082610da657610da5610d54565b5b828206905092915050565b7f4e487b71000000000000000000000000000000000000000000000000000000005f52601160045260245ffd5b5f610de882610b00565b9150610df383610b00565b9250828201905080821115610e0b57610e0a610db1565b5b92915050565b7f4e487b71000000000000000000000000000000000000000000000000000000005f52603260045260245ffd5b5f610e4882610b00565b91507fffffffffffffffffffffffffffffffffffffffffffffffffffffffffffffffff8203610e7a57610e79610db1565b5b600182019050919050565b5f60069050919050565b5f81905092915050565b5f819050919050565b610eab81610b00565b82525050565b5f610ebc8383610ea2565b60208301905092915050565b5f815f1c9050919050565b5f819050919050565b5f610eee610ee983610ec8565b610ed3565b9050919050565b5f610f008254610edc565b9050919050565b5f600182019050919050565b610f1c81610e85565b610f268184610e8f565b9250610f3182610e99565b805f5b83811015610f6857610f4582610ef5565b610f4f8782610eb1565b9650610f5a83610f07565b925050600181019050610f34565b505050505050565b5f60c082019050610f835f830184610f13565b92915050565b7f47616d6520686173206e6f7420737461727465642e00000000000000000000005f82015250565b5f610fbd601583610c4e565b9150610fc882610f89565b602082019050919050565b5f6020820190508181035f830152610fea81610fb1565b9050919050565b7f4e756d626572206d757374206265206265747765656e203020616e64203200005f82015250565b5f611025601e83610c4e565b915061103082610ff1565b602082019050919050565b5f6020820190508181035f83015261105281611019565b9050919050565b7f4e6f7420656e6f756768204554480000000000000000000000000000000000005f82015250565b5f61108d600e83610c4e565b915061109882611059565b602082019050919050565b5f6020820190508181035f8301526110ba81611081565b9050919050565b7f70757368426574206661696c65642121000000000000000000000000000000005f82015250565b5f6110f5601083610c4e565b9150611100826110c1565b602082019050919050565b5f6020820190508181035f830152611122816110e9565b9050919050565b5f61113382610b00565b915061113e83610b00565b925082820390508181111561115657611155610db1565b5b92915050565b5f60a08201905061116f5f830188610ba6565b61117c6020830187610c26565b6111896040830186610ba6565b6111966060830185610ba6565b6111a36080830184610bce565b9695505050505050565b7f47616d652068617320616c726561647920737461727465642e000000000000005f82015250565b5f6111e1601983610c4e565b91506111ec826111ad565b602082019050919050565b5f6020820190508181035f83015261120e816111d5565b9050919050565b5f60039050919050565b5f81905092915050565b5f819050919050565b5f600182019050919050565b61124781611215565b611251818461121f565b925061125c82611229565b805f5b838110156112935761127082610ef5565b61127a8782610eb1565b965061128583611232565b92505060018101905061125f565b505050505050565b5f6060820190506112ae5f83018461123e565b92915050565b5f819050919050565b6112ce6112c982610b00565b6112b4565b82525050565b5f8160601b9050919050565b5f6112ea826112d4565b9050919050565b5f6112fb826112e0565b9050919050565b61131361130e82610c15565b6112f1565b82525050565b5f61132482866112bd565b6020820191506113348285611302565b60148201915061134482846112bd565b60208201915081905094935050505056fea2646970667358221220ade17aa388f090aad9da25456da087aa13042203783732f26f1f4e24e82a4f8664736f6c63430008150033",
  "immutableReferences": {},
  "source": "// SPDX-License-Identifier: MIT\npragma solidity ^0.8.0;\n\n// [v] 1. owner    \n// [v] 2. 1~45     3 .\n// [v] 3.     true or false (ex.10, 15, 20) ->  (n,y,n)\n// [v] 4.     \n// [v] 5. owner    \n// [v] 6. 1 ~ 45   6 \n// 7. 6   2  3     ,     true  false  \n// 8.   \n// 9.      \n\ncontract Lottery {\n    address public owner; // owner \n    bool public gameStarted = false; //  \n    uint256 constant internal MIN_BET_AMOUNT = 1 * 10 ** 18; //   , 1 \n    uint public tmp_randomNumber; //     \n    \n    struct Game {\n        uint[3] luckyNumbers;\n        mapping(uint => bool) luckyNumExists;\n        uint[6] finalNumbers;\n        mapping(uint => bool) finalNumExists;\n        mapping(uint => mapping(bool => uint)) bettingAmount;\n    }\n\n    struct BetInfo {\n        address payable bettor; //    \n        uint256 betAmount;  //  \n        uint number; //   (1~45)\n        bool guess; //  true or false\n    }\n\n    mapping (uint256 => Game) private games;\n    uint256 private _games_tail = 0;\n\n    mapping (uint256 => BetInfo) private _bets;\n    uint256 private _bets_tail;\n\n    event GAME_STARTED(uint[3] luckyNumbers);\n    event GAME_ENDED(uint[6] finalNumbers);\n    event BET(uint256 index, address bettor, uint256 amount, uint number, bool guess);\n\n\n    constructor() {\n        owner = msg.sender;\n    }\n\n    modifier onlyOwner() {\n    require(msg.sender == owner, \"Only the owner can call this function.\");\n    _;\n    }\n\n    function startGame() public onlyOwner {\n        require(!gameStarted, \"Game has already started.\");\n\n        Game storage game = games[_games_tail];\n\n        for (uint i = 0; i < 3; i++) {\n            tmp_randomNumber = generateRandomNumber(i) % 45 + 1;\n            while(game.luckyNumExists[tmp_randomNumber]) {\n                tmp_randomNumber = generateRandomNumber(i + 12) % 45 + 1;\n            }\n            game.luckyNumbers[i] = tmp_randomNumber;\n            game.luckyNumExists[tmp_randomNumber] = true;\n        }\n\n        gameStarted = true;\n        emit GAME_STARTED(game.luckyNumbers);\n    }\n\n    function endGame() public onlyOwner {\n        require(gameStarted, \"Game has not started yet\");\n\n        Game storage game = games[_games_tail];\n\n        for (uint i = 0; i < 6; i++) {\n            tmp_randomNumber = generateRandomNumber(i) % 45 + 1;\n            while(game.finalNumExists[tmp_randomNumber]) {\n                tmp_randomNumber = generateRandomNumber(i + 12) % 45 + 1;\n            }\n            game.finalNumbers[i] = tmp_randomNumber;\n            game.finalNumExists[tmp_randomNumber] = true;\n        }\n\n        emit GAME_ENDED(game.finalNumbers);\n        \n        popGame();\n        _games_tail++;\n        gameStarted = false;\n    }\n\n    function generateRandomNumber(uint seed) private view returns (uint) {\n        return uint(keccak256(abi.encodePacked(block.timestamp, msg.sender, seed)));\n    }\n\n    function popGame() private onlyOwner returns (bool) {\n        delete games[_games_tail];\n        return true;\n    }\n\n    function bet(uint number, bool guess) public payable returns(bool result) {\n    //   \n    require(gameStarted, \"Game has not started.\");\n    //    \n    require(number >= 0 && number <= 2, \"Number must be between 0 and 2\");\n    //   \n    require(msg.value >= MIN_BET_AMOUNT, \"Not enough ETH\");\n\n    require(pushBet(number, guess), \"pushBet failed!!\");\n\n    emit BET(_bets_tail - 1, msg.sender, msg.value, number, guess);\n\n    return true;\n    }\n\n    function pushBet(uint number, bool guess) internal returns (bool) {\n        games[_games_tail].bettingAmount[number][guess] += msg.value; //     \n\n        BetInfo memory betting; //    \n        betting.bettor = payable(msg.sender);\n        betting.betAmount = msg.value;\n        betting.number = number;\n        betting.guess = guess;\n\n        _bets[_bets_tail] = betting;\n        _bets_tail++;\n\n        return true;\n    }\n\n    function getBettingAmount(uint number, bool status) public view returns (uint) {\n        return games[_games_tail].bettingAmount[number][status];\n    }\n}",
  "sourcePath": "/Users/eomhyeonjun/now_code/Lottery_solidity/lottery-sol/contracts/Lottery.sol",
  "compiler": {
    "name": "solc",
    "version": "0.8.21+commit.d9974bed.Emscripten.clang"
  },
  "schemaVersion": "3.4.16",
  "updatedAt": "2024-05-16T06:24:20.335Z",
  "networkType": "ethereum",
  "devdoc": {
    "kind": "dev",
    "methods": {},
    "version": 1
  },
  "userdoc": {
    "kind": "user",
    "methods": {},
    "version": 1
  }
}