{
  "contractName": "Lottery",
  "abi": [
    {
      "inputs": [],
      "stateMutability": "nonpayable",
      "type": "constructor"
    },
    {
      "anonymous": false,
      "inputs": [
        {
          "indexed": false,
          "internalType": "uint256",
          "name": "index",
          "type": "uint256"
        },
        {
          "indexed": false,
          "internalType": "address",
          "name": "bettor",
          "type": "address"
        },
        {
          "indexed": false,
          "internalType": "uint256",
          "name": "amount",
          "type": "uint256"
        },
        {
          "indexed": false,
          "internalType": "uint256",
          "name": "number",
          "type": "uint256"
        },
        {
          "indexed": false,
          "internalType": "bool",
          "name": "guess",
          "type": "bool"
        }
      ],
      "name": "BET",
      "type": "event"
    },
    {
      "anonymous": false,
      "inputs": [
        {
          "indexed": false,
          "internalType": "bool[3]",
          "name": "winner",
          "type": "bool[3]"
        }
      ],
      "name": "GAME_ANSWER",
      "type": "event"
    },
    {
      "anonymous": false,
      "inputs": [
        {
          "indexed": false,
          "internalType": "uint256[6]",
          "name": "finalNumbers",
          "type": "uint256[6]"
        }
      ],
      "name": "GAME_ENDED",
      "type": "event"
    },
    {
      "anonymous": false,
      "inputs": [
        {
          "indexed": false,
          "internalType": "uint256[3]",
          "name": "luckyNumbers",
          "type": "uint256[3]"
        }
      ],
      "name": "GAME_STARTED",
      "type": "event"
    },
    {
      "anonymous": false,
      "inputs": [
        {
          "indexed": true,
          "internalType": "address",
          "name": "bettor",
          "type": "address"
        },
        {
          "indexed": false,
          "internalType": "uint256",
          "name": "amount",
          "type": "uint256"
        }
      ],
      "name": "PAYOUT",
      "type": "event"
    },
    {
      "inputs": [],
      "name": "gameStarted",
      "outputs": [
        {
          "internalType": "bool",
          "name": "",
          "type": "bool"
        }
      ],
      "stateMutability": "view",
      "type": "function",
      "constant": true
    },
    {
      "inputs": [],
      "name": "owner",
      "outputs": [
        {
          "internalType": "address payable",
          "name": "",
          "type": "address"
        }
      ],
      "stateMutability": "view",
      "type": "function",
      "constant": true
    },
    {
      "inputs": [
        {
          "internalType": "address",
          "name": "",
          "type": "address"
        }
      ],
      "name": "payouts",
      "outputs": [
        {
          "internalType": "uint256",
          "name": "",
          "type": "uint256"
        }
      ],
      "stateMutability": "view",
      "type": "function",
      "constant": true
    },
    {
      "inputs": [],
      "name": "tmp_randomNumber",
      "outputs": [
        {
          "internalType": "uint256",
          "name": "",
          "type": "uint256"
        }
      ],
      "stateMutability": "view",
      "type": "function",
      "constant": true
    },
    {
      "inputs": [
        {
          "internalType": "uint256",
          "name": "",
          "type": "uint256"
        }
      ],
      "name": "topPayouts",
      "outputs": [
        {
          "internalType": "address",
          "name": "bettor",
          "type": "address"
        },
        {
          "internalType": "uint256",
          "name": "payout",
          "type": "uint256"
        }
      ],
      "stateMutability": "view",
      "type": "function",
      "constant": true
    },
    {
      "inputs": [],
      "name": "startGame",
      "outputs": [],
      "stateMutability": "nonpayable",
      "type": "function"
    },
    {
      "inputs": [],
      "name": "endGame",
      "outputs": [],
      "stateMutability": "nonpayable",
      "type": "function"
    },
    {
      "inputs": [
        {
          "internalType": "uint256",
          "name": "number",
          "type": "uint256"
        },
        {
          "internalType": "bool",
          "name": "guess",
          "type": "bool"
        }
      ],
      "name": "calculateOdds",
      "outputs": [
        {
          "internalType": "uint256",
          "name": "",
          "type": "uint256"
        }
      ],
      "stateMutability": "view",
      "type": "function",
      "constant": true
    },
    {
      "inputs": [
        {
          "internalType": "uint256",
          "name": "number",
          "type": "uint256"
        },
        {
          "internalType": "bool",
          "name": "guess",
          "type": "bool"
        }
      ],
      "name": "bet",
      "outputs": [
        {
          "internalType": "bool",
          "name": "result",
          "type": "bool"
        }
      ],
      "stateMutability": "payable",
      "type": "function",
      "payable": true
    },
    {
      "inputs": [
        {
          "internalType": "uint256",
          "name": "number",
          "type": "uint256"
        },
        {
          "internalType": "bool",
          "name": "status",
          "type": "bool"
        }
      ],
      "name": "getBettingAmount",
      "outputs": [
        {
          "internalType": "uint256",
          "name": "",
          "type": "uint256"
        }
      ],
      "stateMutability": "view",
      "type": "function",
      "constant": true
    },
    {
      "inputs": [],
      "name": "getTopPayouts",
      "outputs": [
        {
          "components": [
            {
              "internalType": "address",
              "name": "bettor",
              "type": "address"
            },
            {
              "internalType": "uint256",
              "name": "payout",
              "type": "uint256"
            }
          ],
          "internalType": "struct Lottery.PayoutInfo[5]",
          "name": "",
          "type": "tuple[5]"
        }
      ],
      "stateMutability": "view",
      "type": "function",
      "constant": true
    }
  ],
  "bytecode": "0x60806040525f8060146101000a81548160ff0219169083151502179055505f600e5534801561002c575f80fd5b50335f806101000a81548173ffffffffffffffffffffffffffffffffffffffff021916908373ffffffffffffffffffffffffffffffffffffffff160217905550613090806100795f395ff3fe60806040526004361061009b575f3560e01c80638da5cb5b116100635780638da5cb5b146101945780639a6d3aaa146101be578063d5c20ccf146101ee578063d65ab5f21461022a578063de75b7af14610240578063fa4dec671461026a5761009b565b8063146ed8d91461009f5780635e123ce4146100db57806365bcfbe71461010557806366fb123f146101415780636cbc2ded1461017e575b5f80fd5b3480156100aa575f80fd5b506100c560048036038101906100c091906118d6565b610294565b6040516100d29190611923565b60405180910390f35b3480156100e6575f80fd5b506100ef6102d6565b6040516100fc919061194b565b60405180910390f35b348015610110575f80fd5b5061012b600480360381019061012691906119be565b6102e8565b6040516101389190611923565b60405180910390f35b34801561014c575f80fd5b50610167600480360381019061016291906119e9565b6102fd565b604051610175929190611a23565b60405180910390f35b348015610189575f80fd5b50610192610343565b005b34801561019f575f80fd5b506101a86105a2565b6040516101b59190611a6a565b60405180910390f35b6101d860048036038101906101d391906118d6565b6105c5565b6040516101e5919061194b565b60405180910390f35b3480156101f9575f80fd5b50610214600480360381019061020f91906118d6565b610869565b6040516102219190611923565b60405180910390f35b348015610235575f80fd5b5061023e6109b7565b005b34801561024b575f80fd5b50610254610bef565b6040516102619190611b64565b60405180910390f35b348015610275575f80fd5b5061027e610c9e565b60405161028b9190611923565b60405180910390f35b5f600d5f600e5481526020019081526020015f20600b015f8481526020019081526020015f205f831515151581526020019081526020015f2054905092915050565b5f60149054906101000a900460ff1681565b6002602052805f5260405f205f915090505481565b6003816005811061030c575f80fd5b600202015f91509050805f015f9054906101000a900473ffffffffffffffffffffffffffffffffffffffff16908060010154905082565b5f8054906101000a900473ffffffffffffffffffffffffffffffffffffffff1673ffffffffffffffffffffffffffffffffffffffff163373ffffffffffffffffffffffffffffffffffffffff16146103d0576040517f08c379a00000000000000000000000000000000000000000000000000000000081526004016103c790611bfe565b60405180910390fd5b5f60149054906101000a900460ff1661041e576040517f08c379a000000000000000000000000000000000000000000000000000000000815260040161041590611c66565b60405180910390fd5b5f600d5f600e5481526020019081526020015f2090505f5b6006811015610524576001602d61044c83610ca4565b6104569190611cb1565b6104609190611d0e565b6001819055505b81600a015f60015481526020019081526020015f205f9054906101000a900460ff16156104c6576001602d6104a7600c846104a29190611d0e565b610ca4565b6104b19190611cb1565b6104bb9190611d0e565b600181905550610467565b6001548260040182600681106104df576104de611d41565b5b0181905550600182600a015f60015481526020019081526020015f205f6101000a81548160ff021916908315150217905550808061051c90611d6e565b915050610436565b507fee7f0ec43aef1c20507102234eb8ea250816ef07f53e7a5f215d1abd9f8ce739816004016040516105579190611e91565b60405180910390a1610567610cd9565b61056f610dcb565b600e5f81548092919061058190611d6e565b91905055505f8060146101000a81548160ff02191690831515021790555050565b5f8054906101000a900473ffffffffffffffffffffffffffffffffffffffff1681565b5f80600d5f600e5481526020019081526020015f2090505f60149054906101000a900460ff1661062a576040517f08c379a000000000000000000000000000000000000000000000000000000000815260040161062190611ef4565b60405180910390fd5b5f841015801561063b575060028411155b61067a576040517f08c379a000000000000000000000000000000000000000000000000000000000815260040161067190611f5c565b60405180910390fd5b670de0b6b3a76400003410156106c5576040517f08c379a00000000000000000000000000000000000000000000000000000000081526004016106bc90611fc4565b60405180910390fd5b80600f015f3373ffffffffffffffffffffffffffffffffffffffff1673ffffffffffffffffffffffffffffffffffffffff1681526020019081526020015f205f8581526020019081526020015f205f9054906101000a900460ff1615610760576040517f08c379a000000000000000000000000000000000000000000000000000000000815260040161075790612052565b60405180910390fd5b61076a8484610ea3565b6107a9576040517f08c379a00000000000000000000000000000000000000000000000000000000081526004016107a0906120ba565b60405180910390fd5b600181600f015f3373ffffffffffffffffffffffffffffffffffffffff1673ffffffffffffffffffffffffffffffffffffffff1681526020019081526020015f205f8681526020019081526020015f205f6101000a81548160ff0219169083151502179055507fae93299193b838cfb19af386fccb2bffbaa59ee7a6ff9e9fe729155ee2074a24600182600e015461084191906120d8565b3334878760405161085695949392919061210b565b60405180910390a1600191505092915050565b5f8060149054906101000a900460ff166108b8576040517f08c379a00000000000000000000000000000000000000000000000000000000081526004016108af90611ef4565b60405180910390fd5b5f600d5f600e5481526020019081526020015f2090505f81600b015f8681526020019081526020015f205f801515151581526020019081526020015f205482600b015f8781526020019081526020015f205f60011515151581526020019081526020015f20546109289190611d0e565b90505f82600b015f8781526020019081526020015f205f861515151581526020019081526020015f205490505f81148061096157505f82145b15610971575f93505050506109b1565b5f600a600984610981919061215c565b61098b919061219d565b90505f8260648361099c919061215c565b6109a6919061219d565b905080955050505050505b92915050565b5f8054906101000a900473ffffffffffffffffffffffffffffffffffffffff1673ffffffffffffffffffffffffffffffffffffffff163373ffffffffffffffffffffffffffffffffffffffff1614610a44576040517f08c379a0000000000000000000000000000000000000000000000000000000008152600401610a3b90611bfe565b60405180910390fd5b5f60149054906101000a900460ff1615610a93576040517f08c379a0000000000000000000000000000000000000000000000000000000008152600401610a8a90612217565b60405180910390fd5b5f600d5f600e5481526020019081526020015f2090505f5b6003811015610b98576001602d610ac183610ca4565b610acb9190611cb1565b610ad59190611d0e565b6001819055505b816003015f60015481526020019081526020015f205f9054906101000a900460ff1615610b3b576001602d610b1c600c84610b179190611d0e565b610ca4565b610b269190611cb1565b610b309190611d0e565b600181905550610adc565b600154825f018260038110610b5357610b52611d41565b5b01819055506001826003015f60015481526020019081526020015f205f6101000a81548160ff0219169083151502179055508080610b9090611d6e565b915050610aab565b5060015f60146101000a81548160ff0219169083151502179055507fbc0bf610e314089159fe3abf46413dbf7db2aa7b81d6d8e99cb8208cdaba29ac815f01604051610be491906122bb565b60405180910390a150565b610bf761178d565b6003600580602002604051908101604052809291905f905b82821015610c95578382600202016040518060400160405290815f82015f9054906101000a900473ffffffffffffffffffffffffffffffffffffffff1673ffffffffffffffffffffffffffffffffffffffff1673ffffffffffffffffffffffffffffffffffffffff16815260200160018201548152505081526020019060010190610c0f565b50505050905090565b60015481565b5f423383604051602001610cba93929190612339565b604051602081830303815290604052805190602001205f1c9050919050565b5f600d5f600e5481526020019081526020015f2090505f5b6003811015610d855781600a015f835f018360038110610d1457610d13611d41565b5b015481526020019081526020015f205f9054906101000a900460ff16610d3a575f610d3d565b60015b82600c018260038110610d5357610d52611d41565b5b602091828204019190066101000a81548160ff0219169083151502179055508080610d7d90611d6e565b915050610cf1565b507fb86f380fdfa7e748f1134016e8327c55ce06b46a6ec0540dd208812885444fd381600c01604051610db89190613041565b60405180910390a1610dc8611010565b50565b5f8054906101000a900473ffffffffffffffffffffffffffffffffffffffff1673ffffffffffffffffffffffffffffffffffffffff163373ffffffffffffffffffffffffffffffffffffffff1614610e58576040517f08c379a0000000000000000000000000000000000000000000000000000000008152600401610e4f90611bfe565b60405180910390fd5b600d5f600e5481526020019081526020015f205f8082015f610e7a91906117ba565b600482015f610e8991906117cc565b600c82015f610e9891906117df565b600e82015f90555050565b5f80600d5f600e5481526020019081526020015f2090503481600b015f8681526020019081526020015f205f851515151581526020019081526020015f205f828254610eef9190611d0e565b92505081905550610efe6117e5565b33815f019073ffffffffffffffffffffffffffffffffffffffff16908173ffffffffffffffffffffffffffffffffffffffff16815250503481602001818152505084816040018181525050838160600190151590811515815250508082600d015f84600e015481526020019081526020015f205f820151815f015f6101000a81548173ffffffffffffffffffffffffffffffffffffffff021916908373ffffffffffffffffffffffffffffffffffffffff16021790555060208201518160010155604082015181600201556060820151816003015f6101000a81548160ff02191690831515021790555090505081600e015f815480929190610fff90611d6e565b919050555060019250505092915050565b5f600d5f600e5481526020019081526020015f2090505f5b60038110156113be575f82600c01826003811061104857611047611d41565b5b602091828204019190069054906101000a900460ff1690505f83600b015f8481526020019081526020015f205f801515151581526020019081526020015f205484600b015f8581526020019081526020015f205f60011515151581526020019081526020015f20546110ba9190611d0e565b90505f8111156113a9575f600a6001836110d4919061215c565b6110de919061219d565b90505f5b85600e0154811015611343575f86600d015f8381526020019081526020015f20905085816002015414801561112a5750841515816003015f9054906101000a900460ff161515145b1561132f575f606461113c8888610869565b836001015461114b919061215c565b611155919061219d565b90508060025f845f015f9054906101000a900473ffffffffffffffffffffffffffffffffffffffff1673ffffffffffffffffffffffffffffffffffffffff1673ffffffffffffffffffffffffffffffffffffffff1681526020019081526020015f205f8282546111c59190611d0e565b92505081905550611257825f015f9054906101000a900473ffffffffffffffffffffffffffffffffffffffff1660025f855f015f9054906101000a900473ffffffffffffffffffffffffffffffffffffffff1673ffffffffffffffffffffffffffffffffffffffff1673ffffffffffffffffffffffffffffffffffffffff1681526020019081526020015f20546113c2565b815f015f9054906101000a900473ffffffffffffffffffffffffffffffffffffffff1673ffffffffffffffffffffffffffffffffffffffff166108fc8290811502906040515f60405180830381858888f193505050501580156112bc573d5f803e3d5ffd5b50815f015f9054906101000a900473ffffffffffffffffffffffffffffffffffffffff1673ffffffffffffffffffffffffffffffffffffffff167fd9c45ea85dfa6a51a0e5a56c11d4ad69bb4b5c309283ad89f20410320fa9b535826040516113259190611923565b60405180910390a2505b50808061133b90611d6e565b9150506110e2565b505f8054906101000a900473ffffffffffffffffffffffffffffffffffffffff1673ffffffffffffffffffffffffffffffffffffffff166108fc8290811502906040515f60405180830381858888f193505050501580156113a6573d5f803e3d5ffd5b50505b505080806113b690611d6e565b915050611028565b5050565b5f5b600581101561147a578273ffffffffffffffffffffffffffffffffffffffff16600382600581106113f8576113f7611d41565b5b600202015f015f9054906101000a900473ffffffffffffffffffffffffffffffffffffffff1673ffffffffffffffffffffffffffffffffffffffff160361146757816003826005811061144e5761144d611d41565b5b6002020160010181905550611461611564565b50611560565b808061147290611d6e565b9150506113c4565b505f5b600581101561155e57816003826005811061149b5761149a611d41565b5b6002020160010154101561154b5760405180604001604052808473ffffffffffffffffffffffffffffffffffffffff16815260200183815250600382600581106114e8576114e7611d41565b5b600202015f820151815f015f6101000a81548173ffffffffffffffffffffffffffffffffffffffff021916908373ffffffffffffffffffffffffffffffffffffffff16021790555060208201518160010155905050611545611564565b50611560565b808061155690611d6e565b91505061147d565b505b5050565b5f5b6001600561157491906120d8565b81101561178a575f6001826115899190611d0e565b90505b600581101561177657600381600581106115a9576115a8611d41565b5b6002020160010154600383600581106115c5576115c4611d41565b5b60020201600101541015611763575f600383600581106115e8576115e7611d41565b5b600202016040518060400160405290815f82015f9054906101000a900473ffffffffffffffffffffffffffffffffffffffff1673ffffffffffffffffffffffffffffffffffffffff1673ffffffffffffffffffffffffffffffffffffffff16815260200160018201548152505090506003826005811061166b5761166a611d41565b5b600202016003846005811061168357611682611d41565b5b600202015f82015f9054906101000a900473ffffffffffffffffffffffffffffffffffffffff16815f015f6101000a81548173ffffffffffffffffffffffffffffffffffffffff021916908373ffffffffffffffffffffffffffffffffffffffff16021790555060018201548160010155905050806003836005811061170c5761170b611d41565b5b600202015f820151815f015f6101000a81548173ffffffffffffffffffffffffffffffffffffffff021916908373ffffffffffffffffffffffffffffffffffffffff16021790555060208201518160010155905050505b808061176e90611d6e565b91505061158c565b50808061178290611d6e565b915050611566565b50565b6040518060a001604052806005905b6117a4611821565b81526020019060019003908161179c5790505090565b505f81556001015f81556001015f9055565b5080600601906117dc919061184f565b50565b505f9055565b60405180608001604052805f73ffffffffffffffffffffffffffffffffffffffff1681526020015f81526020015f81526020015f151581525090565b60405180604001604052805f73ffffffffffffffffffffffffffffffffffffffff1681526020015f81525090565b5b80821115611866575f815f905550600101611850565b5090565b5f80fd5b5f819050919050565b6118808161186e565b811461188a575f80fd5b50565b5f8135905061189b81611877565b92915050565b5f8115159050919050565b6118b5816118a1565b81146118bf575f80fd5b50565b5f813590506118d0816118ac565b92915050565b5f80604083850312156118ec576118eb61186a565b5b5f6118f98582860161188d565b925050602061190a858286016118c2565b9150509250929050565b61191d8161186e565b82525050565b5f6020820190506119365f830184611914565b92915050565b611945816118a1565b82525050565b5f60208201905061195e5f83018461193c565b92915050565b5f73ffffffffffffffffffffffffffffffffffffffff82169050919050565b5f61198d82611964565b9050919050565b61199d81611983565b81146119a7575f80fd5b50565b5f813590506119b881611994565b92915050565b5f602082840312156119d3576119d261186a565b5b5f6119e0848285016119aa565b91505092915050565b5f602082840312156119fe576119fd61186a565b5b5f611a0b8482850161188d565b91505092915050565b611a1d81611983565b82525050565b5f604082019050611a365f830185611a14565b611a436020830184611914565b9392505050565b5f611a5482611964565b9050919050565b611a6481611a4a565b82525050565b5f602082019050611a7d5f830184611a5b565b92915050565b5f60059050919050565b5f81905092915050565b5f819050919050565b611aa981611983565b82525050565b611ab88161186e565b82525050565b604082015f820151611ad25f850182611aa0565b506020820151611ae56020850182611aaf565b50505050565b5f611af68383611abe565b60408301905092915050565b5f602082019050919050565b611b1781611a83565b611b218184611a8d565b9250611b2c82611a97565b805f5b83811015611b5c578151611b438782611aeb565b9650611b4e83611b02565b925050600181019050611b2f565b505050505050565b5f61014082019050611b785f830184611b0e565b92915050565b5f82825260208201905092915050565b7f4f6e6c7920746865206f776e65722063616e2063616c6c20746869732066756e5f8201527f6374696f6e2e0000000000000000000000000000000000000000000000000000602082015250565b5f611be8602683611b7e565b9150611bf382611b8e565b604082019050919050565b5f6020820190508181035f830152611c1581611bdc565b9050919050565b7f47616d6520686173206e6f7420737461727465642079657400000000000000005f82015250565b5f611c50601883611b7e565b9150611c5b82611c1c565b602082019050919050565b5f6020820190508181035f830152611c7d81611c44565b9050919050565b7f4e487b71000000000000000000000000000000000000000000000000000000005f52601260045260245ffd5b5f611cbb8261186e565b9150611cc68361186e565b925082611cd657611cd5611c84565b5b828206905092915050565b7f4e487b71000000000000000000000000000000000000000000000000000000005f52601160045260245ffd5b5f611d188261186e565b9150611d238361186e565b9250828201905080821115611d3b57611d3a611ce1565b5b92915050565b7f4e487b71000000000000000000000000000000000000000000000000000000005f52603260045260245ffd5b5f611d788261186e565b91507fffffffffffffffffffffffffffffffffffffffffffffffffffffffffffffffff8203611daa57611da9611ce1565b5b600182019050919050565b5f60069050919050565b5f81905092915050565b5f819050919050565b5f611ddd8383611aaf565b60208301905092915050565b5f815f1c9050919050565b5f819050919050565b5f611e0f611e0a83611de9565b611df4565b9050919050565b5f611e218254611dfd565b9050919050565b5f600182019050919050565b611e3d81611db5565b611e478184611dbf565b9250611e5282611dc9565b805f5b83811015611e8957611e6682611e16565b611e708782611dd2565b9650611e7b83611e28565b925050600181019050611e55565b505050505050565b5f60c082019050611ea45f830184611e34565b92915050565b7f47616d6520686173206e6f7420737461727465642e00000000000000000000005f82015250565b5f611ede601583611b7e565b9150611ee982611eaa565b602082019050919050565b5f6020820190508181035f830152611f0b81611ed2565b9050919050565b7f4e756d626572206d757374206265206265747765656e203020616e64203200005f82015250565b5f611f46601e83611b7e565b9150611f5182611f12565b602082019050919050565b5f6020820190508181035f830152611f7381611f3a565b9050919050565b7f4e6f7420656e6f756768204554480000000000000000000000000000000000005f82015250565b5f611fae600e83611b7e565b9150611fb982611f7a565b602082019050919050565b5f6020820190508181035f830152611fdb81611fa2565b9050919050565b7f43616e6e6f7420626574206f6e20626f7468207472756520616e642066616c735f8201527f6520666f72207468652073616d65206e756d6265722e00000000000000000000602082015250565b5f61203c603683611b7e565b915061204782611fe2565b604082019050919050565b5f6020820190508181035f83015261206981612030565b9050919050565b7f70757368426574206661696c65642121000000000000000000000000000000005f82015250565b5f6120a4601083611b7e565b91506120af82612070565b602082019050919050565b5f6020820190508181035f8301526120d181612098565b9050919050565b5f6120e28261186e565b91506120ed8361186e565b925082820390508181111561210557612104611ce1565b5b92915050565b5f60a08201905061211e5f830188611914565b61212b6020830187611a14565b6121386040830186611914565b6121456060830185611914565b612152608083018461193c565b9695505050505050565b5f6121668261186e565b91506121718361186e565b925082820261217f8161186e565b9150828204841483151761219657612195611ce1565b5b5092915050565b5f6121a78261186e565b91506121b28361186e565b9250826121c2576121c1611c84565b5b828204905092915050565b7f47616d652068617320616c726561647920737461727465642e000000000000005f82015250565b5f612201601983611b7e565b915061220c826121cd565b602082019050919050565b5f6020820190508181035f83015261222e816121f5565b9050919050565b5f60039050919050565b5f81905092915050565b5f819050919050565b5f600182019050919050565b61226781612235565b612271818461223f565b925061227c82612249565b805f5b838110156122b35761229082611e16565b61229a8782611dd2565b96506122a583612252565b92505060018101905061227f565b505050505050565b5f6060820190506122ce5f83018461225e565b92915050565b5f819050919050565b6122ee6122e98261186e565b6122d4565b82525050565b5f8160601b9050919050565b5f61230a826122f4565b9050919050565b5f61231b82612300565b9050919050565b61233361232e82611983565b612311565b82525050565b5f61234482866122dd565b6020820191506123548285612322565b60148201915061236482846122dd565b602082019150819050949350505050565b5f60039050919050565b5f81905092915050565b5f819050919050565b61239b816118a1565b82525050565b5f60ff82169050919050565b5f6123bf6123ba83611de9565b6123a1565b9050919050565b5f8160081c9050919050565b5f6123e46123df836123c6565b6123a1565b9050919050565b5f8160101c9050919050565b5f612409612404836123eb565b6123a1565b9050919050565b5f8160181c9050919050565b5f61242e61242983612410565b6123a1565b9050919050565b5f8160201c9050919050565b5f61245361244e83612435565b6123a1565b9050919050565b5f8160281c9050919050565b5f6124786124738361245a565b6123a1565b9050919050565b5f8160301c9050919050565b5f61249d6124988361247f565b6123a1565b9050919050565b5f8160381c9050919050565b5f6124c26124bd836124a4565b6123a1565b9050919050565b5f8160401c9050919050565b5f6124e76124e2836124c9565b6123a1565b9050919050565b5f8160481c9050919050565b5f61250c612507836124ee565b6123a1565b9050919050565b5f8160501c9050919050565b5f61253161252c83612513565b6123a1565b9050919050565b5f8160581c9050919050565b5f61255661255183612538565b6123a1565b9050919050565b5f8160601c9050919050565b5f61257b6125768361255d565b6123a1565b9050919050565b5f8160681c9050919050565b5f6125a061259b83612582565b6123a1565b9050919050565b5f8160701c9050919050565b5f6125c56125c0836125a7565b6123a1565b9050919050565b5f8160781c9050919050565b5f6125ea6125e5836125cc565b6123a1565b9050919050565b5f8160801c9050919050565b5f61260f61260a836125f1565b6123a1565b9050919050565b5f8160881c9050919050565b5f61263461262f83612616565b6123a1565b9050919050565b5f8160901c9050919050565b5f6126596126548361263b565b6123a1565b9050919050565b5f8160981c9050919050565b5f61267e61267983612660565b6123a1565b9050919050565b5f8160a01c9050919050565b5f6126a361269e83612685565b6123a1565b9050919050565b5f8160a81c9050919050565b5f6126c86126c3836126aa565b6123a1565b9050919050565b5f8160b01c9050919050565b5f6126ed6126e8836126cf565b6123a1565b9050919050565b5f8160b81c9050919050565b5f61271261270d836126f4565b6123a1565b9050919050565b5f8160c01c9050919050565b5f61273761273283612719565b6123a1565b9050919050565b5f8160c81c9050919050565b5f61275c6127578361273e565b6123a1565b9050919050565b5f8160d01c9050919050565b5f61278161277c83612763565b6123a1565b9050919050565b5f8160d81c9050919050565b5f6127a66127a183612788565b6123a1565b9050919050565b5f8160e01c9050919050565b5f6127cb6127c6836127ad565b6123a1565b9050919050565b5f8160e81c9050919050565b5f6127f06127eb836127d2565b6123a1565b9050919050565b5f8160f01c9050919050565b5f612815612810836127f7565b6123a1565b9050919050565b5f8160f81c9050919050565b5f61283a6128358361281c565b6123a1565b9050919050565b61284a81612375565b612854818461237f565b92508261286083612389565b5f8015612b8b575b83600160200382011015612b8a57815461288a87612885836123ad565b612392565b6020870196506128a28761289d836123d2565b612392565b6020870196506128ba876128b5836123f7565b612392565b6020870196506128d2876128cd8361241c565b612392565b6020870196506128ea876128e583612441565b612392565b602087019650612902876128fd83612466565b612392565b60208701965061291a876129158361248b565b612392565b6020870196506129328761292d836124b0565b612392565b60208701965061294a87612945836124d5565b612392565b6020870196506129628761295d836124fa565b612392565b60208701965061297a876129758361251f565b612392565b6020870196506129928761298d83612544565b612392565b6020870196506129aa876129a583612569565b612392565b6020870196506129c2876129bd8361258e565b612392565b6020870196506129da876129d5836125b3565b612392565b6020870196506129f2876129ed836125d8565b612392565b602087019650612a0a87612a05836125fd565b612392565b602087019650612a2287612a1d83612622565b612392565b602087019650612a3a87612a3583612647565b612392565b602087019650612a5287612a4d8361266c565b612392565b602087019650612a6a87612a6583612691565b612392565b602087019650612a8287612a7d836126b6565b612392565b602087019650612a9a87612a95836126db565b612392565b602087019650612ab287612aad83612700565b612392565b602087019650612aca87612ac583612725565b612392565b602087019650612ae287612add8361274a565b612392565b602087019650612afa87612af58361276f565b612392565b602087019650612b1287612b0d83612794565b612392565b602087019650612b2a87612b25836127b9565b612392565b602087019650612b4287612b3d836127de565b612392565b602087019650612b5a87612b5583612803565b612392565b602087019650612b7287612b6d83612828565b612392565b60208701965060018301925050602081019050612868565b5b600115613039578154600115612bba57612bad87612ba8836123ad565b612392565b6020870196506001820191505b600115612be057612bd387612bce836123d2565b612392565b6020870196506001820191505b600115612c0657612bf987612bf4836123f7565b612392565b6020870196506001820191505b5f15612c2b57612c1e87612c198361241c565b612392565b6020870196506001820191505b5f15612c5057612c4387612c3e83612441565b612392565b6020870196506001820191505b5f15612c7557612c6887612c6383612466565b612392565b6020870196506001820191505b5f15612c9a57612c8d87612c888361248b565b612392565b6020870196506001820191505b5f15612cbf57612cb287612cad836124b0565b612392565b6020870196506001820191505b5f15612ce457612cd787612cd2836124d5565b612392565b6020870196506001820191505b5f15612d0957612cfc87612cf7836124fa565b612392565b6020870196506001820191505b5f15612d2e57612d2187612d1c8361251f565b612392565b6020870196506001820191505b5f15612d5357612d4687612d4183612544565b612392565b6020870196506001820191505b5f15612d7857612d6b87612d6683612569565b612392565b6020870196506001820191505b5f15612d9d57612d9087612d8b8361258e565b612392565b6020870196506001820191505b5f15612dc257612db587612db0836125b3565b612392565b6020870196506001820191505b5f15612de757612dda87612dd5836125d8565b612392565b6020870196506001820191505b5f15612e0c57612dff87612dfa836125fd565b612392565b6020870196506001820191505b5f15612e3157612e2487612e1f83612622565b612392565b6020870196506001820191505b5f15612e5657612e4987612e4483612647565b612392565b6020870196506001820191505b5f15612e7b57612e6e87612e698361266c565b612392565b6020870196506001820191505b5f15612ea057612e9387612e8e83612691565b612392565b6020870196506001820191505b5f15612ec557612eb887612eb3836126b6565b612392565b6020870196506001820191505b5f15612eea57612edd87612ed8836126db565b612392565b6020870196506001820191505b5f15612f0f57612f0287612efd83612700565b612392565b6020870196506001820191505b5f15612f3457612f2787612f2283612725565b612392565b6020870196506001820191505b5f15612f5957612f4c87612f478361274a565b612392565b6020870196506001820191505b5f15612f7e57612f7187612f6c8361276f565b612392565b6020870196506001820191505b5f15612fa357612f9687612f9183612794565b612392565b6020870196506001820191505b5f15612fc857612fbb87612fb6836127b9565b612392565b6020870196506001820191505b5f15612fed57612fe087612fdb836127de565b612392565b6020870196506001820191505b5f15613012576130058761300083612803565b612392565b6020870196506001820191505b5f156130375761302a8761302583612828565b612392565b6020870196506001820191505b505b505050505050565b5f6060820190506130545f830184612841565b9291505056fea26469706673582212200145f183c93775ab4e4c1706bc1541de890de2225250f659821bf28dcfc1160764736f6c63430008150033",
  "immutableReferences": {},
  "source": "// SPDX-License-Identifier: MIT\npragma solidity ^0.8.0;\n\n// [v] 1. owner    \n// [v] 2. 1~45     3 .\n// [v] 3.     true or false (ex.10, 15, 20) ->  (n,y,n)\n// [v] 4.     \n// [v] 5. owner    \n// [v] 6. 1 ~ 45   6 \n// [v] 7. 6   2  3     ,     true  false  \n// [v] 8.   \n// 9.      \n\ncontract Lottery {\n    address payable public owner; // owner \n    bool public gameStarted = false; //  \n    uint256 constant internal MIN_BET_AMOUNT = 1 ether; //   , 1 \n    uint public tmp_randomNumber; //     \n    \n    struct Game {\n        uint[3] luckyNumbers; //   \n        mapping(uint => bool) luckyNumExists; //      \n        uint[6] finalNumbers; //  \n        mapping(uint => bool) finalNumExists; //      \n        mapping(uint => mapping(bool => uint)) bettingAmount; //   \n        bool[3] winner; //      \n\n        mapping(uint256 => BetInfo) _bets; //   \n        uint256 _bets_tail; //  \n\n        mapping(address => mapping(uint => bool)) userBets; //       \n    }\n\n    struct BetInfo {\n        address payable bettor; //    \n        uint256 betAmount; //  \n        uint number; //   (0~2)\n        bool guess; //  true or false\n    }\n\n    struct PayoutInfo {\n        address bettor; //    \n        uint256 payout; // \n    }\n\n    mapping(address => uint256) public payouts; //   \n    PayoutInfo[5] public topPayouts; //  5   \n\n    mapping (uint256 => Game) private games; //   \n    uint256 private _games_tail = 0; //  \n\n    event GAME_STARTED(uint[3] luckyNumbers); //   \n    event GAME_ENDED(uint[6] finalNumbers); //   \n    event GAME_ANSWER(bool[3] winner); //   \n    event BET(uint256 index, address bettor, uint256 amount, uint number, bool guess); //  \n    event PAYOUT(address indexed bettor, uint256 amount); //   \n\n    constructor() {\n        owner = payable(msg.sender); //   \n    }\n\n    modifier onlyOwner() {\n        require(msg.sender == owner, \"Only the owner can call this function.\"); //    \n        _;\n    }\n\n    function startGame() public onlyOwner {\n        require(!gameStarted, \"Game has already started.\"); //     \n\n        Game storage game = games[_games_tail]; //   \n\n        for (uint i = 0; i < 3; i++) {\n            tmp_randomNumber = generateRandomNumber(i) % 45 + 1; //   \n            while(game.luckyNumExists[tmp_randomNumber]) { //    \n                tmp_randomNumber = generateRandomNumber(i + 12) % 45 + 1;\n            }\n            game.luckyNumbers[i] = tmp_randomNumber; //   \n            game.luckyNumExists[tmp_randomNumber] = true; //     \n        }\n\n        gameStarted = true; //    \n        emit GAME_STARTED(game.luckyNumbers); //    \n    }\n\n    function endGame() public onlyOwner {\n        require(gameStarted, \"Game has not started yet\"); //   \n\n        Game storage game = games[_games_tail]; //   \n\n        for (uint i = 0; i < 6; i++) {\n            tmp_randomNumber = generateRandomNumber(i) % 45 + 1; //   \n            while(game.finalNumExists[tmp_randomNumber]) { //    \n                tmp_randomNumber = generateRandomNumber(i + 12) % 45 + 1;\n            }\n            game.finalNumbers[i] = tmp_randomNumber; //   \n            game.finalNumExists[tmp_randomNumber] = true; //     \n        }\n\n        emit GAME_ENDED(game.finalNumbers); //    \n\n        determineWinners(); //     winner \n        \n        popGame(); //   \n        _games_tail++; //   \n        gameStarted = false; //    \n    }\n\n    function determineWinners() private {\n        Game storage game = games[_games_tail]; //   \n\n        for (uint i = 0; i < game.luckyNumbers.length; i++) {\n            game.winner[i] = game.finalNumExists[game.luckyNumbers[i]] ? true : false; //       \n        }\n        emit GAME_ANSWER(game.winner); //    \n\n        //   \n        calculatePayouts();\n    }\n\n    function calculatePayouts() private {\n        Game storage game = games[_games_tail]; //   \n\n        for (uint i = 0; i < 3; i++) {\n            bool lucky = game.winner[i]; //    \n\n            //     \n            uint totalBettingAmount = game.bettingAmount[i][true] + game.bettingAmount[i][false]; //      \n\n            if (totalBettingAmount > 0) {\n                //  \n                uint commission = (totalBettingAmount * 1) / 10; //   10%  \n\n                //    \n                for (uint j = 0; j < game._bets_tail; j++) {\n                    BetInfo storage currentBet = game._bets[j];\n                    if (currentBet.number == i && currentBet.guess == lucky) { //      \n                        uint payout = (currentBet.betAmount * calculateOdds(i, lucky)) / 100; //  \n                        payouts[currentBet.bettor] += payout; //   \n                        updateTopPayouts(currentBet.bettor, payouts[currentBet.bettor]); //  5 \n                        currentBet.bettor.transfer(payout); //  \n                        emit PAYOUT(currentBet.bettor, payout); //    \n                    }\n                }\n                //    \n                owner.transfer(commission);\n            }\n        }\n    }\n\n\n    function calculateOdds(uint number, bool guess) public view returns (uint) {\n        require(gameStarted, \"Game has not started.\"); //   \n\n        Game storage game = games[_games_tail]; //   \n        uint totalBettingAmount = game.bettingAmount[number][true] + game.bettingAmount[number][false]; //   \n        uint guessingAmount = game.bettingAmount[number][guess]; //     \n\n        if (guessingAmount == 0 || totalBettingAmount == 0) { //      0      0 \n            return 0;\n        }\n\n        uint winningAmount = (totalBettingAmount * 9) / 10; //   90%  \n        uint odds = (winningAmount * 100) / guessingAmount; //   \n\n        return odds;\n    }\n\n\n    function generateRandomNumber(uint seed) private view returns (uint) {\n        return uint(keccak256(abi.encodePacked(block.timestamp, msg.sender, seed))); //   \n    }\n\n    function popGame() private onlyOwner {\n        delete games[_games_tail]; //    \n    }\n\n    function bet(uint number, bool guess) public payable returns(bool result) {\n        Game storage game = games[_games_tail]; //   \n        //   \n        require(gameStarted, \"Game has not started.\");\n        //    \n        require(number >= 0 && number <= 2, \"Number must be between 0 and 2\");\n        //   \n        require(msg.value >= MIN_BET_AMOUNT, \"Not enough ETH\");\n        //    \n        require(!game.userBets[msg.sender][number], \"Cannot bet on both true and false for the same number.\");\n\n        require(pushBet(number, guess), \"pushBet failed!!\");\n        \n        game.userBets[msg.sender][number] = true; //     \n\n        emit BET(game._bets_tail - 1, msg.sender, msg.value, number, guess); //   \n\n        return true;\n    }\n\n    function pushBet(uint number, bool guess) internal returns (bool) {\n        Game storage game = games[_games_tail]; //   \n\n        game.bettingAmount[number][guess] += msg.value; //     \n        \n        BetInfo memory betting; //     \n        betting.bettor = payable(msg.sender);\n        betting.betAmount = msg.value;\n        betting.number = number;\n        betting.guess = guess;\n\n        game._bets[game._bets_tail] = betting; //   \n        game._bets_tail++; //   \n\n        return true;\n    }\n\n    function getBettingAmount(uint number, bool status) public view returns (uint) {\n        return games[_games_tail].bettingAmount[number][status]; //      \n    \n    }\n\n    //  5   \n    function updateTopPayouts(address bettor, uint256 payout) private {\n        for (uint i = 0; i < topPayouts.length; i++) {\n            if (topPayouts[i].bettor == bettor) {\n                topPayouts[i].payout = payout;\n                sortTopPayouts();\n                return;\n            }\n        }\n        for (uint i = 0; i < topPayouts.length; i++) {\n            if (topPayouts[i].payout < payout) {\n                topPayouts[i] = PayoutInfo(bettor, payout);\n                sortTopPayouts();\n                return;\n            }\n        }\n    }\n\n    //  5  \n    function sortTopPayouts() private {\n        for (uint i = 0; i < topPayouts.length - 1; i++) {\n            for (uint j = i + 1; j < topPayouts.length; j++) {\n                if (topPayouts[i].payout < topPayouts[j].payout) {\n                    PayoutInfo memory temp = topPayouts[i];\n                    topPayouts[i] = topPayouts[j];\n                    topPayouts[j] = temp;\n                }\n            }\n        }\n    }\n\n    //  5  \n    function getTopPayouts() public view returns (PayoutInfo[5] memory) {\n        return topPayouts;\n    }\n}",
  "sourcePath": "/Users/eomhyeonjun/now_code/Lottery_solidity/lottery-sol/contracts/Lottery.sol",
  "compiler": {
    "name": "solc",
    "version": "0.8.21+commit.d9974bed.Emscripten.clang"
  },
  "schemaVersion": "3.4.11",
  "updatedAt": "2024-05-28T04:39:07.577Z",
  "networkType": "ethereum",
  "devdoc": {
    "kind": "dev",
    "methods": {},
    "version": 1
  },
  "userdoc": {
    "kind": "user",
    "methods": {},
    "version": 1
  }
}