{
  "contractName": "Lottery",
  "abi": [
    {
      "inputs": [],
      "stateMutability": "nonpayable",
      "type": "constructor"
    },
    {
      "anonymous": false,
      "inputs": [
        {
          "indexed": false,
          "internalType": "uint256",
          "name": "index",
          "type": "uint256"
        },
        {
          "indexed": false,
          "internalType": "address",
          "name": "bettor",
          "type": "address"
        },
        {
          "indexed": false,
          "internalType": "uint256",
          "name": "amount",
          "type": "uint256"
        },
        {
          "indexed": false,
          "internalType": "uint256",
          "name": "number",
          "type": "uint256"
        },
        {
          "indexed": false,
          "internalType": "bool",
          "name": "guess",
          "type": "bool"
        },
        {
          "indexed": false,
          "internalType": "uint256",
          "name": "answerBlockNumber",
          "type": "uint256"
        }
      ],
      "name": "BET",
      "type": "event"
    },
    {
      "anonymous": false,
      "inputs": [
        {
          "indexed": false,
          "internalType": "uint256[3]",
          "name": "luckyNumbers",
          "type": "uint256[3]"
        }
      ],
      "name": "GAME_STARTED",
      "type": "event"
    },
    {
      "inputs": [
        {
          "internalType": "uint256",
          "name": "",
          "type": "uint256"
        }
      ],
      "name": "answer",
      "outputs": [
        {
          "internalType": "bool",
          "name": "",
          "type": "bool"
        }
      ],
      "stateMutability": "view",
      "type": "function",
      "constant": true
    },
    {
      "inputs": [
        {
          "internalType": "uint256",
          "name": "",
          "type": "uint256"
        }
      ],
      "name": "finalNumbers",
      "outputs": [
        {
          "internalType": "uint256",
          "name": "",
          "type": "uint256"
        }
      ],
      "stateMutability": "view",
      "type": "function",
      "constant": true
    },
    {
      "inputs": [],
      "name": "gameStarted",
      "outputs": [
        {
          "internalType": "bool",
          "name": "",
          "type": "bool"
        }
      ],
      "stateMutability": "view",
      "type": "function",
      "constant": true
    },
    {
      "inputs": [
        {
          "internalType": "uint256",
          "name": "",
          "type": "uint256"
        }
      ],
      "name": "luckyNumbers",
      "outputs": [
        {
          "internalType": "uint256",
          "name": "",
          "type": "uint256"
        }
      ],
      "stateMutability": "view",
      "type": "function",
      "constant": true
    },
    {
      "inputs": [],
      "name": "owner",
      "outputs": [
        {
          "internalType": "address",
          "name": "",
          "type": "address"
        }
      ],
      "stateMutability": "view",
      "type": "function",
      "constant": true
    },
    {
      "inputs": [],
      "name": "randomNumber",
      "outputs": [
        {
          "internalType": "uint256",
          "name": "",
          "type": "uint256"
        }
      ],
      "stateMutability": "view",
      "type": "function",
      "constant": true
    },
    {
      "inputs": [
        {
          "internalType": "uint256",
          "name": "",
          "type": "uint256"
        }
      ],
      "name": "totalBetAmount",
      "outputs": [
        {
          "internalType": "uint256",
          "name": "",
          "type": "uint256"
        }
      ],
      "stateMutability": "view",
      "type": "function",
      "constant": true
    },
    {
      "inputs": [],
      "name": "startGame",
      "outputs": [],
      "stateMutability": "nonpayable",
      "type": "function"
    },
    {
      "inputs": [
        {
          "internalType": "uint256",
          "name": "number",
          "type": "uint256"
        },
        {
          "internalType": "bool",
          "name": "guess",
          "type": "bool"
        }
      ],
      "name": "bet",
      "outputs": [
        {
          "internalType": "bool",
          "name": "result",
          "type": "bool"
        }
      ],
      "stateMutability": "payable",
      "type": "function",
      "payable": true
    },
    {
      "inputs": [
        {
          "internalType": "uint256",
          "name": "index",
          "type": "uint256"
        }
      ],
      "name": "getBetInfo",
      "outputs": [
        {
          "internalType": "address",
          "name": "bettor",
          "type": "address"
        },
        {
          "internalType": "uint256",
          "name": "betAmount",
          "type": "uint256"
        },
        {
          "internalType": "uint256",
          "name": "number",
          "type": "uint256"
        },
        {
          "internalType": "bool",
          "name": "guess",
          "type": "bool"
        }
      ],
      "stateMutability": "view",
      "type": "function",
      "constant": true
    },
    {
      "inputs": [],
      "name": "endGame",
      "outputs": [],
      "stateMutability": "nonpayable",
      "type": "function"
    }
  ],
  "bytecode": "0x60806040525f600b5f6101000a81548160ff021916908315150217905550348015610028575f80fd5b50335f806101000a81548173ffffffffffffffffffffffffffffffffffffffff021916908373ffffffffffffffffffffffffffffffffffffffff160217905550611916806100755f395ff3fe60806040526004361061009b575f3560e01c8063886dcf2c11610063578063886dcf2c146101965780638da5cb5b146101d25780639a6d3aaa146101fc578063ccbac9f51461022c578063d65ab5f214610256578063e780faa31461026c5761009b565b806306f702951461009f5780635e123ce4146100db5780636b2ef0f6146101055780636cbc2ded1461014157806379141f8014610157575b5f80fd5b3480156100aa575f80fd5b506100c560048036038101906100c091906110d8565b6102a8565b6040516100d2919061111d565b60405180910390f35b3480156100e6575f80fd5b506100ef6102d1565b6040516100fc919061111d565b60405180910390f35b348015610110575f80fd5b5061012b600480360381019061012691906110d8565b6102e3565b6040516101389190611145565b60405180910390f35b34801561014c575f80fd5b506101556102fc565b005b348015610162575f80fd5b5061017d600480360381019061017891906110d8565b6104e5565b60405161018d949392919061119d565b60405180910390f35b3480156101a1575f80fd5b506101bc60048036038101906101b791906110d8565b6105ad565b6040516101c99190611145565b60405180910390f35b3480156101dd575f80fd5b506101e66105c6565b6040516101f391906111e0565b60405180910390f35b61021660048036038101906102119190611223565b6105e9565b604051610223919061111d565b60405180910390f35b348015610237575f80fd5b50610240610799565b60405161024d9190611145565b60405180910390f35b348015610261575f80fd5b5061026a61079f565b005b348015610277575f80fd5b50610292600480360381019061028d91906110d8565b6109b6565b60405161029f9190611145565b60405180910390f35b600a81600381106102b7575f80fd5b60209182820401919006915054906101000a900460ff1681565b600b5f9054906101000a900460ff1681565b600481600681106102f2575f80fd5b015f915090505481565b5f8054906101000a900473ffffffffffffffffffffffffffffffffffffffff1673ffffffffffffffffffffffffffffffffffffffff163373ffffffffffffffffffffffffffffffffffffffff1614610389576040517f08c379a0000000000000000000000000000000000000000000000000000000008152600401610380906112e1565b60405180910390fd5b600b5f9054906101000a900460ff166103d7576040517f08c379a00000000000000000000000000000000000000000000000000000000081526004016103ce90611349565b60405180910390fd5b5f5b60068110156104c1576001602d6103fb6003846103f69190611394565b6109cf565b61040591906113f4565b61040f9190611394565b600c819055505b60135f600c5481526020019081526020015f205f9054906101000a900460ff1615610467576001602d610448836109cf565b61045291906113f4565b61045c9190611394565b600c81905550610416565b600c546004826006811061047e5761047d611424565b5b0181905550600160135f600c5481526020019081526020015f205f6101000a81548160ff02191690831515021790555080806104b990611451565b9150506103d9565b506104ca610a04565b5f600b5f6101000a81548160ff021916908315150217905550565b5f805f805f60155f8781526020019081526020015f206040518060800160405290815f82015f9054906101000a900473ffffffffffffffffffffffffffffffffffffffff1673ffffffffffffffffffffffffffffffffffffffff1673ffffffffffffffffffffffffffffffffffffffff1681526020016001820154815260200160028201548152602001600382015f9054906101000a900460ff1615151515815250509050805f01519450806020015193508060400151925080606001519150509193509193565b600d81600381106105bc575f80fd5b015f915090505481565b5f8054906101000a900473ffffffffffffffffffffffffffffffffffffffff1681565b5f600b5f9054906101000a900460ff16610638576040517f08c379a000000000000000000000000000000000000000000000000000000000815260040161062f90611349565b60405180910390fd5b5f8310158015610649575060028311155b610688576040517f08c379a000000000000000000000000000000000000000000000000000000000815260040161067f906114e2565b60405180910390fd5b67016345785d8a00003410156106d3576040517f08c379a00000000000000000000000000000000000000000000000000000000081526004016106ca9061154a565b60405180910390fd5b6106dd8383610d80565b61071c576040517f08c379a0000000000000000000000000000000000000000000000000000000008152600401610713906115b2565b60405180910390fd5b7f6a73fdbb56b5745bd9632d92c070b4aac1031a8035c64f75e1fca0b529d035df600160145461074c91906115d0565b3334868660105f8a81526020019081526020015f205f891515151581526020019081526020015f205460405161078796959493929190611603565b60405180910390a16001905092915050565b600c5481565b5f8054906101000a900473ffffffffffffffffffffffffffffffffffffffff1673ffffffffffffffffffffffffffffffffffffffff163373ffffffffffffffffffffffffffffffffffffffff161461082c576040517f08c379a0000000000000000000000000000000000000000000000000000000008152600401610823906112e1565b60405180910390fd5b600b5f9054906101000a900460ff161561087b576040517f08c379a0000000000000000000000000000000000000000000000000000000008152600401610872906116ac565b60405180910390fd5b610883610ece565b5f5b6003811015610961576001602d61089b836109cf565b6108a591906113f4565b6108af9190611394565b600c819055505b60125f600c5481526020019081526020015f205f9054906101000a900460ff1615610907576001602d6108e8836109cf565b6108f291906113f4565b6108fc9190611394565b600c819055506108b6565b600c546001826003811061091e5761091d611424565b5b0181905550600160125f600c5481526020019081526020015f205f6101000a81548160ff021916908315150217905550808061095990611451565b915050610885565b506001600b5f6101000a81548160ff0219169083151502179055507fbc0bf610e314089159fe3abf46413dbf7db2aa7b81d6d8e99cb8208cdaba29ac60016040516109ac91906117b5565b60405180910390a1565b600181600381106109c5575f80fd5b015f915090505481565b5f4233836040516020016109e593929190611833565b604051602081830303815290604052805190602001205f1c9050919050565b5f5b6003811015610a955760135f60018360038110610a2657610a25611424565b5b015481526020019081526020015f205f9054906101000a900460ff16610a4c575f610a4f565b60015b600a8260038110610a6357610a62611424565b5b602091828204019190066101000a81548160ff0219169083151502179055508080610a8d90611451565b915050610a06565b505f5b6003811015610d7d575f600a8260038110610ab657610ab5611424565b5b602091828204019190069054906101000a900460ff16610ad6575f610ad9565b60015b905060105f8381526020019081526020015f205f801515151581526020019081526020015f205460105f8481526020019081526020015f205f60011515151581526020019081526020015f2054610b309190611394565b600d8360038110610b4457610b43611424565b5b015f828254610b539190611394565b925050819055505f81610b8a5760105f8481526020019081526020015f205f801515151581526020019081526020015f2054610bb1565b60105f8481526020019081526020015f205f60011515151581526020019081526020015f20545b90505f811115610d68575f81600a6009600d8760038110610bd557610bd4611424565b5b0154610be1919061186f565b610beb91906118b0565b610bf591906118b0565b9050610bff611065565b5f5b601454811015610d645760155f8281526020019081526020015f206040518060800160405290815f82015f9054906101000a900473ffffffffffffffffffffffffffffffffffffffff1673ffffffffffffffffffffffffffffffffffffffff1673ffffffffffffffffffffffffffffffffffffffff1681526020016001820154815260200160028201548152602001600382015f9054906101000a900460ff1615151515815250509150858260400151148015610cc5575084151582606001511515145b15610d4757815f015173ffffffffffffffffffffffffffffffffffffffff166108fc846001610cf49190611394565b8460200151610d03919061186f565b90811502906040515f60405180830381858888f19350505050158015610d2b573d5f803e3d5ffd5b505f600d8760038110610d4157610d40611424565b5b01819055505b610d5081611001565b508080610d5c90611451565b915050610c01565b5050505b50508080610d7590611451565b915050610a98565b50565b5f3460105f8581526020019081526020015f205f841515151581526020019081526020015f205f828254610db49190611394565b92505081905550610dc3611065565b33815f019073ffffffffffffffffffffffffffffffffffffffff16908173ffffffffffffffffffffffffffffffffffffffff16815250503481602001818152505083816040018181525050828160600190151590811515815250508060155f60145481526020019081526020015f205f820151815f015f6101000a81548173ffffffffffffffffffffffffffffffffffffffff021916908373ffffffffffffffffffffffffffffffffffffffff16021790555060208201518160010155604082015181600201556060820151816003015f6101000a81548160ff02191690831515021790555090505060145f815480929190610ebe90611451565b9190505550600191505092915050565b5f5b6003811015610f29575f60125f60018460038110610ef157610ef0611424565b5b015481526020019081526020015f205f6101000a81548160ff0219169083151502179055508080610f2190611451565b915050610ed0565b505f5b6006811015610f85575f60135f60048460068110610f4d57610f4c611424565b5b015481526020019081526020015f205f6101000a81548160ff0219169083151502179055508080610f7d90611451565b915050610f2c565b505f5b6003811015610ff7575f60105f8381526020019081526020015f205f60011515151581526020019081526020015f20819055505f60105f8381526020019081526020015f205f801515151581526020019081526020015f20819055508080610fef90611451565b915050610f88565b505f601481905550565b5f60155f8381526020019081526020015f205f8082015f6101000a81549073ffffffffffffffffffffffffffffffffffffffff0219169055600182015f9055600282015f9055600382015f6101000a81549060ff0219169055505060019050919050565b60405180608001604052805f73ffffffffffffffffffffffffffffffffffffffff1681526020015f81526020015f81526020015f151581525090565b5f80fd5b5f819050919050565b6110b7816110a5565b81146110c1575f80fd5b50565b5f813590506110d2816110ae565b92915050565b5f602082840312156110ed576110ec6110a1565b5b5f6110fa848285016110c4565b91505092915050565b5f8115159050919050565b61111781611103565b82525050565b5f6020820190506111305f83018461110e565b92915050565b61113f816110a5565b82525050565b5f6020820190506111585f830184611136565b92915050565b5f73ffffffffffffffffffffffffffffffffffffffff82169050919050565b5f6111878261115e565b9050919050565b6111978161117d565b82525050565b5f6080820190506111b05f83018761118e565b6111bd6020830186611136565b6111ca6040830185611136565b6111d7606083018461110e565b95945050505050565b5f6020820190506111f35f83018461118e565b92915050565b61120281611103565b811461120c575f80fd5b50565b5f8135905061121d816111f9565b92915050565b5f8060408385031215611239576112386110a1565b5b5f611246858286016110c4565b92505060206112578582860161120f565b9150509250929050565b5f82825260208201905092915050565b7f4f6e6c7920746865206f776e65722063616e2063616c6c20746869732066756e5f8201527f6374696f6e2e0000000000000000000000000000000000000000000000000000602082015250565b5f6112cb602683611261565b91506112d682611271565b604082019050919050565b5f6020820190508181035f8301526112f8816112bf565b9050919050565b7f47616d6520686173206e6f7420737461727465642e00000000000000000000005f82015250565b5f611333601583611261565b915061133e826112ff565b602082019050919050565b5f6020820190508181035f83015261136081611327565b9050919050565b7f4e487b71000000000000000000000000000000000000000000000000000000005f52601160045260245ffd5b5f61139e826110a5565b91506113a9836110a5565b92508282019050808211156113c1576113c0611367565b5b92915050565b7f4e487b71000000000000000000000000000000000000000000000000000000005f52601260045260245ffd5b5f6113fe826110a5565b9150611409836110a5565b925082611419576114186113c7565b5b828206905092915050565b7f4e487b71000000000000000000000000000000000000000000000000000000005f52603260045260245ffd5b5f61145b826110a5565b91507fffffffffffffffffffffffffffffffffffffffffffffffffffffffffffffffff820361148d5761148c611367565b5b600182019050919050565b7f4e756d626572206d757374206265206265747765656e203020616e64203200005f82015250565b5f6114cc601e83611261565b91506114d782611498565b602082019050919050565b5f6020820190508181035f8301526114f9816114c0565b9050919050565b7f4e6f7420656e6f756768204554480000000000000000000000000000000000005f82015250565b5f611534600e83611261565b915061153f82611500565b602082019050919050565b5f6020820190508181035f83015261156181611528565b9050919050565b7f70757368426574206661696c65642121000000000000000000000000000000005f82015250565b5f61159c601083611261565b91506115a782611568565b602082019050919050565b5f6020820190508181035f8301526115c981611590565b9050919050565b5f6115da826110a5565b91506115e5836110a5565b92508282039050818111156115fd576115fc611367565b5b92915050565b5f60c0820190506116165f830189611136565b611623602083018861118e565b6116306040830187611136565b61163d6060830186611136565b61164a608083018561110e565b61165760a0830184611136565b979650505050505050565b7f47616d652068617320616c726561647920737461727465642e000000000000005f82015250565b5f611696601983611261565b91506116a182611662565b602082019050919050565b5f6020820190508181035f8301526116c38161168a565b9050919050565b5f60039050919050565b5f81905092915050565b5f819050919050565b6116f0816110a5565b82525050565b5f61170183836116e7565b60208301905092915050565b5f815f1c9050919050565b5f819050919050565b5f61173361172e8361170d565b611718565b9050919050565b5f6117458254611721565b9050919050565b5f600182019050919050565b611761816116ca565b61176b81846116d4565b9250611776826116de565b805f5b838110156117ad5761178a8261173a565b61179487826116f6565b965061179f8361174c565b925050600181019050611779565b505050505050565b5f6060820190506117c85f830184611758565b92915050565b5f819050919050565b6117e86117e3826110a5565b6117ce565b82525050565b5f8160601b9050919050565b5f611804826117ee565b9050919050565b5f611815826117fa565b9050919050565b61182d6118288261117d565b61180b565b82525050565b5f61183e82866117d7565b60208201915061184e828561181c565b60148201915061185e82846117d7565b602082019150819050949350505050565b5f611879826110a5565b9150611884836110a5565b9250828202611892816110a5565b915082820484148315176118a9576118a8611367565b5b5092915050565b5f6118ba826110a5565b91506118c5836110a5565b9250826118d5576118d46113c7565b5b82820490509291505056fea2646970667358221220a091ec0a1eab31f8035146c9badeced264730767966282e995173d534296d45864736f6c63430008150033",
  "immutableReferences": {},
  "source": "// SPDX-License-Identifier: MIT\npragma solidity ^0.8.0;\n\ncontract Lottery {\n    address public owner;\n    uint[3] public luckyNumbers; //  \n    uint[6] public finalNumbers; // 6 \n    bool[3] public answer; //     \n    bool public gameStarted = false; //  \n    uint public randomNumber;\n    uint[3] public totalBetAmount;\n    \n    uint256 constant internal MIN_BET_AMOUNT = 1 * 10 ** 17; //   , 1 \n\n    mapping(uint => mapping(bool => uint)) private bettingAmount; //   (true/false)      .\n    mapping(address => mapping(uint => bool)) private bettors; //  ,   ,     .\n    mapping(uint => bool) private luckyNumExists;  //     \n    mapping(uint => bool) private finalNumExists; // 6   \n    \n    struct BetInfo {\n        address payable bettor; //   \n        uint256 betAmount;  //  \n        uint number; //  \n        bool guess; // \n    }\n    \n    uint256 private _tail;\n    // mapping (uint => mapping(bool => BetInfo[])) private _bets; //  \n    mapping (uint256 => BetInfo) private _bets;\n\n    // event ->    -> luckyNumbers \n    event GAME_STARTED(uint[3] luckyNumbers);\n\n    // event -> bet   -> bettor, number, guess, amount,   bettingAmount \n    event BET(uint256 index, address bettor, uint256 amount, uint number, bool guess, uint256 answerBlockNumber);\n\n    // event ->   -> answer,   ,  \n    //     mapping , mapping  (top5)  \n\n    modifier onlyOwner() {\n        require(msg.sender == owner, \"Only the owner can call this function.\");\n        _;\n    }\n\n    constructor() {\n        owner = msg.sender;\n    }\n\n    // \n    function init() private {\n            for (uint i = 0; i < luckyNumbers.length; i++) {\n                luckyNumExists[luckyNumbers[i]] = false;\n            }\n\n            for (uint i = 0; i < finalNumbers.length; i++) {\n                finalNumExists[finalNumbers[i]] = false;\n            }\n\n            for (uint i = 0; i < luckyNumbers.length; i++) {\n                bettingAmount[i][true] = 0;\n                bettingAmount[i][false] = 0;\n            }\n            _tail = 0;\n    }\n\n    //   ,    3 \n    function startGame() public onlyOwner { \n        require(!gameStarted, \"Game has already started.\");\n        init();\n\n        for (uint i = 0; i < 3; i++) {\n            randomNumber = (generateRandomNumber(i) % 45 + 1);\n\n            while(luckyNumExists[randomNumber]) {\n                randomNumber = (generateRandomNumber(i) % 45 + 1);\n            }\n            luckyNumbers[i] = randomNumber;\n            luckyNumExists[randomNumber] = true;\n            \n        }\n        gameStarted = true;\n        emit GAME_STARTED(luckyNumbers);\n    }\n    \n    //   ->   bettors   \n    //       \n    function bet(uint number, bool guess) public payable returns(bool result) {\n        //   \n        require(gameStarted, \"Game has not started.\");\n        //    \n        require(number >= 0 && number <= 2, \"Number must be between 0 and 2\");\n        //   \n        require(msg.value >= MIN_BET_AMOUNT, \"Not enough ETH\");\n\n        require(pushBet(number, guess), \"pushBet failed!!\");\n\n        emit BET(_tail - 1, msg.sender, msg.value, number, guess, bettingAmount[number][guess]);\n\n        return true;\n    }\n\n    function pushBet(uint number, bool guess) internal returns (bool) {\n        bettingAmount[number][guess] += msg.value; //    \n\n        BetInfo memory betting; //    \n        betting.bettor = payable(msg.sender);\n        betting.betAmount = msg.value;\n        betting.number = number;\n        betting.guess = guess;\n\n        _bets[_tail] = betting;\n        _tail++;\n\n        return true;\n    }\n\n    function getBetInfo(uint256 index) public view returns (address bettor, uint256 betAmount, uint number, bool guess) {\n        BetInfo memory betting = _bets[index];\n        bettor = betting.bettor;\n        betAmount = betting.betAmount;\n        number = betting.number;\n        guess = betting.guess;\n    }\n\n    //   \n    function endGame() public onlyOwner {\n        require(gameStarted, \"Game has not started.\");\n        for (uint i = 0; i < 6; i++) {\n            randomNumber = (generateRandomNumber(i + 3) % 45 + 1);\n\n            while(finalNumExists[randomNumber]) {\n                randomNumber = (generateRandomNumber(i) % 45 + 1);\n            }\n            finalNumbers[i] = randomNumber;\n            finalNumExists[randomNumber] = true;\n            \n        }\n        rewardBettors();\n        gameStarted = false;\n    }\n\n\n    function rewardBettors() private {\n        //   \n        // luckyNumExists       answer \n        for (uint i = 0; i < luckyNumbers.length; i++) {\n            answer[i] = finalNumExists[luckyNumbers[i]] ? true : false;\n            \n        }\n\n        //    ->   ->  \n        for (uint i = 0; i < luckyNumbers.length; i++) {\n            bool existsInFinal = answer[i] ? true : false; //  \n            \n\n            totalBetAmount[i] += bettingAmount[i][true] + bettingAmount[i][false]; //  \n            \n\n            uint winnerPool = existsInFinal ? bettingAmount[i][true] : bettingAmount[i][false];\n            \n            if (winnerPool > 0) {\n                uint256 rewardPerEther = (totalBetAmount[i] * 9 / 10) / winnerPool; //  1   \n                \n                // BetInfo[] memory winners = _bets[i][existsInFinal];\n                BetInfo memory winners;\n\n                for (uint k = 0; k < _tail; k++) {\n                    //    .\n                    winners = _bets[k];\n                    \n                    if((winners.number == i) && (winners.guess == existsInFinal) ) {\n                        \n                        payable(winners.bettor).transfer(winners.betAmount * (1 + rewardPerEther));\n                        \n                        totalBetAmount[i] = 0;\n                    }\n                    popBet(k);\n                }\n            }\n        }\n    }\n\n    function popBet(uint256 index) internal returns (bool) {\n        delete _bets[index]; // \n        return true;\n    }\n\n    //    \n    function generateRandomNumber(uint seed) private view returns (uint) {\n        return uint(keccak256(abi.encodePacked(block.timestamp, msg.sender, seed)));\n    }\n}",
  "sourcePath": "/Users/eomhyeonjun/now_code/Lottery_solidity/lottery-sol/contracts/Lottery.sol",
  "compiler": {
    "name": "solc",
    "version": "0.8.21+commit.d9974bed.Emscripten.clang"
  },
  "schemaVersion": "3.4.16",
  "updatedAt": "2024-05-13T00:48:38.583Z",
  "networkType": "ethereum",
  "devdoc": {
    "kind": "dev",
    "methods": {},
    "version": 1
  },
  "userdoc": {
    "kind": "user",
    "methods": {},
    "version": 1
  }
}