{
  "contractName": "Lottery",
  "abi": [
    {
      "inputs": [],
      "stateMutability": "nonpayable",
      "type": "constructor"
    },
    {
      "anonymous": false,
      "inputs": [
        {
          "indexed": false,
          "internalType": "uint256",
          "name": "index",
          "type": "uint256"
        },
        {
          "indexed": false,
          "internalType": "address",
          "name": "bettor",
          "type": "address"
        },
        {
          "indexed": false,
          "internalType": "uint256",
          "name": "amount",
          "type": "uint256"
        },
        {
          "indexed": false,
          "internalType": "uint256",
          "name": "number",
          "type": "uint256"
        },
        {
          "indexed": false,
          "internalType": "bool",
          "name": "guess",
          "type": "bool"
        },
        {
          "indexed": false,
          "internalType": "uint256",
          "name": "totalBetAmount",
          "type": "uint256"
        }
      ],
      "name": "BET",
      "type": "event"
    },
    {
      "anonymous": false,
      "inputs": [
        {
          "indexed": false,
          "internalType": "uint256[6]",
          "name": "finalNumbers",
          "type": "uint256[6]"
        }
      ],
      "name": "GAME_ENDED",
      "type": "event"
    },
    {
      "anonymous": false,
      "inputs": [
        {
          "indexed": false,
          "internalType": "uint256[3]",
          "name": "luckyNumbers",
          "type": "uint256[3]"
        }
      ],
      "name": "GAME_STARTED",
      "type": "event"
    },
    {
      "inputs": [],
      "name": "gameStarted",
      "outputs": [
        {
          "internalType": "bool",
          "name": "",
          "type": "bool"
        }
      ],
      "stateMutability": "view",
      "type": "function",
      "constant": true
    },
    {
      "inputs": [],
      "name": "owner",
      "outputs": [
        {
          "internalType": "address",
          "name": "",
          "type": "address"
        }
      ],
      "stateMutability": "view",
      "type": "function",
      "constant": true
    },
    {
      "inputs": [],
      "name": "tmp_randomNumber",
      "outputs": [
        {
          "internalType": "uint256",
          "name": "",
          "type": "uint256"
        }
      ],
      "stateMutability": "view",
      "type": "function",
      "constant": true
    },
    {
      "inputs": [],
      "name": "startGame",
      "outputs": [],
      "stateMutability": "nonpayable",
      "type": "function"
    },
    {
      "inputs": [],
      "name": "endGame",
      "outputs": [],
      "stateMutability": "nonpayable",
      "type": "function"
    },
    {
      "inputs": [
        {
          "internalType": "uint256",
          "name": "number",
          "type": "uint256"
        },
        {
          "internalType": "bool",
          "name": "guess",
          "type": "bool"
        }
      ],
      "name": "bet",
      "outputs": [
        {
          "internalType": "bool",
          "name": "result",
          "type": "bool"
        }
      ],
      "stateMutability": "payable",
      "type": "function",
      "payable": true
    }
  ],
  "bytecode": "0x60806040525f8060146101000a81548160ff0219169083151502179055505f60035534801561002c575f80fd5b50335f806101000a81548173ffffffffffffffffffffffffffffffffffffffff021916908373ffffffffffffffffffffffffffffffffffffffff16021790555061133f806100795f395ff3fe608060405260043610610054575f3560e01c80635e123ce4146100585780636cbc2ded146100825780638da5cb5b146100985780639a6d3aaa146100c2578063d65ab5f2146100f2578063fa4dec6714610108575b5f80fd5b348015610063575f80fd5b5061006c610132565b6040516100799190610abc565b60405180910390f35b34801561008d575f80fd5b50610096610144565b005b3480156100a3575f80fd5b506100ac61039c565b6040516100b99190610b14565b60405180910390f35b6100dc60048036038101906100d79190610b8e565b6103bf565b6040516100e99190610abc565b60405180910390f35b3480156100fd575f80fd5b50610106610588565b005b348015610113575f80fd5b5061011c6107c0565b6040516101299190610bdb565b60405180910390f35b5f60149054906101000a900460ff1681565b5f8054906101000a900473ffffffffffffffffffffffffffffffffffffffff1673ffffffffffffffffffffffffffffffffffffffff163373ffffffffffffffffffffffffffffffffffffffff16146101d1576040517f08c379a00000000000000000000000000000000000000000000000000000000081526004016101c890610c74565b60405180910390fd5b5f60149054906101000a900460ff1661021f576040517f08c379a000000000000000000000000000000000000000000000000000000000815260040161021690610cdc565b60405180910390fd5b5f60025f60035481526020019081526020015f2090505f5b6006811015610325576001602d61024d836107c6565b6102579190610d27565b6102619190610d84565b6001819055505b81600a015f60015481526020019081526020015f205f9054906101000a900460ff16156102c7576001602d6102a8600c846102a39190610d84565b6107c6565b6102b29190610d27565b6102bc9190610d84565b600181905550610268565b6001548260040182600681106102e0576102df610db7565b5b0181905550600182600a015f60015481526020019081526020015f205f6101000a81548160ff021916908315150217905550808061031d90610de4565b915050610237565b507fee7f0ec43aef1c20507102234eb8ea250816ef07f53e7a5f215d1abd9f8ce739816004016040516103589190610f16565b60405180910390a16103686107fb565b5060035f81548092919061037b90610de4565b91905055505f8060146101000a81548160ff02191690831515021790555050565b5f8054906101000a900473ffffffffffffffffffffffffffffffffffffffff1681565b5f8060149054906101000a900460ff1661040e576040517f08c379a000000000000000000000000000000000000000000000000000000000815260040161040590610f79565b60405180910390fd5b5f831015801561041f575060028311155b61045e576040517f08c379a000000000000000000000000000000000000000000000000000000000815260040161045590610fe1565b60405180910390fd5b670de0b6b3a76400003410156104a9576040517f08c379a00000000000000000000000000000000000000000000000000000000081526004016104a090611049565b60405180910390fd5b6104b383836108c4565b6104f2576040517f08c379a00000000000000000000000000000000000000000000000000000000081526004016104e9906110b1565b60405180910390fd5b5f60025f60035481526020019081526020015f20600b015f8581526020019081526020015f205f841515151581526020019081526020015f205490507f6a73fdbb56b5745bd9632d92c070b4aac1031a8035c64f75e1fca0b529d035df600160055461055e91906110cf565b333487878660405161057596959493929190611102565b60405180910390a1600191505092915050565b5f8054906101000a900473ffffffffffffffffffffffffffffffffffffffff1673ffffffffffffffffffffffffffffffffffffffff163373ffffffffffffffffffffffffffffffffffffffff1614610615576040517f08c379a000000000000000000000000000000000000000000000000000000000815260040161060c90610c74565b60405180910390fd5b5f60149054906101000a900460ff1615610664576040517f08c379a000000000000000000000000000000000000000000000000000000000815260040161065b906111ab565b60405180910390fd5b5f60025f60035481526020019081526020015f2090505f5b6003811015610769576001602d610692836107c6565b61069c9190610d27565b6106a69190610d84565b6001819055505b816003015f60015481526020019081526020015f205f9054906101000a900460ff161561070c576001602d6106ed600c846106e89190610d84565b6107c6565b6106f79190610d27565b6107019190610d84565b6001819055506106ad565b600154825f01826003811061072457610723610db7565b5b01819055506001826003015f60015481526020019081526020015f205f6101000a81548160ff021916908315150217905550808061076190610de4565b91505061067c565b5060015f60146101000a81548160ff0219169083151502179055507fbc0bf610e314089159fe3abf46413dbf7db2aa7b81d6d8e99cb8208cdaba29ac815f016040516107b5919061124f565b60405180910390a150565b60015481565b5f4233836040516020016107dc939291906112cd565b604051602081830303815290604052805190602001205f1c9050919050565b5f805f9054906101000a900473ffffffffffffffffffffffffffffffffffffffff1673ffffffffffffffffffffffffffffffffffffffff163373ffffffffffffffffffffffffffffffffffffffff161461088a576040517f08c379a000000000000000000000000000000000000000000000000000000000815260040161088190610c74565b60405180910390fd5b60025f60035481526020019081526020015f205f8082015f6108ac9190610a26565b600482015f6108bb9190610a38565b50506001905090565b5f3460025f60035481526020019081526020015f20600b015f8581526020019081526020015f205f841515151581526020019081526020015f205f82825461090c9190610d84565b9250508190555061091b610a4b565b33815f019073ffffffffffffffffffffffffffffffffffffffff16908173ffffffffffffffffffffffffffffffffffffffff16815250503481602001818152505083816040018181525050828160600190151590811515815250508060045f60055481526020019081526020015f205f820151815f015f6101000a81548173ffffffffffffffffffffffffffffffffffffffff021916908373ffffffffffffffffffffffffffffffffffffffff16021790555060208201518160010155604082015181600201556060820151816003015f6101000a81548160ff02191690831515021790555090505060055f815480929190610a1690610de4565b9190505550600191505092915050565b505f81556001015f81556001015f9055565b508060060190610a489190610a87565b50565b60405180608001604052805f73ffffffffffffffffffffffffffffffffffffffff1681526020015f81526020015f81526020015f151581525090565b5b80821115610a9e575f815f905550600101610a88565b5090565b5f8115159050919050565b610ab681610aa2565b82525050565b5f602082019050610acf5f830184610aad565b92915050565b5f73ffffffffffffffffffffffffffffffffffffffff82169050919050565b5f610afe82610ad5565b9050919050565b610b0e81610af4565b82525050565b5f602082019050610b275f830184610b05565b92915050565b5f80fd5b5f819050919050565b610b4381610b31565b8114610b4d575f80fd5b50565b5f81359050610b5e81610b3a565b92915050565b610b6d81610aa2565b8114610b77575f80fd5b50565b5f81359050610b8881610b64565b92915050565b5f8060408385031215610ba457610ba3610b2d565b5b5f610bb185828601610b50565b9250506020610bc285828601610b7a565b9150509250929050565b610bd581610b31565b82525050565b5f602082019050610bee5f830184610bcc565b92915050565b5f82825260208201905092915050565b7f4f6e6c7920746865206f776e65722063616e2063616c6c20746869732066756e5f8201527f6374696f6e2e0000000000000000000000000000000000000000000000000000602082015250565b5f610c5e602683610bf4565b9150610c6982610c04565b604082019050919050565b5f6020820190508181035f830152610c8b81610c52565b9050919050565b7f47616d6520686173206e6f7420737461727465642079657400000000000000005f82015250565b5f610cc6601883610bf4565b9150610cd182610c92565b602082019050919050565b5f6020820190508181035f830152610cf381610cba565b9050919050565b7f4e487b71000000000000000000000000000000000000000000000000000000005f52601260045260245ffd5b5f610d3182610b31565b9150610d3c83610b31565b925082610d4c57610d4b610cfa565b5b828206905092915050565b7f4e487b71000000000000000000000000000000000000000000000000000000005f52601160045260245ffd5b5f610d8e82610b31565b9150610d9983610b31565b9250828201905080821115610db157610db0610d57565b5b92915050565b7f4e487b71000000000000000000000000000000000000000000000000000000005f52603260045260245ffd5b5f610dee82610b31565b91507fffffffffffffffffffffffffffffffffffffffffffffffffffffffffffffffff8203610e2057610e1f610d57565b5b600182019050919050565b5f60069050919050565b5f81905092915050565b5f819050919050565b610e5181610b31565b82525050565b5f610e628383610e48565b60208301905092915050565b5f815f1c9050919050565b5f819050919050565b5f610e94610e8f83610e6e565b610e79565b9050919050565b5f610ea68254610e82565b9050919050565b5f600182019050919050565b610ec281610e2b565b610ecc8184610e35565b9250610ed782610e3f565b805f5b83811015610f0e57610eeb82610e9b565b610ef58782610e57565b9650610f0083610ead565b925050600181019050610eda565b505050505050565b5f60c082019050610f295f830184610eb9565b92915050565b7f47616d6520686173206e6f7420737461727465642e00000000000000000000005f82015250565b5f610f63601583610bf4565b9150610f6e82610f2f565b602082019050919050565b5f6020820190508181035f830152610f9081610f57565b9050919050565b7f4e756d626572206d757374206265206265747765656e203020616e64203200005f82015250565b5f610fcb601e83610bf4565b9150610fd682610f97565b602082019050919050565b5f6020820190508181035f830152610ff881610fbf565b9050919050565b7f4e6f7420656e6f756768204554480000000000000000000000000000000000005f82015250565b5f611033600e83610bf4565b915061103e82610fff565b602082019050919050565b5f6020820190508181035f83015261106081611027565b9050919050565b7f70757368426574206661696c65642121000000000000000000000000000000005f82015250565b5f61109b601083610bf4565b91506110a682611067565b602082019050919050565b5f6020820190508181035f8301526110c88161108f565b9050919050565b5f6110d982610b31565b91506110e483610b31565b92508282039050818111156110fc576110fb610d57565b5b92915050565b5f60c0820190506111155f830189610bcc565b6111226020830188610b05565b61112f6040830187610bcc565b61113c6060830186610bcc565b6111496080830185610aad565b61115660a0830184610bcc565b979650505050505050565b7f47616d652068617320616c726561647920737461727465642e000000000000005f82015250565b5f611195601983610bf4565b91506111a082611161565b602082019050919050565b5f6020820190508181035f8301526111c281611189565b9050919050565b5f60039050919050565b5f81905092915050565b5f819050919050565b5f600182019050919050565b6111fb816111c9565b61120581846111d3565b9250611210826111dd565b805f5b838110156112475761122482610e9b565b61122e8782610e57565b9650611239836111e6565b925050600181019050611213565b505050505050565b5f6060820190506112625f8301846111f2565b92915050565b5f819050919050565b61128261127d82610b31565b611268565b82525050565b5f8160601b9050919050565b5f61129e82611288565b9050919050565b5f6112af82611294565b9050919050565b6112c76112c282610af4565b6112a5565b82525050565b5f6112d88286611271565b6020820191506112e882856112b6565b6014820191506112f88284611271565b60208201915081905094935050505056fea26469706673582212203651ad0555e84ff9053d76f45e79985be1d318356bc23e5f6e3db06c8431e1df64736f6c63430008150033",
  "immutableReferences": {},
  "source": "// SPDX-License-Identifier: MIT\npragma solidity ^0.8.0;\n\n// [v] 1. owner    \n// [v] 2. 1~45     3 .\n// 3.     true or false (ex.10, 15, 20) ->  (n,y,n)\n// 4.     \n// [v] 5. owner    \n// [v] 6. 1 ~ 45   6 \n// 7. 6   2  3     ,     true  false  \n// 8.   \n// 9.      \n\ncontract Lottery {\n    address public owner; // owner \n    bool public gameStarted = false; //  \n    uint256 constant internal MIN_BET_AMOUNT = 1 * 10 ** 18; //   , 1 \n    uint public tmp_randomNumber; //     \n    \n    struct Game {\n        uint[3] luckyNumbers;\n        mapping(uint => bool) luckyNumExists;\n        uint[6] finalNumbers;\n        mapping(uint => bool) finalNumExists;\n        mapping(uint => mapping(bool => uint)) bettingAmount;\n    }\n\n    struct BetInfo {\n        address payable bettor; //    \n        uint256 betAmount;  //  \n        uint number; //   (1~45)\n        bool guess; //  true or false\n    }\n\n    mapping (uint256 => Game) private games;\n    uint256 private _games_tail = 0;\n\n    mapping (uint256 => BetInfo) private _bets;\n    uint256 private _bets_tail;\n\n    event GAME_STARTED(uint[3] luckyNumbers);\n    event GAME_ENDED(uint[6] finalNumbers);\n    event BET(uint256 index, address bettor, uint256 amount, uint number, bool guess, uint256 totalBetAmount);\n\n\n    constructor() {\n        owner = msg.sender;\n    }\n\n    modifier onlyOwner() {\n    require(msg.sender == owner, \"Only the owner can call this function.\");\n    _;\n    }\n\n    function startGame() public onlyOwner {\n        require(!gameStarted, \"Game has already started.\");\n\n        Game storage game = games[_games_tail];\n\n        for (uint i = 0; i < 3; i++) {\n            tmp_randomNumber = generateRandomNumber(i) % 45 + 1;\n            while(game.luckyNumExists[tmp_randomNumber]) {\n                tmp_randomNumber = generateRandomNumber(i + 12) % 45 + 1;\n            }\n            game.luckyNumbers[i] = tmp_randomNumber;\n            game.luckyNumExists[tmp_randomNumber] = true;\n        }\n\n        gameStarted = true;\n        emit GAME_STARTED(game.luckyNumbers);\n    }\n\n    function endGame() public onlyOwner {\n        require(gameStarted, \"Game has not started yet\");\n\n        Game storage game = games[_games_tail];\n\n        for (uint i = 0; i < 6; i++) {\n            tmp_randomNumber = generateRandomNumber(i) % 45 + 1;\n            while(game.finalNumExists[tmp_randomNumber]) {\n                tmp_randomNumber = generateRandomNumber(i + 12) % 45 + 1;\n            }\n            game.finalNumbers[i] = tmp_randomNumber;\n            game.finalNumExists[tmp_randomNumber] = true;\n        }\n\n        emit GAME_ENDED(game.finalNumbers);\n        \n        popGame();\n        _games_tail++;\n        gameStarted = false;\n    }\n\n    function generateRandomNumber(uint seed) private view returns (uint) {\n        return uint(keccak256(abi.encodePacked(block.timestamp, msg.sender, seed)));\n    }\n\n    function popGame() private onlyOwner returns (bool) {\n        delete games[_games_tail];\n        return true;\n    }\n\n    function bet(uint number, bool guess) public payable returns(bool result) {\n    //   \n    require(gameStarted, \"Game has not started.\");\n    //    \n    require(number >= 0 && number <= 2, \"Number must be between 0 and 2\");\n    //   \n    require(msg.value >= MIN_BET_AMOUNT, \"Not enough ETH\");\n\n    require(pushBet(number, guess), \"pushBet failed!!\");\n\n    uint betAmount = games[_games_tail].bettingAmount[number][guess];\n    emit BET(_bets_tail - 1, msg.sender, msg.value, number, guess, betAmount);\n    //  \n    // currentOdds = calculateOdds(msg.value, betAmount);\n\n    return true;\n    }\n\n    function pushBet(uint number, bool guess) internal returns (bool) {\n        games[_games_tail].bettingAmount[number][guess] += msg.value; //     \n\n        BetInfo memory betting; //    \n        betting.bettor = payable(msg.sender);\n        betting.betAmount = msg.value;\n        betting.number = number;\n        betting.guess = guess;\n\n        _bets[_bets_tail] = betting;\n        _bets_tail++;\n\n        return true;\n    }\n}",
  "sourcePath": "/Users/eomhyeonjun/now_code/Lottery_solidity/lottery-sol/contracts/Lottery.sol",
  "compiler": {
    "name": "solc",
    "version": "0.8.21+commit.d9974bed.Emscripten.clang"
  },
  "schemaVersion": "3.4.16",
  "updatedAt": "2024-05-15T16:33:58.613Z",
  "networkType": "ethereum",
  "devdoc": {
    "kind": "dev",
    "methods": {},
    "version": 1
  },
  "userdoc": {
    "kind": "user",
    "methods": {},
    "version": 1
  }
}