{
  "contractName": "Lottery",
  "abi": [
    {
      "inputs": [],
      "stateMutability": "nonpayable",
      "type": "constructor"
    },
    {
      "anonymous": false,
      "inputs": [
        {
          "indexed": false,
          "internalType": "uint256[3]",
          "name": "luckyNumbers",
          "type": "uint256[3]"
        }
      ],
      "name": "GAME_STARTED",
      "type": "event"
    },
    {
      "inputs": [],
      "name": "gameStarted",
      "outputs": [
        {
          "internalType": "bool",
          "name": "",
          "type": "bool"
        }
      ],
      "stateMutability": "view",
      "type": "function",
      "constant": true
    },
    {
      "inputs": [
        {
          "internalType": "uint256",
          "name": "",
          "type": "uint256"
        }
      ],
      "name": "luckyNumbers",
      "outputs": [
        {
          "internalType": "uint256",
          "name": "",
          "type": "uint256"
        }
      ],
      "stateMutability": "view",
      "type": "function",
      "constant": true
    },
    {
      "inputs": [],
      "name": "owner",
      "outputs": [
        {
          "internalType": "address",
          "name": "",
          "type": "address"
        }
      ],
      "stateMutability": "view",
      "type": "function",
      "constant": true
    },
    {
      "inputs": [],
      "name": "tmp_randomNumber",
      "outputs": [
        {
          "internalType": "uint256",
          "name": "",
          "type": "uint256"
        }
      ],
      "stateMutability": "view",
      "type": "function",
      "constant": true
    },
    {
      "inputs": [],
      "name": "startGame",
      "outputs": [],
      "stateMutability": "nonpayable",
      "type": "function"
    }
  ],
  "bytecode": "0x60806040525f8060146101000a81548160ff021916908315150217905550348015610028575f80fd5b50335f806101000a81548173ffffffffffffffffffffffffffffffffffffffff021916908373ffffffffffffffffffffffffffffffffffffffff1602179055506108ac806100755f395ff3fe608060405234801561000f575f80fd5b5060043610610055575f3560e01c80635e123ce4146100595780638da5cb5b14610077578063d65ab5f214610095578063e780faa31461009f578063fa4dec67146100cf575b5f80fd5b6100616100ed565b60405161006e919061039f565b60405180910390f35b61007f6100ff565b60405161008c91906103f7565b60405180910390f35b61009d610122565b005b6100b960048036038101906100b49190610447565b610331565b6040516100c69190610481565b60405180910390f35b6100d761034a565b6040516100e49190610481565b60405180910390f35b5f60149054906101000a900460ff1681565b5f8054906101000a900473ffffffffffffffffffffffffffffffffffffffff1681565b5f8054906101000a900473ffffffffffffffffffffffffffffffffffffffff1673ffffffffffffffffffffffffffffffffffffffff163373ffffffffffffffffffffffffffffffffffffffff16146101af576040517f08c379a00000000000000000000000000000000000000000000000000000000081526004016101a69061051a565b60405180910390fd5b5f60149054906101000a900460ff16156101fe576040517f08c379a00000000000000000000000000000000000000000000000000000000081526004016101f590610582565b60405180910390fd5b5f5b60038110156102dc576001602d61021683610350565b61022091906105cd565b61022a919061062a565b6001819055505b60055f60015481526020019081526020015f205f9054906101000a900460ff1615610282576001602d61026383610350565b61026d91906105cd565b610277919061062a565b600181905550610231565b600154600282600381106102995761029861065d565b5b0181905550600160055f60015481526020019081526020015f205f6101000a81548160ff02191690831515021790555080806102d49061068a565b915050610200565b5060015f60146101000a81548160ff0219169083151502179055507fbc0bf610e314089159fe3abf46413dbf7db2aa7b81d6d8e99cb8208cdaba29ac600260405161032791906107bc565b60405180910390a1565b60028160038110610340575f80fd5b015f915090505481565b60015481565b5f4233836040516020016103669392919061083a565b604051602081830303815290604052805190602001205f1c9050919050565b5f8115159050919050565b61039981610385565b82525050565b5f6020820190506103b25f830184610390565b92915050565b5f73ffffffffffffffffffffffffffffffffffffffff82169050919050565b5f6103e1826103b8565b9050919050565b6103f1816103d7565b82525050565b5f60208201905061040a5f8301846103e8565b92915050565b5f80fd5b5f819050919050565b61042681610414565b8114610430575f80fd5b50565b5f813590506104418161041d565b92915050565b5f6020828403121561045c5761045b610410565b5b5f61046984828501610433565b91505092915050565b61047b81610414565b82525050565b5f6020820190506104945f830184610472565b92915050565b5f82825260208201905092915050565b7f4f6e6c7920746865206f776e65722063616e2063616c6c20746869732066756e5f8201527f6374696f6e2e0000000000000000000000000000000000000000000000000000602082015250565b5f61050460268361049a565b915061050f826104aa565b604082019050919050565b5f6020820190508181035f830152610531816104f8565b9050919050565b7f47616d652068617320616c726561647920737461727465642e000000000000005f82015250565b5f61056c60198361049a565b915061057782610538565b602082019050919050565b5f6020820190508181035f83015261059981610560565b9050919050565b7f4e487b71000000000000000000000000000000000000000000000000000000005f52601260045260245ffd5b5f6105d782610414565b91506105e283610414565b9250826105f2576105f16105a0565b5b828206905092915050565b7f4e487b71000000000000000000000000000000000000000000000000000000005f52601160045260245ffd5b5f61063482610414565b915061063f83610414565b9250828201905080821115610657576106566105fd565b5b92915050565b7f4e487b71000000000000000000000000000000000000000000000000000000005f52603260045260245ffd5b5f61069482610414565b91507fffffffffffffffffffffffffffffffffffffffffffffffffffffffffffffffff82036106c6576106c56105fd565b5b600182019050919050565b5f60039050919050565b5f81905092915050565b5f819050919050565b6106f781610414565b82525050565b5f61070883836106ee565b60208301905092915050565b5f815f1c9050919050565b5f819050919050565b5f61073a61073583610714565b61071f565b9050919050565b5f61074c8254610728565b9050919050565b5f600182019050919050565b610768816106d1565b61077281846106db565b925061077d826106e5565b805f5b838110156107b45761079182610741565b61079b87826106fd565b96506107a683610753565b925050600181019050610780565b505050505050565b5f6060820190506107cf5f83018461075f565b92915050565b5f819050919050565b6107ef6107ea82610414565b6107d5565b82525050565b5f8160601b9050919050565b5f61080b826107f5565b9050919050565b5f61081c82610801565b9050919050565b61083461082f826103d7565b610812565b82525050565b5f61084582866107de565b6020820191506108558285610823565b60148201915061086582846107de565b60208201915081905094935050505056fea26469706673582212202a38fc97c030b780819e83d4821a90e00d4f07d56aa53038c283703c51aa905164736f6c63430008150033",
  "immutableReferences": {},
  "source": "// SPDX-License-Identifier: MIT\npragma solidity ^0.8.0;\n\n// 1. owner    \n// 2. 1~45     3 .\n// 3.     true or false (ex.10, 15, 20) ->  (n,y,n)\n// 4.     \n// 5. owner    \n// 6. 1 ~ 45   6 \n// 7. 6   2  3     ,     true  false  \n// 8.   \n// 9.      \n\ncontract Lottery {\n    address public owner; // owner \n    \n    bool public gameStarted = false; //  \n    uint256 constant internal MIN_BET_AMOUNT = 1 * 10 ** 18; //   , 1 \n    uint public tmp_randomNumber; //     \n    \n    uint[3] public luckyNumbers; //  \n    mapping(uint => bool) private luckyNumExists;  //     \n\n    struct BetInfo {\n        address payable bettor; //    \n        uint256 betAmount;  //  \n        uint number; //   (1~45)\n        bool guess; //  true or false\n    }\n\n    event GAME_STARTED(uint[3] luckyNumbers);\n\n    constructor() {\n        owner = msg.sender;\n    }\n\n    modifier onlyOwner() {\n    require(msg.sender == owner, \"Only the owner can call this function.\");\n    _;\n    }\n\n    function startGame() public onlyOwner { \n        require(!gameStarted, \"Game has already started.\");\n\n        for (uint i = 0; i < 3; i++) {\n            tmp_randomNumber = (generateRandomNumber(i) % 45 + 1);\n\n            while(luckyNumExists[tmp_randomNumber]) {\n                tmp_randomNumber = (generateRandomNumber(i) % 45 + 1);\n            }\n            luckyNumbers[i] = tmp_randomNumber;\n            luckyNumExists[tmp_randomNumber] = true;\n        }\n        gameStarted = true;\n        emit GAME_STARTED(luckyNumbers);\n    }\n\n    function generateRandomNumber(uint seed) private view returns (uint) {\n        return uint(keccak256(abi.encodePacked(block.timestamp, msg.sender, seed)));\n    }\n}",
  "sourcePath": "/Users/eomhyeonjun/now_code/Lottery_solidity/lottery-sol/contracts/Lottery.sol",
  "compiler": {
    "name": "solc",
    "version": "0.8.21+commit.d9974bed.Emscripten.clang"
  },
  "schemaVersion": "3.4.16",
  "updatedAt": "2024-05-15T06:43:11.008Z",
  "networkType": "ethereum",
  "devdoc": {
    "kind": "dev",
    "methods": {},
    "version": 1
  },
  "userdoc": {
    "kind": "user",
    "methods": {},
    "version": 1
  }
}