{
  "contractName": "Lottery",
  "abi": [
    {
      "inputs": [],
      "stateMutability": "nonpayable",
      "type": "constructor"
    },
    {
      "anonymous": false,
      "inputs": [
        {
          "indexed": false,
          "internalType": "uint256",
          "name": "index",
          "type": "uint256"
        },
        {
          "indexed": false,
          "internalType": "address",
          "name": "bettor",
          "type": "address"
        },
        {
          "indexed": false,
          "internalType": "uint256",
          "name": "amount",
          "type": "uint256"
        },
        {
          "indexed": false,
          "internalType": "uint256",
          "name": "number",
          "type": "uint256"
        },
        {
          "indexed": false,
          "internalType": "bool",
          "name": "guess",
          "type": "bool"
        }
      ],
      "name": "BET",
      "type": "event"
    },
    {
      "anonymous": false,
      "inputs": [
        {
          "indexed": false,
          "internalType": "bool[3]",
          "name": "winner",
          "type": "bool[3]"
        }
      ],
      "name": "GAME_ANSWER",
      "type": "event"
    },
    {
      "anonymous": false,
      "inputs": [
        {
          "indexed": false,
          "internalType": "uint256[6]",
          "name": "finalNumbers",
          "type": "uint256[6]"
        }
      ],
      "name": "GAME_ENDED",
      "type": "event"
    },
    {
      "anonymous": false,
      "inputs": [
        {
          "indexed": false,
          "internalType": "uint256[3]",
          "name": "luckyNumbers",
          "type": "uint256[3]"
        }
      ],
      "name": "GAME_STARTED",
      "type": "event"
    },
    {
      "anonymous": false,
      "inputs": [
        {
          "indexed": true,
          "internalType": "address",
          "name": "bettor",
          "type": "address"
        },
        {
          "indexed": false,
          "internalType": "uint256",
          "name": "amount",
          "type": "uint256"
        }
      ],
      "name": "PAYOUT",
      "type": "event"
    },
    {
      "inputs": [],
      "name": "_games_tail",
      "outputs": [
        {
          "internalType": "uint256",
          "name": "",
          "type": "uint256"
        }
      ],
      "stateMutability": "view",
      "type": "function",
      "constant": true
    },
    {
      "inputs": [],
      "name": "gameStarted",
      "outputs": [
        {
          "internalType": "bool",
          "name": "",
          "type": "bool"
        }
      ],
      "stateMutability": "view",
      "type": "function",
      "constant": true
    },
    {
      "inputs": [],
      "name": "owner",
      "outputs": [
        {
          "internalType": "address payable",
          "name": "",
          "type": "address"
        }
      ],
      "stateMutability": "view",
      "type": "function",
      "constant": true
    },
    {
      "inputs": [
        {
          "internalType": "address",
          "name": "",
          "type": "address"
        }
      ],
      "name": "payouts",
      "outputs": [
        {
          "internalType": "uint256",
          "name": "",
          "type": "uint256"
        }
      ],
      "stateMutability": "view",
      "type": "function",
      "constant": true
    },
    {
      "inputs": [],
      "name": "tmp_randomNumber",
      "outputs": [
        {
          "internalType": "uint256",
          "name": "",
          "type": "uint256"
        }
      ],
      "stateMutability": "view",
      "type": "function",
      "constant": true
    },
    {
      "inputs": [
        {
          "internalType": "uint256",
          "name": "",
          "type": "uint256"
        }
      ],
      "name": "topPayouts",
      "outputs": [
        {
          "internalType": "address",
          "name": "bettor",
          "type": "address"
        },
        {
          "internalType": "uint256",
          "name": "payout",
          "type": "uint256"
        }
      ],
      "stateMutability": "view",
      "type": "function",
      "constant": true
    },
    {
      "inputs": [],
      "name": "startGame",
      "outputs": [],
      "stateMutability": "nonpayable",
      "type": "function"
    },
    {
      "inputs": [],
      "name": "endGame",
      "outputs": [],
      "stateMutability": "nonpayable",
      "type": "function"
    },
    {
      "inputs": [
        {
          "internalType": "uint256",
          "name": "number",
          "type": "uint256"
        },
        {
          "internalType": "bool",
          "name": "guess",
          "type": "bool"
        }
      ],
      "name": "calculateOdds",
      "outputs": [
        {
          "internalType": "uint256",
          "name": "",
          "type": "uint256"
        }
      ],
      "stateMutability": "view",
      "type": "function",
      "constant": true
    },
    {
      "inputs": [
        {
          "internalType": "uint256",
          "name": "number",
          "type": "uint256"
        },
        {
          "internalType": "bool",
          "name": "guess",
          "type": "bool"
        }
      ],
      "name": "bet",
      "outputs": [
        {
          "internalType": "bool",
          "name": "result",
          "type": "bool"
        }
      ],
      "stateMutability": "payable",
      "type": "function",
      "payable": true
    },
    {
      "inputs": [],
      "name": "getTopPayouts",
      "outputs": [
        {
          "components": [
            {
              "internalType": "address",
              "name": "bettor",
              "type": "address"
            },
            {
              "internalType": "uint256",
              "name": "payout",
              "type": "uint256"
            }
          ],
          "internalType": "struct Lottery.PayoutInfo[5]",
          "name": "",
          "type": "tuple[5]"
        }
      ],
      "stateMutability": "view",
      "type": "function",
      "constant": true
    },
    {
      "inputs": [
        {
          "internalType": "uint256",
          "name": "number",
          "type": "uint256"
        },
        {
          "internalType": "bool",
          "name": "status",
          "type": "bool"
        }
      ],
      "name": "getBettingAmount",
      "outputs": [
        {
          "internalType": "uint256",
          "name": "",
          "type": "uint256"
        }
      ],
      "stateMutability": "view",
      "type": "function",
      "constant": true
    },
    {
      "inputs": [
        {
          "internalType": "uint256",
          "name": "gameIndex",
          "type": "uint256"
        }
      ],
      "name": "getLuckyNumbers",
      "outputs": [
        {
          "internalType": "uint256[3]",
          "name": "",
          "type": "uint256[3]"
        }
      ],
      "stateMutability": "view",
      "type": "function",
      "constant": true
    },
    {
      "inputs": [
        {
          "internalType": "uint256",
          "name": "gameIndex",
          "type": "uint256"
        }
      ],
      "name": "getFinalNumbers",
      "outputs": [
        {
          "internalType": "uint256[6]",
          "name": "",
          "type": "uint256[6]"
        }
      ],
      "stateMutability": "view",
      "type": "function",
      "constant": true
    },
    {
      "inputs": [
        {
          "internalType": "uint256",
          "name": "gameIndex",
          "type": "uint256"
        }
      ],
      "name": "getWinners",
      "outputs": [
        {
          "internalType": "bool[3]",
          "name": "",
          "type": "bool[3]"
        }
      ],
      "stateMutability": "view",
      "type": "function",
      "constant": true
    }
  ],
  "bytecode": "0x60806040525f8060146101000a81548160ff0219169083151502179055505f600e5534801561002c575f80fd5b50335f806101000a81548173ffffffffffffffffffffffffffffffffffffffff021916908373ffffffffffffffffffffffffffffffffffffffff160217905550613526806100795f395ff3fe6080604052600436106100e7575f3560e01c80636cbc2ded11610089578063d5c20ccf11610058578063d5c20ccf14610318578063d65ab5f214610354578063de75b7af1461036a578063fa4dec6714610394576100e7565b80636cbc2ded1461026c5780638da5cb5b146102825780639a6d3aaa146102ac578063a69f269c146102dc576100e7565b80635e123ce4116100c55780635e123ce41461018d57806365bcfbe7146101b757806366fb123f146101f35780636b1426a414610230576100e7565b806314112a14146100eb578063146ed8d9146101275780632e03943714610163575b5f80fd5b3480156100f6575f80fd5b50610111600480360381019061010c9190611b76565b6103be565b60405161011e9190611c46565b60405180910390f35b348015610132575f80fd5b5061014d60048036038101906101489190611c94565b61041d565b60405161015a9190611ce1565b60405180910390f35b34801561016e575f80fd5b5061017761045f565b6040516101849190611ce1565b60405180910390f35b348015610198575f80fd5b506101a1610465565b6040516101ae9190611d09565b60405180910390f35b3480156101c2575f80fd5b506101dd60048036038101906101d89190611d7c565b610477565b6040516101ea9190611ce1565b60405180910390f35b3480156101fe575f80fd5b5061021960048036038101906102149190611b76565b61048c565b604051610227929190611db6565b60405180910390f35b34801561023b575f80fd5b5061025660048036038101906102519190611b76565b6104d2565b6040516102639190611e82565b60405180910390f35b348015610277575f80fd5b50610280610554565b005b34801561028d575f80fd5b506102966107b3565b6040516102a39190611ebb565b60405180910390f35b6102c660048036038101906102c19190611c94565b6107d6565b6040516102d39190611d09565b60405180910390f35b3480156102e7575f80fd5b5061030260048036038101906102fd9190611b76565b610a7a565b60405161030f9190611f53565b60405180910390f35b348015610323575f80fd5b5061033e60048036038101906103399190611c94565b610ad8565b60405161034b9190611ce1565b60405180910390f35b34801561035f575f80fd5b50610368610c26565b005b348015610375575f80fd5b5061037e610e5e565b60405161038b919061203e565b60405180910390f35b34801561039f575f80fd5b506103a8610f0d565b6040516103b59190611ce1565b60405180910390f35b6103c66119fc565b600d5f8381526020019081526020015f20600401600680602002604051908101604052809291908260068015610411576020028201915b8154815260200190600101908083116103fd575b50505050509050919050565b5f600d5f600e5481526020019081526020015f20600b015f8481526020019081526020015f205f831515151581526020019081526020015f2054905092915050565b600e5481565b5f60149054906101000a900460ff1681565b6002602052805f5260405f205f915090505481565b6003816005811061049b575f80fd5b600202015f91509050805f015f9054906101000a900473ffffffffffffffffffffffffffffffffffffffff16908060010154905082565b6104da611a1e565b600d5f8381526020019081526020015f20600c01600380602002604051908101604052809291908260038015610548576020028201915f905b82829054906101000a900460ff161515815260200190600101906020825f010492830192600103820291508084116105135790505b50505050509050919050565b5f8054906101000a900473ffffffffffffffffffffffffffffffffffffffff1673ffffffffffffffffffffffffffffffffffffffff163373ffffffffffffffffffffffffffffffffffffffff16146105e1576040517f08c379a00000000000000000000000000000000000000000000000000000000081526004016105d8906120d8565b60405180910390fd5b5f60149054906101000a900460ff1661062f576040517f08c379a000000000000000000000000000000000000000000000000000000000815260040161062690612140565b60405180910390fd5b5f600d5f600e5481526020019081526020015f2090505f5b6006811015610735576001602d61065d83610f13565b610667919061218b565b61067191906121e8565b6001819055505b81600a015f60015481526020019081526020015f205f9054906101000a900460ff16156106d7576001602d6106b8600c846106b391906121e8565b610f13565b6106c2919061218b565b6106cc91906121e8565b600181905550610678565b6001548260040182600681106106f0576106ef61221b565b5b0181905550600182600a015f60015481526020019081526020015f205f6101000a81548160ff021916908315150217905550808061072d90612248565b915050610647565b507fee7f0ec43aef1c20507102234eb8ea250816ef07f53e7a5f215d1abd9f8ce73981600401604051610768919061234a565b60405180910390a1610778610f48565b61078061103a565b600e5f81548092919061079290612248565b91905055505f8060146101000a81548160ff02191690831515021790555050565b5f8054906101000a900473ffffffffffffffffffffffffffffffffffffffff1681565b5f80600d5f600e5481526020019081526020015f2090505f60149054906101000a900460ff1661083b576040517f08c379a0000000000000000000000000000000000000000000000000000000008152600401610832906123ad565b60405180910390fd5b5f841015801561084c575060028411155b61088b576040517f08c379a000000000000000000000000000000000000000000000000000000000815260040161088290612415565b60405180910390fd5b670de0b6b3a76400003410156108d6576040517f08c379a00000000000000000000000000000000000000000000000000000000081526004016108cd9061247d565b60405180910390fd5b80600f015f3373ffffffffffffffffffffffffffffffffffffffff1673ffffffffffffffffffffffffffffffffffffffff1681526020019081526020015f205f8581526020019081526020015f205f9054906101000a900460ff1615610971576040517f08c379a00000000000000000000000000000000000000000000000000000000081526004016109689061250b565b60405180910390fd5b61097b8484611112565b6109ba576040517f08c379a00000000000000000000000000000000000000000000000000000000081526004016109b190612573565b60405180910390fd5b600181600f015f3373ffffffffffffffffffffffffffffffffffffffff1673ffffffffffffffffffffffffffffffffffffffff1681526020019081526020015f205f8681526020019081526020015f205f6101000a81548160ff0219169083151502179055507fae93299193b838cfb19af386fccb2bffbaa59ee7a6ff9e9fe729155ee2074a24600182600e0154610a529190612591565b33348787604051610a679594939291906125c4565b60405180910390a1600191505092915050565b610a82611a40565b600d5f8381526020019081526020015f205f01600380602002604051908101604052809291908260038015610acc576020028201915b815481526020019060010190808311610ab8575b50505050509050919050565b5f8060149054906101000a900460ff16610b27576040517f08c379a0000000000000000000000000000000000000000000000000000000008152600401610b1e906123ad565b60405180910390fd5b5f600d5f600e5481526020019081526020015f2090505f81600b015f8681526020019081526020015f205f801515151581526020019081526020015f205482600b015f8781526020019081526020015f205f60011515151581526020019081526020015f2054610b9791906121e8565b90505f82600b015f8781526020019081526020015f205f861515151581526020019081526020015f205490505f811480610bd057505f82145b15610be0575f9350505050610c20565b5f600a600984610bf09190612615565b610bfa9190612656565b90505f82606483610c0b9190612615565b610c159190612656565b905080955050505050505b92915050565b5f8054906101000a900473ffffffffffffffffffffffffffffffffffffffff1673ffffffffffffffffffffffffffffffffffffffff163373ffffffffffffffffffffffffffffffffffffffff1614610cb3576040517f08c379a0000000000000000000000000000000000000000000000000000000008152600401610caa906120d8565b60405180910390fd5b5f60149054906101000a900460ff1615610d02576040517f08c379a0000000000000000000000000000000000000000000000000000000008152600401610cf9906126d0565b60405180910390fd5b5f600d5f600e5481526020019081526020015f2090505f5b6003811015610e07576001602d610d3083610f13565b610d3a919061218b565b610d4491906121e8565b6001819055505b816003015f60015481526020019081526020015f205f9054906101000a900460ff1615610daa576001602d610d8b600c84610d8691906121e8565b610f13565b610d95919061218b565b610d9f91906121e8565b600181905550610d4b565b600154825f018260038110610dc257610dc161221b565b5b01819055506001826003015f60015481526020019081526020015f205f6101000a81548160ff0219169083151502179055508080610dff90612248565b915050610d1a565b5060015f60146101000a81548160ff0219169083151502179055507fbc0bf610e314089159fe3abf46413dbf7db2aa7b81d6d8e99cb8208cdaba29ac815f01604051610e53919061276a565b60405180910390a150565b610e66611a62565b6003600580602002604051908101604052809291905f905b82821015610f04578382600202016040518060400160405290815f82015f9054906101000a900473ffffffffffffffffffffffffffffffffffffffff1673ffffffffffffffffffffffffffffffffffffffff1673ffffffffffffffffffffffffffffffffffffffff16815260200160018201548152505081526020019060010190610e7e565b50505050905090565b60015481565b5f423383604051602001610f29939291906127e8565b604051602081830303815290604052805190602001205f1c9050919050565b5f600d5f600e5481526020019081526020015f2090505f5b6003811015610ff45781600a015f835f018360038110610f8357610f8261221b565b5b015481526020019081526020015f205f9054906101000a900460ff16610fa9575f610fac565b60015b82600c018260038110610fc257610fc161221b565b5b602091828204019190066101000a81548160ff0219169083151502179055508080610fec90612248565b915050610f60565b507fb86f380fdfa7e748f1134016e8327c55ce06b46a6ec0540dd208812885444fd381600c0160405161102791906134d7565b60405180910390a161103761127f565b50565b5f8054906101000a900473ffffffffffffffffffffffffffffffffffffffff1673ffffffffffffffffffffffffffffffffffffffff163373ffffffffffffffffffffffffffffffffffffffff16146110c7576040517f08c379a00000000000000000000000000000000000000000000000000000000081526004016110be906120d8565b60405180910390fd5b600d5f600e5481526020019081526020015f205f8082015f6110e99190611a8f565b600482015f6110f89190611aa1565b600c82015f6111079190611ab4565b600e82015f90555050565b5f80600d5f600e5481526020019081526020015f2090503481600b015f8681526020019081526020015f205f851515151581526020019081526020015f205f82825461115e91906121e8565b9250508190555061116d611aba565b33815f019073ffffffffffffffffffffffffffffffffffffffff16908173ffffffffffffffffffffffffffffffffffffffff16815250503481602001818152505084816040018181525050838160600190151590811515815250508082600d015f84600e015481526020019081526020015f205f820151815f015f6101000a81548173ffffffffffffffffffffffffffffffffffffffff021916908373ffffffffffffffffffffffffffffffffffffffff16021790555060208201518160010155604082015181600201556060820151816003015f6101000a81548160ff02191690831515021790555090505081600e015f81548092919061126e90612248565b919050555060019250505092915050565b5f600d5f600e5481526020019081526020015f2090505f5b600381101561162d575f82600c0182600381106112b7576112b661221b565b5b602091828204019190069054906101000a900460ff1690505f83600b015f8481526020019081526020015f205f801515151581526020019081526020015f205484600b015f8581526020019081526020015f205f60011515151581526020019081526020015f205461132991906121e8565b90505f811115611618575f600a6001836113439190612615565b61134d9190612656565b90505f5b85600e01548110156115b2575f86600d015f8381526020019081526020015f2090508581600201541480156113995750841515816003015f9054906101000a900460ff161515145b1561159e575f60646113ab8888610ad8565b83600101546113ba9190612615565b6113c49190612656565b90508060025f845f015f9054906101000a900473ffffffffffffffffffffffffffffffffffffffff1673ffffffffffffffffffffffffffffffffffffffff1673ffffffffffffffffffffffffffffffffffffffff1681526020019081526020015f205f82825461143491906121e8565b925050819055506114c6825f015f9054906101000a900473ffffffffffffffffffffffffffffffffffffffff1660025f855f015f9054906101000a900473ffffffffffffffffffffffffffffffffffffffff1673ffffffffffffffffffffffffffffffffffffffff1673ffffffffffffffffffffffffffffffffffffffff1681526020019081526020015f2054611631565b815f015f9054906101000a900473ffffffffffffffffffffffffffffffffffffffff1673ffffffffffffffffffffffffffffffffffffffff166108fc8290811502906040515f60405180830381858888f1935050505015801561152b573d5f803e3d5ffd5b50815f015f9054906101000a900473ffffffffffffffffffffffffffffffffffffffff1673ffffffffffffffffffffffffffffffffffffffff167fd9c45ea85dfa6a51a0e5a56c11d4ad69bb4b5c309283ad89f20410320fa9b535826040516115949190611ce1565b60405180910390a2505b5080806115aa90612248565b915050611351565b505f8054906101000a900473ffffffffffffffffffffffffffffffffffffffff1673ffffffffffffffffffffffffffffffffffffffff166108fc8290811502906040515f60405180830381858888f19350505050158015611615573d5f803e3d5ffd5b50505b5050808061162590612248565b915050611297565b5050565b5f5b60058110156116e9578273ffffffffffffffffffffffffffffffffffffffff16600382600581106116675761166661221b565b5b600202015f015f9054906101000a900473ffffffffffffffffffffffffffffffffffffffff1673ffffffffffffffffffffffffffffffffffffffff16036116d65781600382600581106116bd576116bc61221b565b5b60020201600101819055506116d06117d3565b506117cf565b80806116e190612248565b915050611633565b505f5b60058110156117cd57816003826005811061170a5761170961221b565b5b600202016001015410156117ba5760405180604001604052808473ffffffffffffffffffffffffffffffffffffffff16815260200183815250600382600581106117575761175661221b565b5b600202015f820151815f015f6101000a81548173ffffffffffffffffffffffffffffffffffffffff021916908373ffffffffffffffffffffffffffffffffffffffff160217905550602082015181600101559050506117b46117d3565b506117cf565b80806117c590612248565b9150506116ec565b505b5050565b5f5b600160056117e39190612591565b8110156119f9575f6001826117f891906121e8565b90505b60058110156119e557600381600581106118185761181761221b565b5b6002020160010154600383600581106118345761183361221b565b5b600202016001015410156119d2575f600383600581106118575761185661221b565b5b600202016040518060400160405290815f82015f9054906101000a900473ffffffffffffffffffffffffffffffffffffffff1673ffffffffffffffffffffffffffffffffffffffff1673ffffffffffffffffffffffffffffffffffffffff1681526020016001820154815250509050600382600581106118da576118d961221b565b5b60020201600384600581106118f2576118f161221b565b5b600202015f82015f9054906101000a900473ffffffffffffffffffffffffffffffffffffffff16815f015f6101000a81548173ffffffffffffffffffffffffffffffffffffffff021916908373ffffffffffffffffffffffffffffffffffffffff16021790555060018201548160010155905050806003836005811061197b5761197a61221b565b5b600202015f820151815f015f6101000a81548173ffffffffffffffffffffffffffffffffffffffff021916908373ffffffffffffffffffffffffffffffffffffffff16021790555060208201518160010155905050505b80806119dd90612248565b9150506117fb565b5080806119f190612248565b9150506117d5565b50565b6040518060c00160405280600690602082028036833780820191505090505090565b6040518060600160405280600390602082028036833780820191505090505090565b6040518060600160405280600390602082028036833780820191505090505090565b6040518060a001604052806005905b611a79611af6565b815260200190600190039081611a715790505090565b505f81556001015f81556001015f9055565b508060060190611ab19190611b24565b50565b505f9055565b60405180608001604052805f73ffffffffffffffffffffffffffffffffffffffff1681526020015f81526020015f81526020015f151581525090565b60405180604001604052805f73ffffffffffffffffffffffffffffffffffffffff1681526020015f81525090565b5b80821115611b3b575f815f905550600101611b25565b5090565b5f80fd5b5f819050919050565b611b5581611b43565b8114611b5f575f80fd5b50565b5f81359050611b7081611b4c565b92915050565b5f60208284031215611b8b57611b8a611b3f565b5b5f611b9884828501611b62565b91505092915050565b5f60069050919050565b5f81905092915050565b5f819050919050565b611bc781611b43565b82525050565b5f611bd88383611bbe565b60208301905092915050565b5f602082019050919050565b611bf981611ba1565b611c038184611bab565b9250611c0e82611bb5565b805f5b83811015611c3e578151611c258782611bcd565b9650611c3083611be4565b925050600181019050611c11565b505050505050565b5f60c082019050611c595f830184611bf0565b92915050565b5f8115159050919050565b611c7381611c5f565b8114611c7d575f80fd5b50565b5f81359050611c8e81611c6a565b92915050565b5f8060408385031215611caa57611ca9611b3f565b5b5f611cb785828601611b62565b9250506020611cc885828601611c80565b9150509250929050565b611cdb81611b43565b82525050565b5f602082019050611cf45f830184611cd2565b92915050565b611d0381611c5f565b82525050565b5f602082019050611d1c5f830184611cfa565b92915050565b5f73ffffffffffffffffffffffffffffffffffffffff82169050919050565b5f611d4b82611d22565b9050919050565b611d5b81611d41565b8114611d65575f80fd5b50565b5f81359050611d7681611d52565b92915050565b5f60208284031215611d9157611d90611b3f565b5b5f611d9e84828501611d68565b91505092915050565b611db081611d41565b82525050565b5f604082019050611dc95f830185611da7565b611dd66020830184611cd2565b9392505050565b5f60039050919050565b5f81905092915050565b5f819050919050565b611e0381611c5f565b82525050565b5f611e148383611dfa565b60208301905092915050565b5f602082019050919050565b611e3581611ddd565b611e3f8184611de7565b9250611e4a82611df1565b805f5b83811015611e7a578151611e618782611e09565b9650611e6c83611e20565b925050600181019050611e4d565b505050505050565b5f606082019050611e955f830184611e2c565b92915050565b5f611ea582611d22565b9050919050565b611eb581611e9b565b82525050565b5f602082019050611ece5f830184611eac565b92915050565b5f60039050919050565b5f81905092915050565b5f819050919050565b5f602082019050919050565b611f0681611ed4565b611f108184611ede565b9250611f1b82611ee8565b805f5b83811015611f4b578151611f328782611bcd565b9650611f3d83611ef1565b925050600181019050611f1e565b505050505050565b5f606082019050611f665f830184611efd565b92915050565b5f60059050919050565b5f81905092915050565b5f819050919050565b611f9281611d41565b82525050565b604082015f820151611fac5f850182611f89565b506020820151611fbf6020850182611bbe565b50505050565b5f611fd08383611f98565b60408301905092915050565b5f602082019050919050565b611ff181611f6c565b611ffb8184611f76565b925061200682611f80565b805f5b8381101561203657815161201d8782611fc5565b965061202883611fdc565b925050600181019050612009565b505050505050565b5f610140820190506120525f830184611fe8565b92915050565b5f82825260208201905092915050565b7f4f6e6c7920746865206f776e65722063616e2063616c6c20746869732066756e5f8201527f6374696f6e2e0000000000000000000000000000000000000000000000000000602082015250565b5f6120c2602683612058565b91506120cd82612068565b604082019050919050565b5f6020820190508181035f8301526120ef816120b6565b9050919050565b7f47616d6520686173206e6f7420737461727465642079657400000000000000005f82015250565b5f61212a601883612058565b9150612135826120f6565b602082019050919050565b5f6020820190508181035f8301526121578161211e565b9050919050565b7f4e487b71000000000000000000000000000000000000000000000000000000005f52601260045260245ffd5b5f61219582611b43565b91506121a083611b43565b9250826121b0576121af61215e565b5b828206905092915050565b7f4e487b71000000000000000000000000000000000000000000000000000000005f52601160045260245ffd5b5f6121f282611b43565b91506121fd83611b43565b9250828201905080821115612215576122146121bb565b5b92915050565b7f4e487b71000000000000000000000000000000000000000000000000000000005f52603260045260245ffd5b5f61225282611b43565b91507fffffffffffffffffffffffffffffffffffffffffffffffffffffffffffffffff8203612284576122836121bb565b5b600182019050919050565b5f60069050919050565b5f819050919050565b5f815f1c9050919050565b5f819050919050565b5f6122c86122c3836122a2565b6122ad565b9050919050565b5f6122da82546122b6565b9050919050565b5f600182019050919050565b6122f68161228f565b6123008184611bab565b925061230b82612299565b805f5b838110156123425761231f826122cf565b6123298782611bcd565b9650612334836122e1565b92505060018101905061230e565b505050505050565b5f60c08201905061235d5f8301846122ed565b92915050565b7f47616d6520686173206e6f7420737461727465642e00000000000000000000005f82015250565b5f612397601583612058565b91506123a282612363565b602082019050919050565b5f6020820190508181035f8301526123c48161238b565b9050919050565b7f4e756d626572206d757374206265206265747765656e203020616e64203200005f82015250565b5f6123ff601e83612058565b915061240a826123cb565b602082019050919050565b5f6020820190508181035f83015261242c816123f3565b9050919050565b7f4e6f7420656e6f756768204554480000000000000000000000000000000000005f82015250565b5f612467600e83612058565b915061247282612433565b602082019050919050565b5f6020820190508181035f8301526124948161245b565b9050919050565b7f43616e6e6f7420626574206f6e20626f7468207472756520616e642066616c735f8201527f6520666f72207468652073616d65206e756d6265722e00000000000000000000602082015250565b5f6124f5603683612058565b91506125008261249b565b604082019050919050565b5f6020820190508181035f830152612522816124e9565b9050919050565b7f70757368426574206661696c65642121000000000000000000000000000000005f82015250565b5f61255d601083612058565b915061256882612529565b602082019050919050565b5f6020820190508181035f83015261258a81612551565b9050919050565b5f61259b82611b43565b91506125a683611b43565b92508282039050818111156125be576125bd6121bb565b5b92915050565b5f60a0820190506125d75f830188611cd2565b6125e46020830187611da7565b6125f16040830186611cd2565b6125fe6060830185611cd2565b61260b6080830184611cfa565b9695505050505050565b5f61261f82611b43565b915061262a83611b43565b925082820261263881611b43565b9150828204841483151761264f5761264e6121bb565b5b5092915050565b5f61266082611b43565b915061266b83611b43565b92508261267b5761267a61215e565b5b828204905092915050565b7f47616d652068617320616c726561647920737461727465642e000000000000005f82015250565b5f6126ba601983612058565b91506126c582612686565b602082019050919050565b5f6020820190508181035f8301526126e7816126ae565b9050919050565b5f60039050919050565b5f819050919050565b5f600182019050919050565b612716816126ee565b6127208184611ede565b925061272b826126f8565b805f5b838110156127625761273f826122cf565b6127498782611bcd565b965061275483612701565b92505060018101905061272e565b505050505050565b5f60608201905061277d5f83018461270d565b92915050565b5f819050919050565b61279d61279882611b43565b612783565b82525050565b5f8160601b9050919050565b5f6127b9826127a3565b9050919050565b5f6127ca826127af565b9050919050565b6127e26127dd82611d41565b6127c0565b82525050565b5f6127f3828661278c565b60208201915061280382856127d1565b601482019150612813828461278c565b602082019150819050949350505050565b5f60039050919050565b5f819050919050565b5f60ff82169050919050565b5f612855612850836122a2565b612837565b9050919050565b5f8160081c9050919050565b5f61287a6128758361285c565b612837565b9050919050565b5f8160101c9050919050565b5f61289f61289a83612881565b612837565b9050919050565b5f8160181c9050919050565b5f6128c46128bf836128a6565b612837565b9050919050565b5f8160201c9050919050565b5f6128e96128e4836128cb565b612837565b9050919050565b5f8160281c9050919050565b5f61290e612909836128f0565b612837565b9050919050565b5f8160301c9050919050565b5f61293361292e83612915565b612837565b9050919050565b5f8160381c9050919050565b5f6129586129538361293a565b612837565b9050919050565b5f8160401c9050919050565b5f61297d6129788361295f565b612837565b9050919050565b5f8160481c9050919050565b5f6129a261299d83612984565b612837565b9050919050565b5f8160501c9050919050565b5f6129c76129c2836129a9565b612837565b9050919050565b5f8160581c9050919050565b5f6129ec6129e7836129ce565b612837565b9050919050565b5f8160601c9050919050565b5f612a11612a0c836129f3565b612837565b9050919050565b5f8160681c9050919050565b5f612a36612a3183612a18565b612837565b9050919050565b5f8160701c9050919050565b5f612a5b612a5683612a3d565b612837565b9050919050565b5f8160781c9050919050565b5f612a80612a7b83612a62565b612837565b9050919050565b5f8160801c9050919050565b5f612aa5612aa083612a87565b612837565b9050919050565b5f8160881c9050919050565b5f612aca612ac583612aac565b612837565b9050919050565b5f8160901c9050919050565b5f612aef612aea83612ad1565b612837565b9050919050565b5f8160981c9050919050565b5f612b14612b0f83612af6565b612837565b9050919050565b5f8160a01c9050919050565b5f612b39612b3483612b1b565b612837565b9050919050565b5f8160a81c9050919050565b5f612b5e612b5983612b40565b612837565b9050919050565b5f8160b01c9050919050565b5f612b83612b7e83612b65565b612837565b9050919050565b5f8160b81c9050919050565b5f612ba8612ba383612b8a565b612837565b9050919050565b5f8160c01c9050919050565b5f612bcd612bc883612baf565b612837565b9050919050565b5f8160c81c9050919050565b5f612bf2612bed83612bd4565b612837565b9050919050565b5f8160d01c9050919050565b5f612c17612c1283612bf9565b612837565b9050919050565b5f8160d81c9050919050565b5f612c3c612c3783612c1e565b612837565b9050919050565b5f8160e01c9050919050565b5f612c61612c5c83612c43565b612837565b9050919050565b5f8160e81c9050919050565b5f612c86612c8183612c68565b612837565b9050919050565b5f8160f01c9050919050565b5f612cab612ca683612c8d565b612837565b9050919050565b5f8160f81c9050919050565b5f612cd0612ccb83612cb2565b612837565b9050919050565b612ce081612824565b612cea8184611de7565b925082612cf68361282e565b5f8015613021575b83600160200382011015613020578154612d2087612d1b83612843565b611dfa565b602087019650612d3887612d3383612868565b611dfa565b602087019650612d5087612d4b8361288d565b611dfa565b602087019650612d6887612d63836128b2565b611dfa565b602087019650612d8087612d7b836128d7565b611dfa565b602087019650612d9887612d93836128fc565b611dfa565b602087019650612db087612dab83612921565b611dfa565b602087019650612dc887612dc383612946565b611dfa565b602087019650612de087612ddb8361296b565b611dfa565b602087019650612df887612df383612990565b611dfa565b602087019650612e1087612e0b836129b5565b611dfa565b602087019650612e2887612e23836129da565b611dfa565b602087019650612e4087612e3b836129ff565b611dfa565b602087019650612e5887612e5383612a24565b611dfa565b602087019650612e7087612e6b83612a49565b611dfa565b602087019650612e8887612e8383612a6e565b611dfa565b602087019650612ea087612e9b83612a93565b611dfa565b602087019650612eb887612eb383612ab8565b611dfa565b602087019650612ed087612ecb83612add565b611dfa565b602087019650612ee887612ee383612b02565b611dfa565b602087019650612f0087612efb83612b27565b611dfa565b602087019650612f1887612f1383612b4c565b611dfa565b602087019650612f3087612f2b83612b71565b611dfa565b602087019650612f4887612f4383612b96565b611dfa565b602087019650612f6087612f5b83612bbb565b611dfa565b602087019650612f7887612f7383612be0565b611dfa565b602087019650612f9087612f8b83612c05565b611dfa565b602087019650612fa887612fa383612c2a565b611dfa565b602087019650612fc087612fbb83612c4f565b611dfa565b602087019650612fd887612fd383612c74565b611dfa565b602087019650612ff087612feb83612c99565b611dfa565b6020870196506130088761300383612cbe565b611dfa565b60208701965060018301925050602081019050612cfe565b5b6001156134cf578154600115613050576130438761303e83612843565b611dfa565b6020870196506001820191505b600115613076576130698761306483612868565b611dfa565b6020870196506001820191505b60011561309c5761308f8761308a8361288d565b611dfa565b6020870196506001820191505b5f156130c1576130b4876130af836128b2565b611dfa565b6020870196506001820191505b5f156130e6576130d9876130d4836128d7565b611dfa565b6020870196506001820191505b5f1561310b576130fe876130f9836128fc565b611dfa565b6020870196506001820191505b5f15613130576131238761311e83612921565b611dfa565b6020870196506001820191505b5f15613155576131488761314383612946565b611dfa565b6020870196506001820191505b5f1561317a5761316d876131688361296b565b611dfa565b6020870196506001820191505b5f1561319f576131928761318d83612990565b611dfa565b6020870196506001820191505b5f156131c4576131b7876131b2836129b5565b611dfa565b6020870196506001820191505b5f156131e9576131dc876131d7836129da565b611dfa565b6020870196506001820191505b5f1561320e57613201876131fc836129ff565b611dfa565b6020870196506001820191505b5f15613233576132268761322183612a24565b611dfa565b6020870196506001820191505b5f156132585761324b8761324683612a49565b611dfa565b6020870196506001820191505b5f1561327d576132708761326b83612a6e565b611dfa565b6020870196506001820191505b5f156132a2576132958761329083612a93565b611dfa565b6020870196506001820191505b5f156132c7576132ba876132b583612ab8565b611dfa565b6020870196506001820191505b5f156132ec576132df876132da83612add565b611dfa565b6020870196506001820191505b5f1561331157613304876132ff83612b02565b611dfa565b6020870196506001820191505b5f15613336576133298761332483612b27565b611dfa565b6020870196506001820191505b5f1561335b5761334e8761334983612b4c565b611dfa565b6020870196506001820191505b5f15613380576133738761336e83612b71565b611dfa565b6020870196506001820191505b5f156133a5576133988761339383612b96565b611dfa565b6020870196506001820191505b5f156133ca576133bd876133b883612bbb565b611dfa565b6020870196506001820191505b5f156133ef576133e2876133dd83612be0565b611dfa565b6020870196506001820191505b5f15613414576134078761340283612c05565b611dfa565b6020870196506001820191505b5f156134395761342c8761342783612c2a565b611dfa565b6020870196506001820191505b5f1561345e576134518761344c83612c4f565b611dfa565b6020870196506001820191505b5f15613483576134768761347183612c74565b611dfa565b6020870196506001820191505b5f156134a85761349b8761349683612c99565b611dfa565b6020870196506001820191505b5f156134cd576134c0876134bb83612cbe565b611dfa565b6020870196506001820191505b505b505050505050565b5f6060820190506134ea5f830184612cd7565b9291505056fea2646970667358221220c87c1e8f4dc30bf394a036b0da1a2cd3f19ac1e26ef97f712b8ee6185b76fa0d64736f6c63430008150033",
  "immutableReferences": {},
  "source": "// SPDX-License-Identifier: MIT\npragma solidity ^0.8.0;\n\n// [v] 1. owner    \n// [v] 2. 1~45     3 .\n// [v] 3.     true or false (ex.10, 15, 20) ->  (n,y,n)\n// [v] 4.     \n// [v] 5. owner    \n// [v] 6. 1 ~ 45   6 \n// [v] 7. 6   2  3     ,     true  false  \n// [v] 8.   \n// 9.      \n\ncontract Lottery {\n    address payable public owner; // owner \n    bool public gameStarted = false; //  \n    uint256 constant internal MIN_BET_AMOUNT = 1 ether; //   , 1 \n    uint public tmp_randomNumber; //     \n    \n    struct Game {\n        uint[3] luckyNumbers; //   \n        mapping(uint => bool) luckyNumExists; //      \n        uint[6] finalNumbers; //  \n        mapping(uint => bool) finalNumExists; //      \n        mapping(uint => mapping(bool => uint)) bettingAmount; //   \n        bool[3] winner; //      \n\n        mapping(uint256 => BetInfo) _bets; //   \n        uint256 _bets_tail; //  \n\n        mapping(address => mapping(uint => bool)) userBets; //       \n    }\n\n    struct BetInfo {\n        address payable bettor; //    \n        uint256 betAmount; //  \n        uint number; //   (0~2)\n        bool guess; //  true or false\n    }\n\n    struct PayoutInfo {\n        address bettor; //    \n        uint256 payout; // \n    }\n\n    mapping(address => uint256) public payouts; //   \n    PayoutInfo[5] public topPayouts; //  5   \n\n    mapping (uint256 => Game) private games; //   \n    uint256 public _games_tail = 0; //  \n\n    event GAME_STARTED(uint[3] luckyNumbers); //   \n    event GAME_ENDED(uint[6] finalNumbers); //   \n    event GAME_ANSWER(bool[3] winner); //   \n    event BET(uint256 index, address bettor, uint256 amount, uint number, bool guess); //  \n    event PAYOUT(address indexed bettor, uint256 amount); //   \n\n    constructor() {\n        owner = payable(msg.sender); //   \n    }\n\n    modifier onlyOwner() {\n        require(msg.sender == owner, \"Only the owner can call this function.\"); //    \n        _;\n    }\n\n    function startGame() public onlyOwner {\n        require(!gameStarted, \"Game has already started.\"); //     \n\n        Game storage game = games[_games_tail]; //   \n\n        for (uint i = 0; i < 3; i++) {\n            tmp_randomNumber = generateRandomNumber(i) % 45 + 1; //   \n            while(game.luckyNumExists[tmp_randomNumber]) { //    \n                tmp_randomNumber = generateRandomNumber(i + 12) % 45 + 1;\n            }\n            game.luckyNumbers[i] = tmp_randomNumber; //   \n            game.luckyNumExists[tmp_randomNumber] = true; //     \n        }\n\n        gameStarted = true; //    \n        emit GAME_STARTED(game.luckyNumbers); //    \n    }\n\n    function endGame() public onlyOwner {\n        require(gameStarted, \"Game has not started yet\"); //   \n\n        Game storage game = games[_games_tail]; //   \n\n        for (uint i = 0; i < 6; i++) {\n            tmp_randomNumber = generateRandomNumber(i) % 45 + 1; //   \n            while(game.finalNumExists[tmp_randomNumber]) { //    \n                tmp_randomNumber = generateRandomNumber(i + 12) % 45 + 1;\n            }\n            game.finalNumbers[i] = tmp_randomNumber; //   \n            game.finalNumExists[tmp_randomNumber] = true; //     \n        }\n\n        emit GAME_ENDED(game.finalNumbers); //    \n\n        determineWinners(); //     winner \n        \n        popGame(); //   \n        _games_tail++; //   \n        gameStarted = false; //    \n    }\n\n    function determineWinners() private {\n        Game storage game = games[_games_tail]; //   \n\n        for (uint i = 0; i < game.luckyNumbers.length; i++) {\n            game.winner[i] = game.finalNumExists[game.luckyNumbers[i]] ? true : false; //       \n        }\n        emit GAME_ANSWER(game.winner); //    \n\n        //   \n        calculatePayouts();\n    }\n\n    function calculatePayouts() private {\n        Game storage game = games[_games_tail]; //   \n\n        for (uint i = 0; i < 3; i++) {\n            bool lucky = game.winner[i]; //    \n\n            //     \n            uint totalBettingAmount = game.bettingAmount[i][true] + game.bettingAmount[i][false]; //      \n\n            if (totalBettingAmount > 0) {\n                //  \n                uint commission = (totalBettingAmount * 1) / 10; //   10%  \n\n                //    \n                for (uint j = 0; j < game._bets_tail; j++) {\n                    BetInfo storage currentBet = game._bets[j];\n                    if (currentBet.number == i && currentBet.guess == lucky) { //      \n                        uint payout = (currentBet.betAmount * calculateOdds(i, lucky)) / 100; //  \n                        payouts[currentBet.bettor] += payout; //   \n                        updateTopPayouts(currentBet.bettor, payouts[currentBet.bettor]); //  5 \n                        currentBet.bettor.transfer(payout); //  \n                        emit PAYOUT(currentBet.bettor, payout); //    \n                    }\n                }\n                //    \n                owner.transfer(commission);\n            }\n        }\n    }\n\n\n    function calculateOdds(uint number, bool guess) public view returns (uint) {\n        require(gameStarted, \"Game has not started.\"); //   \n\n        Game storage game = games[_games_tail]; //   \n        uint totalBettingAmount = game.bettingAmount[number][true] + game.bettingAmount[number][false]; //   \n        uint guessingAmount = game.bettingAmount[number][guess]; //     \n\n        if (guessingAmount == 0 || totalBettingAmount == 0) { //      0      0 \n            return 0;\n        }\n\n        uint winningAmount = (totalBettingAmount * 9) / 10; //   90%  \n        uint odds = (winningAmount * 100) / guessingAmount; //   \n\n        return odds;\n    }\n\n\n    function generateRandomNumber(uint seed) private view returns (uint) {\n        return uint(keccak256(abi.encodePacked(block.timestamp, msg.sender, seed))); //   \n    }\n\n    function popGame() private onlyOwner {\n        delete games[_games_tail]; //    \n    }\n\n    function bet(uint number, bool guess) public payable returns(bool result) {\n        Game storage game = games[_games_tail]; //   \n        //   \n        require(gameStarted, \"Game has not started.\");\n        //    \n        require(number >= 0 && number <= 2, \"Number must be between 0 and 2\");\n        //   \n        require(msg.value >= MIN_BET_AMOUNT, \"Not enough ETH\");\n        //    \n        require(!game.userBets[msg.sender][number], \"Cannot bet on both true and false for the same number.\");\n\n        require(pushBet(number, guess), \"pushBet failed!!\");\n        \n        game.userBets[msg.sender][number] = true; //     \n\n        emit BET(game._bets_tail - 1, msg.sender, msg.value, number, guess); //   \n\n        return true;\n    }\n\n    function pushBet(uint number, bool guess) internal returns (bool) {\n        Game storage game = games[_games_tail]; //   \n\n        game.bettingAmount[number][guess] += msg.value; //     \n        \n        BetInfo memory betting; //     \n        betting.bettor = payable(msg.sender);\n        betting.betAmount = msg.value;\n        betting.number = number;\n        betting.guess = guess;\n\n        game._bets[game._bets_tail] = betting; //   \n        game._bets_tail++; //   \n\n        return true;\n    }\n\n    //  5   \n    function updateTopPayouts(address bettor, uint256 payout) private {\n        for (uint i = 0; i < topPayouts.length; i++) {\n            if (topPayouts[i].bettor == bettor) {\n                topPayouts[i].payout = payout;\n                sortTopPayouts();\n                return;\n            }\n        }\n        for (uint i = 0; i < topPayouts.length; i++) {\n            if (topPayouts[i].payout < payout) {\n                topPayouts[i] = PayoutInfo(bettor, payout);\n                sortTopPayouts();\n                return;\n            }\n        }\n    }\n\n    //  5  \n    function sortTopPayouts() private {\n        for (uint i = 0; i < topPayouts.length - 1; i++) {\n            for (uint j = i + 1; j < topPayouts.length; j++) {\n                if (topPayouts[i].payout < topPayouts[j].payout) {\n                    PayoutInfo memory temp = topPayouts[i];\n                    topPayouts[i] = topPayouts[j];\n                    topPayouts[j] = temp;\n                }\n            }\n        }\n    }\n\n    //  5  \n    function getTopPayouts() public view returns (PayoutInfo[5] memory) {\n        return topPayouts;\n    }\n\n    function getBettingAmount(uint number, bool status) public view returns (uint) {\n        return games[_games_tail].bettingAmount[number][status]; //      \n    }\n\n    function getLuckyNumbers(uint256 gameIndex) public view returns (uint[3] memory) {\n        return games[gameIndex].luckyNumbers;\n    }\n\n    function getFinalNumbers(uint256 gameIndex) public view returns (uint[6] memory) {\n        return games[gameIndex].finalNumbers;\n    }\n\n    function getWinners(uint256 gameIndex) public view returns (bool[3] memory) {\n        return games[gameIndex].winner;\n    }\n\n}",
  "sourcePath": "/Users/eomhyeonjun/now_code/Lottery_solidity/lottery-sol/contracts/Lottery.sol",
  "compiler": {
    "name": "solc",
    "version": "0.8.21+commit.d9974bed.Emscripten.clang"
  },
  "schemaVersion": "3.4.11",
  "updatedAt": "2024-05-28T11:31:39.172Z",
  "networkType": "ethereum",
  "devdoc": {
    "kind": "dev",
    "methods": {},
    "version": 1
  },
  "userdoc": {
    "kind": "user",
    "methods": {},
    "version": 1
  }
}