{
  "contractName": "Lottery",
  "abi": [
    {
      "inputs": [],
      "stateMutability": "nonpayable",
      "type": "constructor"
    },
    {
      "anonymous": false,
      "inputs": [
        {
          "indexed": false,
          "internalType": "uint256",
          "name": "index",
          "type": "uint256"
        },
        {
          "indexed": false,
          "internalType": "address",
          "name": "bettor",
          "type": "address"
        },
        {
          "indexed": false,
          "internalType": "uint256",
          "name": "amount",
          "type": "uint256"
        },
        {
          "indexed": false,
          "internalType": "uint256",
          "name": "number",
          "type": "uint256"
        },
        {
          "indexed": false,
          "internalType": "bool",
          "name": "guess",
          "type": "bool"
        },
        {
          "indexed": false,
          "internalType": "uint256",
          "name": "answerBlockNumber",
          "type": "uint256"
        }
      ],
      "name": "BET",
      "type": "event"
    },
    {
      "inputs": [],
      "name": "gameStarted",
      "outputs": [
        {
          "internalType": "bool",
          "name": "",
          "type": "bool"
        }
      ],
      "stateMutability": "view",
      "type": "function",
      "constant": true
    },
    {
      "inputs": [],
      "name": "owner",
      "outputs": [
        {
          "internalType": "address",
          "name": "",
          "type": "address"
        }
      ],
      "stateMutability": "view",
      "type": "function",
      "constant": true
    },
    {
      "inputs": [],
      "name": "startGame",
      "outputs": [],
      "stateMutability": "nonpayable",
      "type": "function"
    },
    {
      "inputs": [
        {
          "internalType": "uint256",
          "name": "number",
          "type": "uint256"
        },
        {
          "internalType": "bool",
          "name": "guess",
          "type": "bool"
        }
      ],
      "name": "bet",
      "outputs": [
        {
          "internalType": "bool",
          "name": "result",
          "type": "bool"
        }
      ],
      "stateMutability": "payable",
      "type": "function",
      "payable": true
    },
    {
      "inputs": [
        {
          "internalType": "uint256",
          "name": "index",
          "type": "uint256"
        }
      ],
      "name": "getBetInfo",
      "outputs": [
        {
          "internalType": "address",
          "name": "bettor",
          "type": "address"
        },
        {
          "internalType": "uint256",
          "name": "betAmount",
          "type": "uint256"
        },
        {
          "internalType": "uint256",
          "name": "number",
          "type": "uint256"
        },
        {
          "internalType": "bool",
          "name": "guess",
          "type": "bool"
        }
      ],
      "stateMutability": "view",
      "type": "function",
      "constant": true
    },
    {
      "inputs": [],
      "name": "endGame",
      "outputs": [],
      "stateMutability": "nonpayable",
      "type": "function"
    }
  ],
  "bytecode": "0x60806040525f600b5f6101000a81548160ff021916908315150217905550348015610028575f80fd5b50335f806101000a81548173ffffffffffffffffffffffffffffffffffffffff021916908373ffffffffffffffffffffffffffffffffffffffff1602179055506115e6806100755f395ff3fe608060405260043610610054575f3560e01c80635e123ce4146100585780636cbc2ded1461008257806379141f80146100985780638da5cb5b146100d75780639a6d3aaa14610101578063d65ab5f214610131575b5f80fd5b348015610063575f80fd5b5061006c610147565b6040516100799190610ea8565b60405180910390f35b34801561008d575f80fd5b50610096610159565b005b3480156100a3575f80fd5b506100be60048036038101906100b99190610ef8565b610342565b6040516100ce9493929190610f71565b60405180910390f35b3480156100e2575f80fd5b506100eb61040a565b6040516100f89190610fb4565b60405180910390f35b61011b60048036038101906101169190610ff7565b61042d565b6040516101289190610ea8565b60405180910390f35b34801561013c575f80fd5b506101456105dd565b005b600b5f9054906101000a900460ff1681565b5f8054906101000a900473ffffffffffffffffffffffffffffffffffffffff1673ffffffffffffffffffffffffffffffffffffffff163373ffffffffffffffffffffffffffffffffffffffff16146101e6576040517f08c379a00000000000000000000000000000000000000000000000000000000081526004016101dd906110b5565b60405180910390fd5b600b5f9054906101000a900460ff16610234576040517f08c379a000000000000000000000000000000000000000000000000000000000815260040161022b9061111d565b60405180910390fd5b5f5b600681101561031e576001602d6102586003846102539190611168565b6107bc565b61026291906111c8565b61026c9190611168565b600c819055505b60135f600c5481526020019081526020015f205f9054906101000a900460ff16156102c4576001602d6102a5836107bc565b6102af91906111c8565b6102b99190611168565b600c81905550610273565b600c54600482600681106102db576102da6111f8565b5b0181905550600160135f600c5481526020019081526020015f205f6101000a81548160ff021916908315150217905550808061031690611225565b915050610236565b506103276107f1565b5f600b5f6101000a81548160ff021916908315150217905550565b5f805f805f60155f8781526020019081526020015f206040518060800160405290815f82015f9054906101000a900473ffffffffffffffffffffffffffffffffffffffff1673ffffffffffffffffffffffffffffffffffffffff1673ffffffffffffffffffffffffffffffffffffffff1681526020016001820154815260200160028201548152602001600382015f9054906101000a900460ff1615151515815250509050805f01519450806020015193508060400151925080606001519150509193509193565b5f8054906101000a900473ffffffffffffffffffffffffffffffffffffffff1681565b5f600b5f9054906101000a900460ff1661047c576040517f08c379a00000000000000000000000000000000000000000000000000000000081526004016104739061111d565b60405180910390fd5b5f831015801561048d575060028311155b6104cc576040517f08c379a00000000000000000000000000000000000000000000000000000000081526004016104c3906112b6565b60405180910390fd5b67016345785d8a0000341015610517576040517f08c379a000000000000000000000000000000000000000000000000000000000815260040161050e9061131e565b60405180910390fd5b6105218383610b6d565b610560576040517f08c379a000000000000000000000000000000000000000000000000000000000815260040161055790611386565b60405180910390fd5b7f6a73fdbb56b5745bd9632d92c070b4aac1031a8035c64f75e1fca0b529d035df600160145461059091906113a4565b3334868660105f8a81526020019081526020015f205f891515151581526020019081526020015f20546040516105cb969594939291906113d7565b60405180910390a16001905092915050565b5f8054906101000a900473ffffffffffffffffffffffffffffffffffffffff1673ffffffffffffffffffffffffffffffffffffffff163373ffffffffffffffffffffffffffffffffffffffff161461066a576040517f08c379a0000000000000000000000000000000000000000000000000000000008152600401610661906110b5565b60405180910390fd5b600b5f9054906101000a900460ff16156106b9576040517f08c379a00000000000000000000000000000000000000000000000000000000081526004016106b090611480565b60405180910390fd5b6106c1610cbb565b5f5b600381101561079f576001602d6106d9836107bc565b6106e391906111c8565b6106ed9190611168565b600c819055505b60125f600c5481526020019081526020015f205f9054906101000a900460ff1615610745576001602d610726836107bc565b61073091906111c8565b61073a9190611168565b600c819055506106f4565b600c546001826003811061075c5761075b6111f8565b5b0181905550600160125f600c5481526020019081526020015f205f6101000a81548160ff021916908315150217905550808061079790611225565b9150506106c3565b506001600b5f6101000a81548160ff021916908315150217905550565b5f4233836040516020016107d293929190611503565b604051602081830303815290604052805190602001205f1c9050919050565b5f5b60038110156108825760135f60018360038110610813576108126111f8565b5b015481526020019081526020015f205f9054906101000a900460ff16610839575f61083c565b60015b600a82600381106108505761084f6111f8565b5b602091828204019190066101000a81548160ff021916908315150217905550808061087a90611225565b9150506107f3565b505f5b6003811015610b6a575f600a82600381106108a3576108a26111f8565b5b602091828204019190069054906101000a900460ff166108c3575f6108c6565b60015b905060105f8381526020019081526020015f205f801515151581526020019081526020015f205460105f8481526020019081526020015f205f60011515151581526020019081526020015f205461091d9190611168565b600d8360038110610931576109306111f8565b5b015f8282546109409190611168565b925050819055505f816109775760105f8481526020019081526020015f205f801515151581526020019081526020015f205461099e565b60105f8481526020019081526020015f205f60011515151581526020019081526020015f20545b90505f811115610b55575f81600a6009600d87600381106109c2576109c16111f8565b5b01546109ce919061153f565b6109d89190611580565b6109e29190611580565b90506109ec610e52565b5f5b601454811015610b515760155f8281526020019081526020015f206040518060800160405290815f82015f9054906101000a900473ffffffffffffffffffffffffffffffffffffffff1673ffffffffffffffffffffffffffffffffffffffff1673ffffffffffffffffffffffffffffffffffffffff1681526020016001820154815260200160028201548152602001600382015f9054906101000a900460ff1615151515815250509150858260400151148015610ab2575084151582606001511515145b15610b3457815f015173ffffffffffffffffffffffffffffffffffffffff166108fc846001610ae19190611168565b8460200151610af0919061153f565b90811502906040515f60405180830381858888f19350505050158015610b18573d5f803e3d5ffd5b505f600d8760038110610b2e57610b2d6111f8565b5b01819055505b610b3d81610dee565b508080610b4990611225565b9150506109ee565b5050505b50508080610b6290611225565b915050610885565b50565b5f3460105f8581526020019081526020015f205f841515151581526020019081526020015f205f828254610ba19190611168565b92505081905550610bb0610e52565b33815f019073ffffffffffffffffffffffffffffffffffffffff16908173ffffffffffffffffffffffffffffffffffffffff16815250503481602001818152505083816040018181525050828160600190151590811515815250508060155f60145481526020019081526020015f205f820151815f015f6101000a81548173ffffffffffffffffffffffffffffffffffffffff021916908373ffffffffffffffffffffffffffffffffffffffff16021790555060208201518160010155604082015181600201556060820151816003015f6101000a81548160ff02191690831515021790555090505060145f815480929190610cab90611225565b9190505550600191505092915050565b5f5b6003811015610d16575f60125f60018460038110610cde57610cdd6111f8565b5b015481526020019081526020015f205f6101000a81548160ff0219169083151502179055508080610d0e90611225565b915050610cbd565b505f5b6006811015610d72575f60135f60048460068110610d3a57610d396111f8565b5b015481526020019081526020015f205f6101000a81548160ff0219169083151502179055508080610d6a90611225565b915050610d19565b505f5b6003811015610de4575f60105f8381526020019081526020015f205f60011515151581526020019081526020015f20819055505f60105f8381526020019081526020015f205f801515151581526020019081526020015f20819055508080610ddc90611225565b915050610d75565b505f601481905550565b5f60155f8381526020019081526020015f205f8082015f6101000a81549073ffffffffffffffffffffffffffffffffffffffff0219169055600182015f9055600282015f9055600382015f6101000a81549060ff0219169055505060019050919050565b60405180608001604052805f73ffffffffffffffffffffffffffffffffffffffff1681526020015f81526020015f81526020015f151581525090565b5f8115159050919050565b610ea281610e8e565b82525050565b5f602082019050610ebb5f830184610e99565b92915050565b5f80fd5b5f819050919050565b610ed781610ec5565b8114610ee1575f80fd5b50565b5f81359050610ef281610ece565b92915050565b5f60208284031215610f0d57610f0c610ec1565b5b5f610f1a84828501610ee4565b91505092915050565b5f73ffffffffffffffffffffffffffffffffffffffff82169050919050565b5f610f4c82610f23565b9050919050565b610f5c81610f42565b82525050565b610f6b81610ec5565b82525050565b5f608082019050610f845f830187610f53565b610f916020830186610f62565b610f9e6040830185610f62565b610fab6060830184610e99565b95945050505050565b5f602082019050610fc75f830184610f53565b92915050565b610fd681610e8e565b8114610fe0575f80fd5b50565b5f81359050610ff181610fcd565b92915050565b5f806040838503121561100d5761100c610ec1565b5b5f61101a85828601610ee4565b925050602061102b85828601610fe3565b9150509250929050565b5f82825260208201905092915050565b7f4f6e6c7920746865206f776e65722063616e2063616c6c20746869732066756e5f8201527f6374696f6e2e0000000000000000000000000000000000000000000000000000602082015250565b5f61109f602683611035565b91506110aa82611045565b604082019050919050565b5f6020820190508181035f8301526110cc81611093565b9050919050565b7f47616d6520686173206e6f7420737461727465642e00000000000000000000005f82015250565b5f611107601583611035565b9150611112826110d3565b602082019050919050565b5f6020820190508181035f830152611134816110fb565b9050919050565b7f4e487b71000000000000000000000000000000000000000000000000000000005f52601160045260245ffd5b5f61117282610ec5565b915061117d83610ec5565b92508282019050808211156111955761119461113b565b5b92915050565b7f4e487b71000000000000000000000000000000000000000000000000000000005f52601260045260245ffd5b5f6111d282610ec5565b91506111dd83610ec5565b9250826111ed576111ec61119b565b5b828206905092915050565b7f4e487b71000000000000000000000000000000000000000000000000000000005f52603260045260245ffd5b5f61122f82610ec5565b91507fffffffffffffffffffffffffffffffffffffffffffffffffffffffffffffffff82036112615761126061113b565b5b600182019050919050565b7f4e756d626572206d757374206265206265747765656e203020616e64203200005f82015250565b5f6112a0601e83611035565b91506112ab8261126c565b602082019050919050565b5f6020820190508181035f8301526112cd81611294565b9050919050565b7f4e6f7420656e6f756768204554480000000000000000000000000000000000005f82015250565b5f611308600e83611035565b9150611313826112d4565b602082019050919050565b5f6020820190508181035f830152611335816112fc565b9050919050565b7f70757368426574206661696c65642121000000000000000000000000000000005f82015250565b5f611370601083611035565b915061137b8261133c565b602082019050919050565b5f6020820190508181035f83015261139d81611364565b9050919050565b5f6113ae82610ec5565b91506113b983610ec5565b92508282039050818111156113d1576113d061113b565b5b92915050565b5f60c0820190506113ea5f830189610f62565b6113f76020830188610f53565b6114046040830187610f62565b6114116060830186610f62565b61141e6080830185610e99565b61142b60a0830184610f62565b979650505050505050565b7f47616d652068617320616c726561647920737461727465642e000000000000005f82015250565b5f61146a601983611035565b915061147582611436565b602082019050919050565b5f6020820190508181035f8301526114978161145e565b9050919050565b5f819050919050565b6114b86114b382610ec5565b61149e565b82525050565b5f8160601b9050919050565b5f6114d4826114be565b9050919050565b5f6114e5826114ca565b9050919050565b6114fd6114f882610f42565b6114db565b82525050565b5f61150e82866114a7565b60208201915061151e82856114ec565b60148201915061152e82846114a7565b602082019150819050949350505050565b5f61154982610ec5565b915061155483610ec5565b925082820261156281610ec5565b915082820484148315176115795761157861113b565b5b5092915050565b5f61158a82610ec5565b915061159583610ec5565b9250826115a5576115a461119b565b5b82820490509291505056fea2646970667358221220fa5f9989f41d081247a0b2bcba674730d59142c23d41d7ce26aa39d184d4c85c64736f6c63430008150033",
  "immutableReferences": {},
  "source": "// SPDX-License-Identifier: MIT\npragma solidity ^0.8.0;\n\ncontract Lottery {\n    address public owner;\n    uint[3] luckyNumbers; //  \n    uint[6] finalNumbers; // 6 \n    bool[3] answer; //     \n    bool public gameStarted = false; //  \n    uint randomNumber;\n    uint[3] totalBetAmount;\n    \n    uint256 constant internal MIN_BET_AMOUNT = 1 * 10 ** 17; //   , 1 \n\n    mapping(uint => mapping(bool => uint)) private bettingAmount; //   (true/false)      .\n    mapping(address => mapping(uint => bool)) private bettors; //  ,   ,     .\n    mapping(uint => bool) private luckyNumExists;  //     \n    mapping(uint => bool) private finalNumExists; // 6   \n    \n    struct BetInfo {\n        address payable bettor; //   \n        uint256 betAmount;  //  \n        uint number; //  \n        bool guess; // \n    }\n    \n    uint256 private _tail;\n    // mapping (uint => mapping(bool => BetInfo[])) private _bets; //  \n    mapping (uint256 => BetInfo) private _bets;\n\n    // event -> bet   -> bettor, number, guess, amount,   bettingAmount \n    event BET(uint256 index, address bettor, uint256 amount, uint number, bool guess, uint256 answerBlockNumber);\n\n    // event ->   -> answer,   ,  \n    //     mapping , mapping  (top5)  \n\n    modifier onlyOwner() {\n        require(msg.sender == owner, \"Only the owner can call this function.\");\n        _;\n    }\n\n    constructor() {\n        owner = msg.sender;\n    }\n\n    // \n    function init() private {\n            for (uint i = 0; i < luckyNumbers.length; i++) {\n                luckyNumExists[luckyNumbers[i]] = false;\n            }\n\n            for (uint i = 0; i < finalNumbers.length; i++) {\n                finalNumExists[finalNumbers[i]] = false;\n            }\n\n            for (uint i = 0; i < luckyNumbers.length; i++) {\n                bettingAmount[i][true] = 0;\n                bettingAmount[i][false] = 0;\n            }\n            _tail = 0;\n    }\n\n    //   ,    3 \n    function startGame() public onlyOwner { \n        require(!gameStarted, \"Game has already started.\");\n        init();\n\n        for (uint i = 0; i < 3; i++) {\n            randomNumber = (generateRandomNumber(i) % 45 + 1);\n\n            while(luckyNumExists[randomNumber]) {\n                randomNumber = (generateRandomNumber(i) % 45 + 1);\n            }\n            luckyNumbers[i] = randomNumber;\n            luckyNumExists[randomNumber] = true;\n            \n        }\n        gameStarted = true;\n    }\n    \n    //   ->   bettors   \n    //       \n    function bet(uint number, bool guess) public payable returns(bool result) {\n        //   \n        require(gameStarted, \"Game has not started.\");\n        //    \n        require(number >= 0 && number <= 2, \"Number must be between 0 and 2\");\n        //   \n        require(msg.value >= MIN_BET_AMOUNT, \"Not enough ETH\");\n\n        require(pushBet(number, guess), \"pushBet failed!!\");\n\n        emit BET(_tail - 1, msg.sender, msg.value, number, guess, bettingAmount[number][guess]);\n\n        return true;\n    }\n\n    function pushBet(uint number, bool guess) internal returns (bool) {\n        bettingAmount[number][guess] += msg.value; //    \n\n        BetInfo memory betting; //    \n        betting.bettor = payable(msg.sender);\n        betting.betAmount = msg.value;\n        betting.number = number;\n        betting.guess = guess;\n\n        _bets[_tail] = betting;\n        _tail++;\n\n        return true;\n    }\n\n    function getBetInfo(uint256 index) public view returns (address bettor, uint256 betAmount, uint number, bool guess) {\n        BetInfo memory betting = _bets[index];\n        bettor = betting.bettor;\n        betAmount = betting.betAmount;\n        number = betting.number;\n        guess = betting.guess;\n    }\n\n    //   \n    function endGame() public onlyOwner {\n        require(gameStarted, \"Game has not started.\");\n        for (uint i = 0; i < 6; i++) {\n            randomNumber = (generateRandomNumber(i + 3) % 45 + 1);\n\n            while(finalNumExists[randomNumber]) {\n                randomNumber = (generateRandomNumber(i) % 45 + 1);\n            }\n            finalNumbers[i] = randomNumber;\n            finalNumExists[randomNumber] = true;\n            \n        }\n        rewardBettors();\n        gameStarted = false;\n    }\n\n\n    function rewardBettors() private {\n        //   \n        // luckyNumExists       answer \n        for (uint i = 0; i < luckyNumbers.length; i++) {\n            answer[i] = finalNumExists[luckyNumbers[i]] ? true : false;\n            \n        }\n\n        //    ->   ->  \n        for (uint i = 0; i < luckyNumbers.length; i++) {\n            bool existsInFinal = answer[i] ? true : false; //  \n            \n\n            totalBetAmount[i] += bettingAmount[i][true] + bettingAmount[i][false]; //  \n            \n\n            uint winnerPool = existsInFinal ? bettingAmount[i][true] : bettingAmount[i][false];\n            \n            if (winnerPool > 0) {\n                uint256 rewardPerEther = (totalBetAmount[i] * 9 / 10) / winnerPool; //  1   \n                \n                // BetInfo[] memory winners = _bets[i][existsInFinal];\n                BetInfo memory winners;\n\n                for (uint k = 0; k < _tail; k++) {\n                    //    .\n                    winners = _bets[k];\n                    \n                    if((winners.number == i) && (winners.guess == existsInFinal) ) {\n                        \n                        payable(winners.bettor).transfer(winners.betAmount * (1 + rewardPerEther));\n                        \n                        totalBetAmount[i] = 0;\n                    }\n                    popBet(k);\n                }\n            }\n        }\n    }\n\n    function popBet(uint256 index) internal returns (bool) {\n        delete _bets[index]; // \n        return true;\n    }\n\n    //    \n    function generateRandomNumber(uint seed) private view returns (uint) {\n        return uint(keccak256(abi.encodePacked(block.timestamp, msg.sender, seed)));\n    }\n}",
  "sourcePath": "/Users/eomhyeonjun/now_code/Lottery_solidity/lottery-sol/contracts/Lottery.sol",
  "compiler": {
    "name": "solc",
    "version": "0.8.21+commit.d9974bed.Emscripten.clang"
  },
  "schemaVersion": "3.4.16",
  "updatedAt": "2024-05-12T22:16:01.527Z",
  "networkType": "ethereum",
  "devdoc": {
    "kind": "dev",
    "methods": {},
    "version": 1
  },
  "userdoc": {
    "kind": "user",
    "methods": {},
    "version": 1
  }
}