{
  "contractName": "Lottery",
  "abi": [
    {
      "inputs": [],
      "stateMutability": "nonpayable",
      "type": "constructor"
    },
    {
      "anonymous": false,
      "inputs": [
        {
          "indexed": false,
          "internalType": "uint256[6]",
          "name": "finalNumbers",
          "type": "uint256[6]"
        }
      ],
      "name": "GAME_ENDED",
      "type": "event"
    },
    {
      "anonymous": false,
      "inputs": [
        {
          "indexed": false,
          "internalType": "uint256[3]",
          "name": "luckyNumbers",
          "type": "uint256[3]"
        }
      ],
      "name": "GAME_STARTED",
      "type": "event"
    },
    {
      "inputs": [],
      "name": "gameStarted",
      "outputs": [
        {
          "internalType": "bool",
          "name": "",
          "type": "bool"
        }
      ],
      "stateMutability": "view",
      "type": "function",
      "constant": true
    },
    {
      "inputs": [],
      "name": "owner",
      "outputs": [
        {
          "internalType": "address",
          "name": "",
          "type": "address"
        }
      ],
      "stateMutability": "view",
      "type": "function",
      "constant": true
    },
    {
      "inputs": [],
      "name": "tmp_randomNumber",
      "outputs": [
        {
          "internalType": "uint256",
          "name": "",
          "type": "uint256"
        }
      ],
      "stateMutability": "view",
      "type": "function",
      "constant": true
    },
    {
      "inputs": [],
      "name": "startGame",
      "outputs": [],
      "stateMutability": "nonpayable",
      "type": "function"
    },
    {
      "inputs": [],
      "name": "endGame",
      "outputs": [],
      "stateMutability": "nonpayable",
      "type": "function"
    }
  ],
  "bytecode": "0x60806040525f8060146101000a81548160ff0219169083151502179055505f60035534801561002c575f80fd5b50335f806101000a81548173ffffffffffffffffffffffffffffffffffffffff021916908373ffffffffffffffffffffffffffffffffffffffff160217905550610ca5806100795f395ff3fe608060405234801561000f575f80fd5b5060043610610055575f3560e01c80635e123ce4146100595780636cbc2ded146100775780638da5cb5b14610081578063d65ab5f21461009f578063fa4dec67146100a9575b5f80fd5b6100616100c7565b60405161006e91906106ea565b60405180910390f35b61007f6100d9565b005b610089610331565b6040516100969190610742565b60405180910390f35b6100a7610354565b005b6100b161058c565b6040516100be9190610773565b60405180910390f35b5f60149054906101000a900460ff1681565b5f8054906101000a900473ffffffffffffffffffffffffffffffffffffffff1673ffffffffffffffffffffffffffffffffffffffff163373ffffffffffffffffffffffffffffffffffffffff1614610166576040517f08c379a000000000000000000000000000000000000000000000000000000000815260040161015d9061080c565b60405180910390fd5b5f60149054906101000a900460ff166101b4576040517f08c379a00000000000000000000000000000000000000000000000000000000081526004016101ab90610874565b60405180910390fd5b5f60025f60035481526020019081526020015f2090505f5b60068110156102ba576001602d6101e283610592565b6101ec91906108bf565b6101f6919061091c565b6001819055505b81600a015f60015481526020019081526020015f205f9054906101000a900460ff161561025c576001602d61023d600c84610238919061091c565b610592565b61024791906108bf565b610251919061091c565b6001819055506101fd565b6001548260040182600681106102755761027461094f565b5b0181905550600182600a015f60015481526020019081526020015f205f6101000a81548160ff02191690831515021790555080806102b29061097c565b9150506101cc565b507fee7f0ec43aef1c20507102234eb8ea250816ef07f53e7a5f215d1abd9f8ce739816004016040516102ed9190610aae565b60405180910390a16102fd6105c7565b5060035f8154809291906103109061097c565b91905055505f8060146101000a81548160ff02191690831515021790555050565b5f8054906101000a900473ffffffffffffffffffffffffffffffffffffffff1681565b5f8054906101000a900473ffffffffffffffffffffffffffffffffffffffff1673ffffffffffffffffffffffffffffffffffffffff163373ffffffffffffffffffffffffffffffffffffffff16146103e1576040517f08c379a00000000000000000000000000000000000000000000000000000000081526004016103d89061080c565b60405180910390fd5b5f60149054906101000a900460ff1615610430576040517f08c379a000000000000000000000000000000000000000000000000000000000815260040161042790610b11565b60405180910390fd5b5f60025f60035481526020019081526020015f2090505f5b6003811015610535576001602d61045e83610592565b61046891906108bf565b610472919061091c565b6001819055505b816003015f60015481526020019081526020015f205f9054906101000a900460ff16156104d8576001602d6104b9600c846104b4919061091c565b610592565b6104c391906108bf565b6104cd919061091c565b600181905550610479565b600154825f0182600381106104f0576104ef61094f565b5b01819055506001826003015f60015481526020019081526020015f205f6101000a81548160ff021916908315150217905550808061052d9061097c565b915050610448565b5060015f60146101000a81548160ff0219169083151502179055507fbc0bf610e314089159fe3abf46413dbf7db2aa7b81d6d8e99cb8208cdaba29ac815f016040516105819190610bb5565b60405180910390a150565b60015481565b5f4233836040516020016105a893929190610c33565b604051602081830303815290604052805190602001205f1c9050919050565b5f805f9054906101000a900473ffffffffffffffffffffffffffffffffffffffff1673ffffffffffffffffffffffffffffffffffffffff163373ffffffffffffffffffffffffffffffffffffffff1614610656576040517f08c379a000000000000000000000000000000000000000000000000000000000815260040161064d9061080c565b60405180910390fd5b60025f60035481526020019081526020015f205f8082015f6106789190610690565b600482015f61068791906106a2565b50506001905090565b505f81556001015f81556001015f9055565b5080600601906106b291906106b5565b50565b5b808211156106cc575f815f9055506001016106b6565b5090565b5f8115159050919050565b6106e4816106d0565b82525050565b5f6020820190506106fd5f8301846106db565b92915050565b5f73ffffffffffffffffffffffffffffffffffffffff82169050919050565b5f61072c82610703565b9050919050565b61073c81610722565b82525050565b5f6020820190506107555f830184610733565b92915050565b5f819050919050565b61076d8161075b565b82525050565b5f6020820190506107865f830184610764565b92915050565b5f82825260208201905092915050565b7f4f6e6c7920746865206f776e65722063616e2063616c6c20746869732066756e5f8201527f6374696f6e2e0000000000000000000000000000000000000000000000000000602082015250565b5f6107f660268361078c565b91506108018261079c565b604082019050919050565b5f6020820190508181035f830152610823816107ea565b9050919050565b7f47616d6520686173206e6f7420737461727465642079657400000000000000005f82015250565b5f61085e60188361078c565b91506108698261082a565b602082019050919050565b5f6020820190508181035f83015261088b81610852565b9050919050565b7f4e487b71000000000000000000000000000000000000000000000000000000005f52601260045260245ffd5b5f6108c98261075b565b91506108d48361075b565b9250826108e4576108e3610892565b5b828206905092915050565b7f4e487b71000000000000000000000000000000000000000000000000000000005f52601160045260245ffd5b5f6109268261075b565b91506109318361075b565b9250828201905080821115610949576109486108ef565b5b92915050565b7f4e487b71000000000000000000000000000000000000000000000000000000005f52603260045260245ffd5b5f6109868261075b565b91507fffffffffffffffffffffffffffffffffffffffffffffffffffffffffffffffff82036109b8576109b76108ef565b5b600182019050919050565b5f60069050919050565b5f81905092915050565b5f819050919050565b6109e98161075b565b82525050565b5f6109fa83836109e0565b60208301905092915050565b5f815f1c9050919050565b5f819050919050565b5f610a2c610a2783610a06565b610a11565b9050919050565b5f610a3e8254610a1a565b9050919050565b5f600182019050919050565b610a5a816109c3565b610a6481846109cd565b9250610a6f826109d7565b805f5b83811015610aa657610a8382610a33565b610a8d87826109ef565b9650610a9883610a45565b925050600181019050610a72565b505050505050565b5f60c082019050610ac15f830184610a51565b92915050565b7f47616d652068617320616c726561647920737461727465642e000000000000005f82015250565b5f610afb60198361078c565b9150610b0682610ac7565b602082019050919050565b5f6020820190508181035f830152610b2881610aef565b9050919050565b5f60039050919050565b5f81905092915050565b5f819050919050565b5f600182019050919050565b610b6181610b2f565b610b6b8184610b39565b9250610b7682610b43565b805f5b83811015610bad57610b8a82610a33565b610b9487826109ef565b9650610b9f83610b4c565b925050600181019050610b79565b505050505050565b5f606082019050610bc85f830184610b58565b92915050565b5f819050919050565b610be8610be38261075b565b610bce565b82525050565b5f8160601b9050919050565b5f610c0482610bee565b9050919050565b5f610c1582610bfa565b9050919050565b610c2d610c2882610722565b610c0b565b82525050565b5f610c3e8286610bd7565b602082019150610c4e8285610c1c565b601482019150610c5e8284610bd7565b60208201915081905094935050505056fea26469706673582212201f1b951493f05db30c1ec36b4807be675d2100493f6b75168c080061a48bea5664736f6c63430008150033",
  "immutableReferences": {},
  "source": "// SPDX-License-Identifier: MIT\npragma solidity ^0.8.0;\n\n// 1. owner    \n// 2. 1~45     3 .\n// 3.     true or false (ex.10, 15, 20) ->  (n,y,n)\n// 4.     \n// 5. owner    \n// 6. 1 ~ 45   6 \n// 7. 6   2  3     ,     true  false  \n// 8.   \n// 9.      \n\ncontract Lottery {\n    address public owner; // owner \n    \n    bool public gameStarted = false; //  \n    uint256 constant internal MIN_BET_AMOUNT = 1 * 10 ** 18; //   , 1 \n    uint public tmp_randomNumber; //     \n    \n    \n    struct Game {\n        uint[3] luckyNumbers;\n        mapping(uint => bool) luckyNumExists;\n        uint[6] finalNumbers;\n        mapping(uint => bool) finalNumExists;\n    }\n\n    mapping (uint256 => Game) private games;\n    uint256 private _games_tail = 0;\n\n    struct BetInfo {\n        address payable bettor; //    \n        uint256 betAmount;  //  \n        uint number; //   (1~45)\n        bool guess; //  true or false\n    }\n\n    event GAME_STARTED(uint[3] luckyNumbers);\n    event GAME_ENDED(uint[6] finalNumbers);\n\n    constructor() {\n        owner = msg.sender;\n    }\n\n    modifier onlyOwner() {\n    require(msg.sender == owner, \"Only the owner can call this function.\");\n    _;\n    }\n\n    function startGame() public onlyOwner {\n        require(!gameStarted, \"Game has already started.\");\n\n        Game storage game = games[_games_tail];\n\n        for (uint i = 0; i < 3; i++) {\n            tmp_randomNumber = generateRandomNumber(i) % 45 + 1;\n            while(game.luckyNumExists[tmp_randomNumber]) {\n                tmp_randomNumber = generateRandomNumber(i + 12) % 45 + 1;\n            }\n            game.luckyNumbers[i] = tmp_randomNumber;\n            game.luckyNumExists[tmp_randomNumber] = true;\n        }\n\n        gameStarted = true;\n        emit GAME_STARTED(game.luckyNumbers);\n    }\n\n    function endGame() public onlyOwner {\n        require(gameStarted, \"Game has not started yet\");\n\n        Game storage game = games[_games_tail];\n\n        for (uint i = 0; i < 6; i++) {\n            tmp_randomNumber = generateRandomNumber(i) % 45 + 1;\n            while(game.finalNumExists[tmp_randomNumber]) {\n                tmp_randomNumber = generateRandomNumber(i + 12) % 45 + 1;\n            }\n            game.finalNumbers[i] = tmp_randomNumber;\n            game.finalNumExists[tmp_randomNumber] = true;\n        }\n\n        emit GAME_ENDED(game.finalNumbers);\n        \n        popGame();\n        _games_tail++;\n        gameStarted = false;\n    }\n\n    function generateRandomNumber(uint seed) private view returns (uint) {\n        return uint(keccak256(abi.encodePacked(block.timestamp, msg.sender, seed)));\n    }\n\n    function popGame() private onlyOwner returns (bool) {\n        delete games[_games_tail];\n        return true;\n    }\n}",
  "sourcePath": "/Users/eomhyeonjun/now_code/Lottery_solidity/lottery-sol/contracts/Lottery.sol",
  "compiler": {
    "name": "solc",
    "version": "0.8.21+commit.d9974bed.Emscripten.clang"
  },
  "schemaVersion": "3.4.16",
  "updatedAt": "2024-05-15T15:25:25.871Z",
  "networkType": "ethereum",
  "devdoc": {
    "kind": "dev",
    "methods": {},
    "version": 1
  },
  "userdoc": {
    "kind": "user",
    "methods": {},
    "version": 1
  }
}