{
  "contractName": "Lottery",
  "abi": [
    {
      "inputs": [],
      "stateMutability": "nonpayable",
      "type": "constructor"
    },
    {
      "anonymous": false,
      "inputs": [
        {
          "indexed": false,
          "internalType": "uint256[3]",
          "name": "luckyNumbers",
          "type": "uint256[3]"
        }
      ],
      "name": "GAME_STARTED",
      "type": "event"
    },
    {
      "inputs": [],
      "name": "gameStarted",
      "outputs": [
        {
          "internalType": "bool",
          "name": "",
          "type": "bool"
        }
      ],
      "stateMutability": "view",
      "type": "function",
      "constant": true
    },
    {
      "inputs": [
        {
          "internalType": "uint256",
          "name": "",
          "type": "uint256"
        }
      ],
      "name": "luckyNumbers",
      "outputs": [
        {
          "internalType": "uint256",
          "name": "",
          "type": "uint256"
        }
      ],
      "stateMutability": "view",
      "type": "function",
      "constant": true
    },
    {
      "inputs": [],
      "name": "owner",
      "outputs": [
        {
          "internalType": "address",
          "name": "",
          "type": "address"
        }
      ],
      "stateMutability": "view",
      "type": "function",
      "constant": true
    },
    {
      "inputs": [],
      "name": "tmp_randomNumber",
      "outputs": [
        {
          "internalType": "uint256",
          "name": "",
          "type": "uint256"
        }
      ],
      "stateMutability": "view",
      "type": "function",
      "constant": true
    },
    {
      "inputs": [],
      "name": "startGame",
      "outputs": [],
      "stateMutability": "nonpayable",
      "type": "function"
    },
    {
      "inputs": [],
      "name": "endGame",
      "outputs": [],
      "stateMutability": "nonpayable",
      "type": "function"
    }
  ],
  "bytecode": "0x60806040525f8060146101000a81548160ff021916908315150217905550348015610028575f80fd5b50335f806101000a81548173ffffffffffffffffffffffffffffffffffffffff021916908373ffffffffffffffffffffffffffffffffffffffff160217905550610a1f806100755f395ff3fe608060405234801561000f575f80fd5b5060043610610060575f3560e01c80635e123ce4146100645780636cbc2ded146100825780638da5cb5b1461008c578063d65ab5f2146100aa578063e780faa3146100b4578063fa4dec67146100e4575b5f80fd5b61006c610102565b60405161007991906104aa565b60405180910390f35b61008a610114565b005b61009461020a565b6040516100a19190610502565b60405180910390f35b6100b261022d565b005b6100ce60048036038101906100c99190610552565b61043c565b6040516100db919061058c565b60405180910390f35b6100ec610455565b6040516100f9919061058c565b60405180910390f35b5f60149054906101000a900460ff1681565b5f8054906101000a900473ffffffffffffffffffffffffffffffffffffffff1673ffffffffffffffffffffffffffffffffffffffff163373ffffffffffffffffffffffffffffffffffffffff16146101a1576040517f08c379a000000000000000000000000000000000000000000000000000000000815260040161019890610625565b60405180910390fd5b5f60149054906101000a900460ff166101ef576040517f08c379a00000000000000000000000000000000000000000000000000000000081526004016101e69061068d565b60405180910390fd5b5f8060146101000a81548160ff021916908315150217905550565b5f8054906101000a900473ffffffffffffffffffffffffffffffffffffffff1681565b5f8054906101000a900473ffffffffffffffffffffffffffffffffffffffff1673ffffffffffffffffffffffffffffffffffffffff163373ffffffffffffffffffffffffffffffffffffffff16146102ba576040517f08c379a00000000000000000000000000000000000000000000000000000000081526004016102b190610625565b60405180910390fd5b5f60149054906101000a900460ff1615610309576040517f08c379a0000000000000000000000000000000000000000000000000000000008152600401610300906106f5565b60405180910390fd5b5f5b60038110156103e7576001602d6103218361045b565b61032b9190610740565b610335919061079d565b6001819055505b60055f60015481526020019081526020015f205f9054906101000a900460ff161561038d576001602d61036e8361045b565b6103789190610740565b610382919061079d565b60018190555061033c565b600154600282600381106103a4576103a36107d0565b5b0181905550600160055f60015481526020019081526020015f205f6101000a81548160ff02191690831515021790555080806103df906107fd565b91505061030b565b5060015f60146101000a81548160ff0219169083151502179055507fbc0bf610e314089159fe3abf46413dbf7db2aa7b81d6d8e99cb8208cdaba29ac6002604051610432919061092f565b60405180910390a1565b6002816003811061044b575f80fd5b015f915090505481565b60015481565b5f423383604051602001610471939291906109ad565b604051602081830303815290604052805190602001205f1c9050919050565b5f8115159050919050565b6104a481610490565b82525050565b5f6020820190506104bd5f83018461049b565b92915050565b5f73ffffffffffffffffffffffffffffffffffffffff82169050919050565b5f6104ec826104c3565b9050919050565b6104fc816104e2565b82525050565b5f6020820190506105155f8301846104f3565b92915050565b5f80fd5b5f819050919050565b6105318161051f565b811461053b575f80fd5b50565b5f8135905061054c81610528565b92915050565b5f602082840312156105675761056661051b565b5b5f6105748482850161053e565b91505092915050565b6105868161051f565b82525050565b5f60208201905061059f5f83018461057d565b92915050565b5f82825260208201905092915050565b7f4f6e6c7920746865206f776e65722063616e2063616c6c20746869732066756e5f8201527f6374696f6e2e0000000000000000000000000000000000000000000000000000602082015250565b5f61060f6026836105a5565b915061061a826105b5565b604082019050919050565b5f6020820190508181035f83015261063c81610603565b9050919050565b7f47616d6520686173206e6f742073746172746564207965742e000000000000005f82015250565b5f6106776019836105a5565b915061068282610643565b602082019050919050565b5f6020820190508181035f8301526106a48161066b565b9050919050565b7f47616d652068617320616c726561647920737461727465642e000000000000005f82015250565b5f6106df6019836105a5565b91506106ea826106ab565b602082019050919050565b5f6020820190508181035f83015261070c816106d3565b9050919050565b7f4e487b71000000000000000000000000000000000000000000000000000000005f52601260045260245ffd5b5f61074a8261051f565b91506107558361051f565b92508261076557610764610713565b5b828206905092915050565b7f4e487b71000000000000000000000000000000000000000000000000000000005f52601160045260245ffd5b5f6107a78261051f565b91506107b28361051f565b92508282019050808211156107ca576107c9610770565b5b92915050565b7f4e487b71000000000000000000000000000000000000000000000000000000005f52603260045260245ffd5b5f6108078261051f565b91507fffffffffffffffffffffffffffffffffffffffffffffffffffffffffffffffff820361083957610838610770565b5b600182019050919050565b5f60039050919050565b5f81905092915050565b5f819050919050565b61086a8161051f565b82525050565b5f61087b8383610861565b60208301905092915050565b5f815f1c9050919050565b5f819050919050565b5f6108ad6108a883610887565b610892565b9050919050565b5f6108bf825461089b565b9050919050565b5f600182019050919050565b6108db81610844565b6108e5818461084e565b92506108f082610858565b805f5b8381101561092757610904826108b4565b61090e8782610870565b9650610919836108c6565b9250506001810190506108f3565b505050505050565b5f6060820190506109425f8301846108d2565b92915050565b5f819050919050565b61096261095d8261051f565b610948565b82525050565b5f8160601b9050919050565b5f61097e82610968565b9050919050565b5f61098f82610974565b9050919050565b6109a76109a2826104e2565b610985565b82525050565b5f6109b88286610951565b6020820191506109c88285610996565b6014820191506109d88284610951565b60208201915081905094935050505056fea2646970667358221220373f3d028180955e46377f7db1ad0aaa8009a6680350dd6bcf2f9ef27aa93e7664736f6c63430008150033",
  "immutableReferences": {},
  "source": "// SPDX-License-Identifier: MIT\npragma solidity ^0.8.0;\n\n// 1. owner    \n// 2. 1~45     3 .\n// 3.     true or false (ex.10, 15, 20) ->  (n,y,n)\n// 4.     \n// 5. owner    \n// 6. 1 ~ 45   6 \n// 7. 6   2  3     ,     true  false  \n// 8.   \n// 9.      \n\ncontract Lottery {\n    address public owner; // owner \n    \n    bool public gameStarted = false; //  \n    uint256 constant internal MIN_BET_AMOUNT = 1 * 10 ** 18; //   , 1 \n    uint public tmp_randomNumber; //     \n    \n    uint[3] public luckyNumbers; //  \n    mapping(uint => bool) private luckyNumExists;  //     \n\n    struct BetInfo {\n        address payable bettor; //    \n        uint256 betAmount;  //  \n        uint number; //   (1~45)\n        bool guess; //  true or false\n    }\n\n    event GAME_STARTED(uint[3] luckyNumbers);\n\n    constructor() {\n        owner = msg.sender;\n    }\n\n    modifier onlyOwner() {\n    require(msg.sender == owner, \"Only the owner can call this function.\");\n    _;\n    }\n\n    function startGame() public onlyOwner { \n        require(!gameStarted, \"Game has already started.\");\n\n        for (uint i = 0; i < 3; i++) {\n            tmp_randomNumber = (generateRandomNumber(i) % 45 + 1);\n\n            while(luckyNumExists[tmp_randomNumber]) {\n                tmp_randomNumber = (generateRandomNumber(i) % 45 + 1);\n            }\n            luckyNumbers[i] = tmp_randomNumber;\n            luckyNumExists[tmp_randomNumber] = true;\n        }\n        gameStarted = true;\n        emit GAME_STARTED(luckyNumbers);\n    }\n\n    function endGame() public onlyOwner {\n        require(gameStarted, \"Game has not started yet.\");\n        gameStarted = false;\n    }\n\n    function generateRandomNumber(uint seed) private view returns (uint) {\n        return uint(keccak256(abi.encodePacked(block.timestamp, msg.sender, seed)));\n    }\n}",
  "sourcePath": "/Users/eomhyeonjun/now_code/Lottery_solidity/lottery-sol/contracts/Lottery.sol",
  "compiler": {
    "name": "solc",
    "version": "0.8.21+commit.d9974bed.Emscripten.clang"
  },
  "schemaVersion": "3.4.16",
  "updatedAt": "2024-05-15T08:12:07.148Z",
  "networkType": "ethereum",
  "devdoc": {
    "kind": "dev",
    "methods": {},
    "version": 1
  },
  "userdoc": {
    "kind": "user",
    "methods": {},
    "version": 1
  }
}