{
  "contractName": "RandomNumberGenerator",
  "abi": [
    {
      "inputs": [
        {
          "internalType": "uint256",
          "name": "seed",
          "type": "uint256"
        }
      ],
      "name": "generateRandomNumber",
      "outputs": [
        {
          "internalType": "uint256",
          "name": "",
          "type": "uint256"
        }
      ],
      "stateMutability": "view",
      "type": "function"
    }
  ],
  "bytecode": "0x608060405234801561000f575f80fd5b506102f88061001d5f395ff3fe608060405234801561000f575f80fd5b5060043610610029575f3560e01c80634303707e1461002d575b5f80fd5b610047600480360381019061004291906100e1565b61005d565b604051610054919061011b565b60405180910390f35b5f6001602d423385604051602001610077939291906101c9565b604051602081830303815290604052805190602001205f1c6100999190610232565b6100a3919061028f565b9050919050565b5f80fd5b5f819050919050565b6100c0816100ae565b81146100ca575f80fd5b50565b5f813590506100db816100b7565b92915050565b5f602082840312156100f6576100f56100aa565b5b5f610103848285016100cd565b91505092915050565b610115816100ae565b82525050565b5f60208201905061012e5f83018461010c565b92915050565b5f819050919050565b61014e610149826100ae565b610134565b82525050565b5f73ffffffffffffffffffffffffffffffffffffffff82169050919050565b5f61017d82610154565b9050919050565b5f8160601b9050919050565b5f61019a82610184565b9050919050565b5f6101ab82610190565b9050919050565b6101c36101be82610173565b6101a1565b82525050565b5f6101d4828661013d565b6020820191506101e482856101b2565b6014820191506101f4828461013d565b602082019150819050949350505050565b7f4e487b71000000000000000000000000000000000000000000000000000000005f52601260045260245ffd5b5f61023c826100ae565b9150610247836100ae565b92508261025757610256610205565b5b828206905092915050565b7f4e487b71000000000000000000000000000000000000000000000000000000005f52601160045260245ffd5b5f610299826100ae565b91506102a4836100ae565b92508282019050808211156102bc576102bb610262565b5b9291505056fea26469706673582212203d8a23c4751fb0258166737d3c5e28b83f8bb8e9c2d668f3ab2257d94970769664736f6c63430008150033",
  "immutableReferences": {},
  "source": "// SPDX-License-Identifier: MIT\npragma solidity ^0.8.0;\n\ncontract RandomNumberGenerator {\n    function generateRandomNumber(uint seed) public view returns (uint) {\n        return uint(keccak256(abi.encodePacked(block.timestamp, msg.sender, seed))) % 45 + 1;\n    }\n}",
  "sourcePath": "/Users/eomhyeonjun/now_code/Lottery_solidity/lottery-sol/contracts/RandomNumberGenerator.sol",
  "compiler": {
    "name": "solc",
    "version": "0.8.21+commit.d9974bed.Emscripten.clang"
  },
  "schemaVersion": "3.4.11",
  "updatedAt": "2024-05-28T04:39:07.570Z",
  "networkType": "ethereum",
  "devdoc": {
    "kind": "dev",
    "methods": {},
    "version": 1
  },
  "userdoc": {
    "kind": "user",
    "methods": {},
    "version": 1
  }
}